{
	"EJ2/TokenContract.sol": {
		"TokenContract": {
			"abi": [
				{
					"inputs": [],
					"stateMutability": "nonpayable",
					"type": "constructor"
				},
				{
					"inputs": [],
					"name": "accountBalance",
					"outputs": [
						{
							"internalType": "uint256",
							"name": "",
							"type": "uint256"
						}
					],
					"stateMutability": "view",
					"type": "function"
				},
				{
					"inputs": [
						{
							"internalType": "uint256",
							"name": "_tokenAmount",
							"type": "uint256"
						}
					],
					"name": "deposit",
					"outputs": [],
					"stateMutability": "payable",
					"type": "function"
				},
				{
					"inputs": [],
					"name": "depositAmount",
					"outputs": [
						{
							"internalType": "uint256",
							"name": "",
							"type": "uint256"
						}
					],
					"stateMutability": "view",
					"type": "function"
				},
				{
					"inputs": [
						{
							"internalType": "uint256",
							"name": "_value",
							"type": "uint256"
						}
					],
					"name": "double",
					"outputs": [
						{
							"internalType": "uint256",
							"name": "",
							"type": "uint256"
						}
					],
					"stateMutability": "pure",
					"type": "function"
				},
				{
					"inputs": [
						{
							"internalType": "address",
							"name": "_receiver",
							"type": "address"
						},
						{
							"internalType": "uint256",
							"name": "_amount",
							"type": "uint256"
						}
					],
					"name": "giveToken",
					"outputs": [],
					"stateMutability": "nonpayable",
					"type": "function"
				},
				{
					"inputs": [],
					"name": "owner",
					"outputs": [
						{
							"internalType": "address",
							"name": "",
							"type": "address"
						}
					],
					"stateMutability": "view",
					"type": "function"
				},
				{
					"inputs": [
						{
							"internalType": "string",
							"name": "_name",
							"type": "string"
						}
					],
					"name": "register",
					"outputs": [],
					"stateMutability": "nonpayable",
					"type": "function"
				},
				{
					"inputs": [],
					"name": "tokenPrice",
					"outputs": [
						{
							"internalType": "uint256",
							"name": "",
							"type": "uint256"
						}
					],
					"stateMutability": "view",
					"type": "function"
				},
				{
					"inputs": [],
					"name": "tokens",
					"outputs": [
						{
							"internalType": "uint256",
							"name": "",
							"type": "uint256"
						}
					],
					"stateMutability": "view",
					"type": "function"
				},
				{
					"inputs": [
						{
							"internalType": "address",
							"name": "",
							"type": "address"
						}
					],
					"name": "users",
					"outputs": [
						{
							"internalType": "string",
							"name": "name",
							"type": "string"
						},
						{
							"internalType": "uint256",
							"name": "tokens",
							"type": "uint256"
						}
					],
					"stateMutability": "view",
					"type": "function"
				},
				{
					"inputs": [],
					"name": "whoDeposited",
					"outputs": [
						{
							"internalType": "address",
							"name": "",
							"type": "address"
						}
					],
					"stateMutability": "view",
					"type": "function"
				}
			],
			"devdoc": {
				"kind": "dev",
				"methods": {},
				"version": 1
			},
			"evm": {
				"assembly": "    /* \"EJ2/TokenContract.sol\":64:1483  contract TokenContract {... */\n  mstore(0x40, 0x80)\n    /* \"EJ2/TokenContract.sol\":147:154  5 ether */\n  0x4563918244f40000\n    /* \"EJ2/TokenContract.sol\":119:154  uint256 public tokenPrice = 5 ether */\n  0x01\n  sstore\n    /* \"EJ2/TokenContract.sol\":463:547  constructor() {... */\n  callvalue\n  dup1\n  iszero\n  tag_1\n  jumpi\n  0x00\n  dup1\n  revert\ntag_1:\n  pop\n    /* \"EJ2/TokenContract.sol\":495:505  msg.sender */\n  caller\n    /* \"EJ2/TokenContract.sol\":487:492  owner */\n  0x00\n  dup1\n    /* \"EJ2/TokenContract.sol\":487:505  owner = msg.sender */\n  0x0100\n  exp\n  dup2\n  sload\n  dup2\n  0xffffffffffffffffffffffffffffffffffffffff\n  mul\n  not\n  and\n  swap1\n  dup4\n  0xffffffffffffffffffffffffffffffffffffffff\n  and\n  mul\n  or\n  swap1\n  sstore\n  pop\n    /* \"EJ2/TokenContract.sol\":537:540  100 */\n  0x64\n    /* \"EJ2/TokenContract.sol\":515:520  users */\n  0x05\n    /* \"EJ2/TokenContract.sol\":515:527  users[owner] */\n  0x00\n    /* \"EJ2/TokenContract.sol\":521:526  owner */\n  dup1\n  0x00\n  swap1\n  sload\n  swap1\n  0x0100\n  exp\n  swap1\n  div\n  0xffffffffffffffffffffffffffffffffffffffff\n  and\n    /* \"EJ2/TokenContract.sol\":515:527  users[owner] */\n  0xffffffffffffffffffffffffffffffffffffffff\n  and\n  0xffffffffffffffffffffffffffffffffffffffff\n  and\n  dup2\n  mstore\n  0x20\n  add\n  swap1\n  dup2\n  mstore\n  0x20\n  add\n  0x00\n  keccak256\n    /* \"EJ2/TokenContract.sol\":515:534  users[owner].tokens */\n  0x01\n  add\n    /* \"EJ2/TokenContract.sol\":515:540  users[owner].tokens = 100 */\n  dup2\n  swap1\n  sstore\n  pop\n    /* \"EJ2/TokenContract.sol\":64:1483  contract TokenContract {... */\n  dataSize(sub_0)\n  dup1\n  dataOffset(sub_0)\n  0x00\n  codecopy\n  0x00\n  return\nstop\n\nsub_0: assembly {\n        /* \"EJ2/TokenContract.sol\":64:1483  contract TokenContract {... */\n      mstore(0x40, 0x80)\n      jumpi(tag_1, lt(calldatasize, 0x04))\n      shr(0xe0, calldataload(0x00))\n      dup1\n      0xa1761664\n      gt\n      tag_13\n      jumpi\n      dup1\n      0xa1761664\n      eq\n      tag_7\n      jumpi\n      dup1\n      0xa87430ba\n      eq\n      tag_8\n      jumpi\n      dup1\n      0xb0a1c1c4\n      eq\n      tag_9\n      jumpi\n      dup1\n      0xb6b55f25\n      eq\n      tag_10\n      jumpi\n      dup1\n      0xeee97206\n      eq\n      tag_11\n      jumpi\n      dup1\n      0xf2c298be\n      eq\n      tag_12\n      jumpi\n      jump(tag_1)\n    tag_13:\n      dup1\n      0x193f974c\n      eq\n      tag_2\n      jumpi\n      dup1\n      0x419759f5\n      eq\n      tag_3\n      jumpi\n      dup1\n      0x7ff9b596\n      eq\n      tag_4\n      jumpi\n      dup1\n      0x8da5cb5b\n      eq\n      tag_5\n      jumpi\n      dup1\n      0x9d63848a\n      eq\n      tag_6\n      jumpi\n    tag_1:\n      0x00\n      dup1\n      revert\n        /* \"EJ2/TokenContract.sol\":1269:1481  function giveToken(address _receiver, uint256 _amount) public onlyOwner {... */\n    tag_2:\n      callvalue\n      dup1\n      iszero\n      tag_14\n      jumpi\n      0x00\n      dup1\n      revert\n    tag_14:\n      pop\n      tag_15\n      0x04\n      dup1\n      calldatasize\n      sub\n      dup2\n      add\n      swap1\n      tag_16\n      swap2\n      swap1\n      tag_17\n      jump\t// in\n    tag_16:\n      tag_18\n      jump\t// in\n    tag_15:\n      stop\n        /* \"EJ2/TokenContract.sol\":193:218  uint public depositAmount */\n    tag_3:\n      callvalue\n      dup1\n      iszero\n      tag_19\n      jumpi\n      0x00\n      dup1\n      revert\n    tag_19:\n      pop\n      tag_20\n      tag_21\n      jump\t// in\n    tag_20:\n      mload(0x40)\n      tag_22\n      swap2\n      swap1\n      tag_23\n      jump\t// in\n    tag_22:\n      mload(0x40)\n      dup1\n      swap2\n      sub\n      swap1\n      return\n        /* \"EJ2/TokenContract.sol\":119:154  uint256 public tokenPrice = 5 ether */\n    tag_4:\n      callvalue\n      dup1\n      iszero\n      tag_24\n      jumpi\n      0x00\n      dup1\n      revert\n    tag_24:\n      pop\n      tag_25\n      tag_26\n      jump\t// in\n    tag_25:\n      mload(0x40)\n      tag_27\n      swap2\n      swap1\n      tag_23\n      jump\t// in\n    tag_27:\n      mload(0x40)\n      dup1\n      swap2\n      sub\n      swap1\n      return\n        /* \"EJ2/TokenContract.sol\":93:113  address public owner */\n    tag_5:\n      callvalue\n      dup1\n      iszero\n      tag_28\n      jumpi\n      0x00\n      dup1\n      revert\n    tag_28:\n      pop\n      tag_29\n      tag_30\n      jump\t// in\n    tag_29:\n      mload(0x40)\n      tag_31\n      swap2\n      swap1\n      tag_32\n      jump\t// in\n    tag_31:\n      mload(0x40)\n      dup1\n      swap2\n      sub\n      swap1\n      return\n        /* \"EJ2/TokenContract.sol\":656:752  function tokens() public view returns (uint256) {... */\n    tag_6:\n      callvalue\n      dup1\n      iszero\n      tag_33\n      jumpi\n      0x00\n      dup1\n      revert\n    tag_33:\n      pop\n      tag_34\n      tag_35\n      jump\t// in\n    tag_34:\n      mload(0x40)\n      tag_36\n      swap2\n      swap1\n      tag_23\n      jump\t// in\n    tag_36:\n      mload(0x40)\n      dup1\n      swap2\n      sub\n      swap1\n      return\n        /* \"EJ2/TokenContract.sol\":160:187  address public whoDeposited */\n    tag_7:\n      callvalue\n      dup1\n      iszero\n      tag_37\n      jumpi\n      0x00\n      dup1\n      revert\n    tag_37:\n      pop\n      tag_38\n      tag_39\n      jump\t// in\n    tag_38:\n      mload(0x40)\n      tag_40\n      swap2\n      swap1\n      tag_32\n      jump\t// in\n    tag_40:\n      mload(0x40)\n      dup1\n      swap2\n      sub\n      swap1\n      return\n        /* \"EJ2/TokenContract.sol\":331:373  mapping(address => Receivers) public users */\n    tag_8:\n      callvalue\n      dup1\n      iszero\n      tag_41\n      jumpi\n      0x00\n      dup1\n      revert\n    tag_41:\n      pop\n      tag_42\n      0x04\n      dup1\n      calldatasize\n      sub\n      dup2\n      add\n      swap1\n      tag_43\n      swap2\n      swap1\n      tag_44\n      jump\t// in\n    tag_43:\n      tag_45\n      jump\t// in\n    tag_42:\n      mload(0x40)\n      tag_46\n      swap3\n      swap2\n      swap1\n      tag_47\n      jump\t// in\n    tag_46:\n      mload(0x40)\n      dup1\n      swap2\n      sub\n      swap1\n      return\n        /* \"EJ2/TokenContract.sol\":224:250  uint public accountBalance */\n    tag_9:\n      callvalue\n      dup1\n      iszero\n      tag_48\n      jumpi\n      0x00\n      dup1\n      revert\n    tag_48:\n      pop\n      tag_49\n      tag_50\n      jump\t// in\n    tag_49:\n      mload(0x40)\n      tag_51\n      swap2\n      swap1\n      tag_23\n      jump\t// in\n    tag_51:\n      mload(0x40)\n      dup1\n      swap2\n      sub\n      swap1\n      return\n        /* \"EJ2/TokenContract.sol\":758:1164  function deposit(uint256 _tokenAmount) public payable {... */\n    tag_10:\n      tag_52\n      0x04\n      dup1\n      calldatasize\n      sub\n      dup2\n      add\n      swap1\n      tag_53\n      swap2\n      swap1\n      tag_54\n      jump\t// in\n    tag_53:\n      tag_55\n      jump\t// in\n    tag_52:\n      stop\n        /* \"EJ2/TokenContract.sol\":554:650  function double(uint256 _value) public pure returns (uint256) {... */\n    tag_11:\n      callvalue\n      dup1\n      iszero\n      tag_56\n      jumpi\n      0x00\n      dup1\n      revert\n    tag_56:\n      pop\n      tag_57\n      0x04\n      dup1\n      calldatasize\n      sub\n      dup2\n      add\n      swap1\n      tag_58\n      swap2\n      swap1\n      tag_54\n      jump\t// in\n    tag_58:\n      tag_59\n      jump\t// in\n    tag_57:\n      mload(0x40)\n      tag_60\n      swap2\n      swap1\n      tag_23\n      jump\t// in\n    tag_60:\n      mload(0x40)\n      dup1\n      swap2\n      sub\n      swap1\n      return\n        /* \"EJ2/TokenContract.sol\":1170:1263  function register(string memory _name) public {... */\n    tag_12:\n      callvalue\n      dup1\n      iszero\n      tag_61\n      jumpi\n      0x00\n      dup1\n      revert\n    tag_61:\n      pop\n      tag_62\n      0x04\n      dup1\n      calldatasize\n      sub\n      dup2\n      add\n      swap1\n      tag_63\n      swap2\n      swap1\n      tag_64\n      jump\t// in\n    tag_63:\n      tag_65\n      jump\t// in\n    tag_62:\n      stop\n        /* \"EJ2/TokenContract.sol\":1269:1481  function giveToken(address _receiver, uint256 _amount) public onlyOwner {... */\n    tag_18:\n        /* \"EJ2/TokenContract.sol\":433:438  owner */\n      0x00\n      dup1\n      sload\n      swap1\n      0x0100\n      exp\n      swap1\n      div\n      0xffffffffffffffffffffffffffffffffffffffff\n      and\n        /* \"EJ2/TokenContract.sol\":419:438  msg.sender == owner */\n      0xffffffffffffffffffffffffffffffffffffffff\n      and\n        /* \"EJ2/TokenContract.sol\":419:429  msg.sender */\n      caller\n        /* \"EJ2/TokenContract.sol\":419:438  msg.sender == owner */\n      0xffffffffffffffffffffffffffffffffffffffff\n      and\n      eq\n        /* \"EJ2/TokenContract.sol\":411:439  require(msg.sender == owner) */\n      tag_67\n      jumpi\n      0x00\n      dup1\n      revert\n    tag_67:\n        /* \"EJ2/TokenContract.sol\":1382:1389  _amount */\n      dup1\n        /* \"EJ2/TokenContract.sol\":1359:1364  users */\n      0x05\n        /* \"EJ2/TokenContract.sol\":1359:1371  users[owner] */\n      0x00\n        /* \"EJ2/TokenContract.sol\":1365:1370  owner */\n      dup1\n      0x00\n      swap1\n      sload\n      swap1\n      0x0100\n      exp\n      swap1\n      div\n      0xffffffffffffffffffffffffffffffffffffffff\n      and\n        /* \"EJ2/TokenContract.sol\":1359:1371  users[owner] */\n      0xffffffffffffffffffffffffffffffffffffffff\n      and\n      0xffffffffffffffffffffffffffffffffffffffff\n      and\n      dup2\n      mstore\n      0x20\n      add\n      swap1\n      dup2\n      mstore\n      0x20\n      add\n      0x00\n      keccak256\n        /* \"EJ2/TokenContract.sol\":1359:1378  users[owner].tokens */\n      0x01\n      add\n      sload\n        /* \"EJ2/TokenContract.sol\":1359:1389  users[owner].tokens >= _amount */\n      lt\n      iszero\n        /* \"EJ2/TokenContract.sol\":1351:1390  require(users[owner].tokens >= _amount) */\n      tag_69\n      jumpi\n      0x00\n      dup1\n      revert\n    tag_69:\n        /* \"EJ2/TokenContract.sol\":1423:1430  _amount */\n      dup1\n        /* \"EJ2/TokenContract.sol\":1400:1405  users */\n      0x05\n        /* \"EJ2/TokenContract.sol\":1400:1412  users[owner] */\n      0x00\n        /* \"EJ2/TokenContract.sol\":1406:1411  owner */\n      dup1\n      0x00\n      swap1\n      sload\n      swap1\n      0x0100\n      exp\n      swap1\n      div\n      0xffffffffffffffffffffffffffffffffffffffff\n      and\n        /* \"EJ2/TokenContract.sol\":1400:1412  users[owner] */\n      0xffffffffffffffffffffffffffffffffffffffff\n      and\n      0xffffffffffffffffffffffffffffffffffffffff\n      and\n      dup2\n      mstore\n      0x20\n      add\n      swap1\n      dup2\n      mstore\n      0x20\n      add\n      0x00\n      keccak256\n        /* \"EJ2/TokenContract.sol\":1400:1419  users[owner].tokens */\n      0x01\n      add\n      0x00\n        /* \"EJ2/TokenContract.sol\":1400:1430  users[owner].tokens -= _amount */\n      dup3\n      dup3\n      sload\n      tag_70\n      swap2\n      swap1\n      tag_71\n      jump\t// in\n    tag_70:\n      swap3\n      pop\n      pop\n      dup2\n      swap1\n      sstore\n      pop\n        /* \"EJ2/TokenContract.sol\":1467:1474  _amount */\n      dup1\n        /* \"EJ2/TokenContract.sol\":1440:1445  users */\n      0x05\n        /* \"EJ2/TokenContract.sol\":1440:1456  users[_receiver] */\n      0x00\n        /* \"EJ2/TokenContract.sol\":1446:1455  _receiver */\n      dup5\n        /* \"EJ2/TokenContract.sol\":1440:1456  users[_receiver] */\n      0xffffffffffffffffffffffffffffffffffffffff\n      and\n      0xffffffffffffffffffffffffffffffffffffffff\n      and\n      dup2\n      mstore\n      0x20\n      add\n      swap1\n      dup2\n      mstore\n      0x20\n      add\n      0x00\n      keccak256\n        /* \"EJ2/TokenContract.sol\":1440:1463  users[_receiver].tokens */\n      0x01\n      add\n      0x00\n        /* \"EJ2/TokenContract.sol\":1440:1474  users[_receiver].tokens += _amount */\n      dup3\n      dup3\n      sload\n      tag_72\n      swap2\n      swap1\n      tag_73\n      jump\t// in\n    tag_72:\n      swap3\n      pop\n      pop\n      dup2\n      swap1\n      sstore\n      pop\n        /* \"EJ2/TokenContract.sol\":1269:1481  function giveToken(address _receiver, uint256 _amount) public onlyOwner {... */\n      pop\n      pop\n      jump\t// out\n        /* \"EJ2/TokenContract.sol\":193:218  uint public depositAmount */\n    tag_21:\n      sload(0x03)\n      dup2\n      jump\t// out\n        /* \"EJ2/TokenContract.sol\":119:154  uint256 public tokenPrice = 5 ether */\n    tag_26:\n      sload(0x01)\n      dup2\n      jump\t// out\n        /* \"EJ2/TokenContract.sol\":93:113  address public owner */\n    tag_30:\n      0x00\n      dup1\n      sload\n      swap1\n      0x0100\n      exp\n      swap1\n      div\n      0xffffffffffffffffffffffffffffffffffffffff\n      and\n      dup2\n      jump\t// out\n        /* \"EJ2/TokenContract.sol\":656:752  function tokens() public view returns (uint256) {... */\n    tag_35:\n        /* \"EJ2/TokenContract.sol\":695:702  uint256 */\n      0x00\n        /* \"EJ2/TokenContract.sol\":721:726  users */\n      0x05\n        /* \"EJ2/TokenContract.sol\":721:738  users[msg.sender] */\n      0x00\n        /* \"EJ2/TokenContract.sol\":727:737  msg.sender */\n      caller\n        /* \"EJ2/TokenContract.sol\":721:738  users[msg.sender] */\n      0xffffffffffffffffffffffffffffffffffffffff\n      and\n      0xffffffffffffffffffffffffffffffffffffffff\n      and\n      dup2\n      mstore\n      0x20\n      add\n      swap1\n      dup2\n      mstore\n      0x20\n      add\n      0x00\n      keccak256\n        /* \"EJ2/TokenContract.sol\":721:745  users[msg.sender].tokens */\n      0x01\n      add\n      sload\n        /* \"EJ2/TokenContract.sol\":714:745  return users[msg.sender].tokens */\n      swap1\n      pop\n        /* \"EJ2/TokenContract.sol\":656:752  function tokens() public view returns (uint256) {... */\n      swap1\n      jump\t// out\n        /* \"EJ2/TokenContract.sol\":160:187  address public whoDeposited */\n    tag_39:\n      0x02\n      0x00\n      swap1\n      sload\n      swap1\n      0x0100\n      exp\n      swap1\n      div\n      0xffffffffffffffffffffffffffffffffffffffff\n      and\n      dup2\n      jump\t// out\n        /* \"EJ2/TokenContract.sol\":331:373  mapping(address => Receivers) public users */\n    tag_45:\n      mstore(0x20, 0x05)\n      dup1\n      0x00\n      mstore\n      keccak256(0x00, 0x40)\n      0x00\n      swap2\n      pop\n      swap1\n      pop\n      dup1\n      0x00\n      add\n      dup1\n      sload\n      tag_75\n      swap1\n      tag_76\n      jump\t// in\n    tag_75:\n      dup1\n      0x1f\n      add\n      0x20\n      dup1\n      swap2\n      div\n      mul\n      0x20\n      add\n      mload(0x40)\n      swap1\n      dup2\n      add\n      0x40\n      mstore\n      dup1\n      swap3\n      swap2\n      swap1\n      dup2\n      dup2\n      mstore\n      0x20\n      add\n      dup3\n      dup1\n      sload\n      tag_77\n      swap1\n      tag_76\n      jump\t// in\n    tag_77:\n      dup1\n      iszero\n      tag_78\n      jumpi\n      dup1\n      0x1f\n      lt\n      tag_79\n      jumpi\n      0x0100\n      dup1\n      dup4\n      sload\n      div\n      mul\n      dup4\n      mstore\n      swap2\n      0x20\n      add\n      swap2\n      jump(tag_78)\n    tag_79:\n      dup3\n      add\n      swap2\n      swap1\n      0x00\n      mstore\n      keccak256(0x00, 0x20)\n      swap1\n    tag_80:\n      dup2\n      sload\n      dup2\n      mstore\n      swap1\n      0x01\n      add\n      swap1\n      0x20\n      add\n      dup1\n      dup4\n      gt\n      tag_80\n      jumpi\n      dup3\n      swap1\n      sub\n      0x1f\n      and\n      dup3\n      add\n      swap2\n    tag_78:\n      pop\n      pop\n      pop\n      pop\n      pop\n      swap1\n      dup1\n      0x01\n      add\n      sload\n      swap1\n      pop\n      dup3\n      jump\t// out\n        /* \"EJ2/TokenContract.sol\":224:250  uint public accountBalance */\n    tag_50:\n      sload(0x04)\n      dup2\n      jump\t// out\n        /* \"EJ2/TokenContract.sol\":758:1164  function deposit(uint256 _tokenAmount) public payable {... */\n    tag_55:\n        /* \"EJ2/TokenContract.sol\":819:840  uint256 requiredEther */\n      0x00\n        /* \"EJ2/TokenContract.sol\":858:868  tokenPrice */\n      sload(0x01)\n        /* \"EJ2/TokenContract.sol\":843:855  _tokenAmount */\n      dup3\n        /* \"EJ2/TokenContract.sol\":843:868  _tokenAmount * tokenPrice */\n      tag_82\n      swap2\n      swap1\n      tag_83\n      jump\t// in\n    tag_82:\n        /* \"EJ2/TokenContract.sol\":819:868  uint256 requiredEther = _tokenAmount * tokenPrice */\n      swap1\n      pop\n        /* \"EJ2/TokenContract.sol\":895:908  requiredEther */\n      dup1\n        /* \"EJ2/TokenContract.sol\":882:891  msg.value */\n      callvalue\n        /* \"EJ2/TokenContract.sol\":882:908  msg.value == requiredEther */\n      eq\n        /* \"EJ2/TokenContract.sol\":874:936  require(msg.value == requiredEther, \"Insufficient Ether sent\") */\n      tag_84\n      jumpi\n      mload(0x40)\n      0x08c379a000000000000000000000000000000000000000000000000000000000\n      dup2\n      mstore\n      0x04\n      add\n      tag_85\n      swap1\n      tag_86\n      jump\t// in\n    tag_85:\n      mload(0x40)\n      dup1\n      swap2\n      sub\n      swap1\n      revert\n    tag_84:\n        /* \"EJ2/TokenContract.sol\":973:985  _tokenAmount */\n      dup2\n        /* \"EJ2/TokenContract.sol\":950:955  users */\n      0x05\n        /* \"EJ2/TokenContract.sol\":950:962  users[owner] */\n      0x00\n        /* \"EJ2/TokenContract.sol\":956:961  owner */\n      dup1\n      0x00\n      swap1\n      sload\n      swap1\n      0x0100\n      exp\n      swap1\n      div\n      0xffffffffffffffffffffffffffffffffffffffff\n      and\n        /* \"EJ2/TokenContract.sol\":950:962  users[owner] */\n      0xffffffffffffffffffffffffffffffffffffffff\n      and\n      0xffffffffffffffffffffffffffffffffffffffff\n      and\n      dup2\n      mstore\n      0x20\n      add\n      swap1\n      dup2\n      mstore\n      0x20\n      add\n      0x00\n      keccak256\n        /* \"EJ2/TokenContract.sol\":950:969  users[owner].tokens */\n      0x01\n      add\n      sload\n        /* \"EJ2/TokenContract.sol\":950:985  users[owner].tokens >= _tokenAmount */\n      lt\n      iszero\n        /* \"EJ2/TokenContract.sol\":942:1022  require(users[owner].tokens >= _tokenAmount, \"Owner doesn't have enough tokens\") */\n      tag_87\n      jumpi\n      mload(0x40)\n      0x08c379a000000000000000000000000000000000000000000000000000000000\n      dup2\n      mstore\n      0x04\n      add\n      tag_88\n      swap1\n      tag_89\n      jump\t// in\n    tag_88:\n      mload(0x40)\n      dup1\n      swap2\n      sub\n      swap1\n      revert\n    tag_87:\n        /* \"EJ2/TokenContract.sol\":1073:1085  _tokenAmount */\n      dup2\n        /* \"EJ2/TokenContract.sol\":1051:1056  users */\n      0x05\n        /* \"EJ2/TokenContract.sol\":1051:1063  users[owner] */\n      0x00\n        /* \"EJ2/TokenContract.sol\":1057:1062  owner */\n      dup1\n      0x00\n      swap1\n      sload\n      swap1\n      0x0100\n      exp\n      swap1\n      div\n      0xffffffffffffffffffffffffffffffffffffffff\n      and\n        /* \"EJ2/TokenContract.sol\":1051:1063  users[owner] */\n      0xffffffffffffffffffffffffffffffffffffffff\n      and\n      0xffffffffffffffffffffffffffffffffffffffff\n      and\n      dup2\n      mstore\n      0x20\n      add\n      swap1\n      dup2\n      mstore\n      0x20\n      add\n      0x00\n      keccak256\n        /* \"EJ2/TokenContract.sol\":1051:1070  users[owner].tokens */\n      0x01\n      add\n      sload\n        /* \"EJ2/TokenContract.sol\":1051:1085  users[owner].tokens - _tokenAmount */\n      tag_90\n      swap2\n      swap1\n      tag_71\n      jump\t// in\n    tag_90:\n        /* \"EJ2/TokenContract.sol\":1029:1034  users */\n      0x05\n        /* \"EJ2/TokenContract.sol\":1029:1041  users[owner] */\n      0x00\n        /* \"EJ2/TokenContract.sol\":1035:1040  owner */\n      dup1\n      0x00\n      swap1\n      sload\n      swap1\n      0x0100\n      exp\n      swap1\n      div\n      0xffffffffffffffffffffffffffffffffffffffff\n      and\n        /* \"EJ2/TokenContract.sol\":1029:1041  users[owner] */\n      0xffffffffffffffffffffffffffffffffffffffff\n      and\n      0xffffffffffffffffffffffffffffffffffffffff\n      and\n      dup2\n      mstore\n      0x20\n      add\n      swap1\n      dup2\n      mstore\n      0x20\n      add\n      0x00\n      keccak256\n        /* \"EJ2/TokenContract.sol\":1029:1048  users[owner].tokens */\n      0x01\n      add\n        /* \"EJ2/TokenContract.sol\":1029:1085  users[owner].tokens = users[owner].tokens - _tokenAmount */\n      dup2\n      swap1\n      sstore\n      pop\n        /* \"EJ2/TokenContract.sol\":1145:1157  _tokenAmount */\n      dup2\n        /* \"EJ2/TokenContract.sol\":1118:1123  users */\n      0x05\n        /* \"EJ2/TokenContract.sol\":1118:1135  users[msg.sender] */\n      0x00\n        /* \"EJ2/TokenContract.sol\":1124:1134  msg.sender */\n      caller\n        /* \"EJ2/TokenContract.sol\":1118:1135  users[msg.sender] */\n      0xffffffffffffffffffffffffffffffffffffffff\n      and\n      0xffffffffffffffffffffffffffffffffffffffff\n      and\n      dup2\n      mstore\n      0x20\n      add\n      swap1\n      dup2\n      mstore\n      0x20\n      add\n      0x00\n      keccak256\n        /* \"EJ2/TokenContract.sol\":1118:1142  users[msg.sender].tokens */\n      0x01\n      add\n      sload\n        /* \"EJ2/TokenContract.sol\":1118:1157  users[msg.sender].tokens + _tokenAmount */\n      tag_91\n      swap2\n      swap1\n      tag_73\n      jump\t// in\n    tag_91:\n        /* \"EJ2/TokenContract.sol\":1091:1096  users */\n      0x05\n        /* \"EJ2/TokenContract.sol\":1091:1108  users[msg.sender] */\n      0x00\n        /* \"EJ2/TokenContract.sol\":1097:1107  msg.sender */\n      caller\n        /* \"EJ2/TokenContract.sol\":1091:1108  users[msg.sender] */\n      0xffffffffffffffffffffffffffffffffffffffff\n      and\n      0xffffffffffffffffffffffffffffffffffffffff\n      and\n      dup2\n      mstore\n      0x20\n      add\n      swap1\n      dup2\n      mstore\n      0x20\n      add\n      0x00\n      keccak256\n        /* \"EJ2/TokenContract.sol\":1091:1115  users[msg.sender].tokens */\n      0x01\n      add\n        /* \"EJ2/TokenContract.sol\":1091:1157  users[msg.sender].tokens = users[msg.sender].tokens + _tokenAmount */\n      dup2\n      swap1\n      sstore\n      pop\n        /* \"EJ2/TokenContract.sol\":812:1164  {... */\n      pop\n        /* \"EJ2/TokenContract.sol\":758:1164  function deposit(uint256 _tokenAmount) public payable {... */\n      pop\n      jump\t// out\n        /* \"EJ2/TokenContract.sol\":554:650  function double(uint256 _value) public pure returns (uint256) {... */\n    tag_59:\n        /* \"EJ2/TokenContract.sol\":607:614  uint256 */\n      0x00\n        /* \"EJ2/TokenContract.sol\":642:643  2 */\n      0x02\n        /* \"EJ2/TokenContract.sol\":633:639  _value */\n      dup3\n        /* \"EJ2/TokenContract.sol\":633:643  _value * 2 */\n      tag_93\n      swap2\n      swap1\n      tag_83\n      jump\t// in\n    tag_93:\n        /* \"EJ2/TokenContract.sol\":626:643  return _value * 2 */\n      swap1\n      pop\n        /* \"EJ2/TokenContract.sol\":554:650  function double(uint256 _value) public pure returns (uint256) {... */\n      swap2\n      swap1\n      pop\n      jump\t// out\n        /* \"EJ2/TokenContract.sol\":1170:1263  function register(string memory _name) public {... */\n    tag_65:\n        /* \"EJ2/TokenContract.sol\":1251:1256  _name */\n      dup1\n        /* \"EJ2/TokenContract.sol\":1226:1231  users */\n      0x05\n        /* \"EJ2/TokenContract.sol\":1226:1243  users[msg.sender] */\n      0x00\n        /* \"EJ2/TokenContract.sol\":1232:1242  msg.sender */\n      caller\n        /* \"EJ2/TokenContract.sol\":1226:1243  users[msg.sender] */\n      0xffffffffffffffffffffffffffffffffffffffff\n      and\n      0xffffffffffffffffffffffffffffffffffffffff\n      and\n      dup2\n      mstore\n      0x20\n      add\n      swap1\n      dup2\n      mstore\n      0x20\n      add\n      0x00\n      keccak256\n        /* \"EJ2/TokenContract.sol\":1226:1248  users[msg.sender].name */\n      0x00\n      add\n        /* \"EJ2/TokenContract.sol\":1226:1256  users[msg.sender].name = _name */\n      swap1\n      dup2\n      tag_95\n      swap2\n      swap1\n      tag_96\n      jump\t// in\n    tag_95:\n      pop\n        /* \"EJ2/TokenContract.sol\":1170:1263  function register(string memory _name) public {... */\n      pop\n      jump\t// out\n        /* \"#utility.yul\":7:82   */\n    tag_97:\n        /* \"#utility.yul\":40:46   */\n      0x00\n        /* \"#utility.yul\":73:75   */\n      0x40\n        /* \"#utility.yul\":67:76   */\n      mload\n        /* \"#utility.yul\":57:76   */\n      swap1\n      pop\n        /* \"#utility.yul\":7:82   */\n      swap1\n      jump\t// out\n        /* \"#utility.yul\":88:205   */\n    tag_98:\n        /* \"#utility.yul\":197:198   */\n      0x00\n        /* \"#utility.yul\":194:195   */\n      dup1\n        /* \"#utility.yul\":187:199   */\n      revert\n        /* \"#utility.yul\":211:328   */\n    tag_99:\n        /* \"#utility.yul\":320:321   */\n      0x00\n        /* \"#utility.yul\":317:318   */\n      dup1\n        /* \"#utility.yul\":310:322   */\n      revert\n        /* \"#utility.yul\":334:460   */\n    tag_100:\n        /* \"#utility.yul\":371:378   */\n      0x00\n        /* \"#utility.yul\":411:453   */\n      0xffffffffffffffffffffffffffffffffffffffff\n        /* \"#utility.yul\":404:409   */\n      dup3\n        /* \"#utility.yul\":400:454   */\n      and\n        /* \"#utility.yul\":389:454   */\n      swap1\n      pop\n        /* \"#utility.yul\":334:460   */\n      swap2\n      swap1\n      pop\n      jump\t// out\n        /* \"#utility.yul\":466:562   */\n    tag_101:\n        /* \"#utility.yul\":503:510   */\n      0x00\n        /* \"#utility.yul\":532:556   */\n      tag_150\n        /* \"#utility.yul\":550:555   */\n      dup3\n        /* \"#utility.yul\":532:556   */\n      tag_100\n      jump\t// in\n    tag_150:\n        /* \"#utility.yul\":521:556   */\n      swap1\n      pop\n        /* \"#utility.yul\":466:562   */\n      swap2\n      swap1\n      pop\n      jump\t// out\n        /* \"#utility.yul\":568:690   */\n    tag_102:\n        /* \"#utility.yul\":641:665   */\n      tag_152\n        /* \"#utility.yul\":659:664   */\n      dup2\n        /* \"#utility.yul\":641:665   */\n      tag_101\n      jump\t// in\n    tag_152:\n        /* \"#utility.yul\":634:639   */\n      dup2\n        /* \"#utility.yul\":631:666   */\n      eq\n        /* \"#utility.yul\":621:684   */\n      tag_153\n      jumpi\n        /* \"#utility.yul\":680:681   */\n      0x00\n        /* \"#utility.yul\":677:678   */\n      dup1\n        /* \"#utility.yul\":670:682   */\n      revert\n        /* \"#utility.yul\":621:684   */\n    tag_153:\n        /* \"#utility.yul\":568:690   */\n      pop\n      jump\t// out\n        /* \"#utility.yul\":696:835   */\n    tag_103:\n        /* \"#utility.yul\":742:747   */\n      0x00\n        /* \"#utility.yul\":780:786   */\n      dup2\n        /* \"#utility.yul\":767:787   */\n      calldataload\n        /* \"#utility.yul\":758:787   */\n      swap1\n      pop\n        /* \"#utility.yul\":796:829   */\n      tag_155\n        /* \"#utility.yul\":823:828   */\n      dup2\n        /* \"#utility.yul\":796:829   */\n      tag_102\n      jump\t// in\n    tag_155:\n        /* \"#utility.yul\":696:835   */\n      swap3\n      swap2\n      pop\n      pop\n      jump\t// out\n        /* \"#utility.yul\":841:918   */\n    tag_104:\n        /* \"#utility.yul\":878:885   */\n      0x00\n        /* \"#utility.yul\":907:912   */\n      dup2\n        /* \"#utility.yul\":896:912   */\n      swap1\n      pop\n        /* \"#utility.yul\":841:918   */\n      swap2\n      swap1\n      pop\n      jump\t// out\n        /* \"#utility.yul\":924:1046   */\n    tag_105:\n        /* \"#utility.yul\":997:1021   */\n      tag_158\n        /* \"#utility.yul\":1015:1020   */\n      dup2\n        /* \"#utility.yul\":997:1021   */\n      tag_104\n      jump\t// in\n    tag_158:\n        /* \"#utility.yul\":990:995   */\n      dup2\n        /* \"#utility.yul\":987:1022   */\n      eq\n        /* \"#utility.yul\":977:1040   */\n      tag_159\n      jumpi\n        /* \"#utility.yul\":1036:1037   */\n      0x00\n        /* \"#utility.yul\":1033:1034   */\n      dup1\n        /* \"#utility.yul\":1026:1038   */\n      revert\n        /* \"#utility.yul\":977:1040   */\n    tag_159:\n        /* \"#utility.yul\":924:1046   */\n      pop\n      jump\t// out\n        /* \"#utility.yul\":1052:1191   */\n    tag_106:\n        /* \"#utility.yul\":1098:1103   */\n      0x00\n        /* \"#utility.yul\":1136:1142   */\n      dup2\n        /* \"#utility.yul\":1123:1143   */\n      calldataload\n        /* \"#utility.yul\":1114:1143   */\n      swap1\n      pop\n        /* \"#utility.yul\":1152:1185   */\n      tag_161\n        /* \"#utility.yul\":1179:1184   */\n      dup2\n        /* \"#utility.yul\":1152:1185   */\n      tag_105\n      jump\t// in\n    tag_161:\n        /* \"#utility.yul\":1052:1191   */\n      swap3\n      swap2\n      pop\n      pop\n      jump\t// out\n        /* \"#utility.yul\":1197:1671   */\n    tag_17:\n        /* \"#utility.yul\":1265:1271   */\n      0x00\n        /* \"#utility.yul\":1273:1279   */\n      dup1\n        /* \"#utility.yul\":1322:1324   */\n      0x40\n        /* \"#utility.yul\":1310:1319   */\n      dup4\n        /* \"#utility.yul\":1301:1308   */\n      dup6\n        /* \"#utility.yul\":1297:1320   */\n      sub\n        /* \"#utility.yul\":1293:1325   */\n      slt\n        /* \"#utility.yul\":1290:1409   */\n      iszero\n      tag_163\n      jumpi\n        /* \"#utility.yul\":1328:1407   */\n      tag_164\n      tag_98\n      jump\t// in\n    tag_164:\n        /* \"#utility.yul\":1290:1409   */\n    tag_163:\n        /* \"#utility.yul\":1448:1449   */\n      0x00\n        /* \"#utility.yul\":1473:1526   */\n      tag_165\n        /* \"#utility.yul\":1518:1525   */\n      dup6\n        /* \"#utility.yul\":1509:1515   */\n      dup3\n        /* \"#utility.yul\":1498:1507   */\n      dup7\n        /* \"#utility.yul\":1494:1516   */\n      add\n        /* \"#utility.yul\":1473:1526   */\n      tag_103\n      jump\t// in\n    tag_165:\n        /* \"#utility.yul\":1463:1526   */\n      swap3\n      pop\n        /* \"#utility.yul\":1419:1536   */\n      pop\n        /* \"#utility.yul\":1575:1577   */\n      0x20\n        /* \"#utility.yul\":1601:1654   */\n      tag_166\n        /* \"#utility.yul\":1646:1653   */\n      dup6\n        /* \"#utility.yul\":1637:1643   */\n      dup3\n        /* \"#utility.yul\":1626:1635   */\n      dup7\n        /* \"#utility.yul\":1622:1644   */\n      add\n        /* \"#utility.yul\":1601:1654   */\n      tag_106\n      jump\t// in\n    tag_166:\n        /* \"#utility.yul\":1591:1654   */\n      swap2\n      pop\n        /* \"#utility.yul\":1546:1664   */\n      pop\n        /* \"#utility.yul\":1197:1671   */\n      swap3\n      pop\n      swap3\n      swap1\n      pop\n      jump\t// out\n        /* \"#utility.yul\":1677:1795   */\n    tag_107:\n        /* \"#utility.yul\":1764:1788   */\n      tag_168\n        /* \"#utility.yul\":1782:1787   */\n      dup2\n        /* \"#utility.yul\":1764:1788   */\n      tag_104\n      jump\t// in\n    tag_168:\n        /* \"#utility.yul\":1759:1762   */\n      dup3\n        /* \"#utility.yul\":1752:1789   */\n      mstore\n        /* \"#utility.yul\":1677:1795   */\n      pop\n      pop\n      jump\t// out\n        /* \"#utility.yul\":1801:2023   */\n    tag_23:\n        /* \"#utility.yul\":1894:1898   */\n      0x00\n        /* \"#utility.yul\":1932:1934   */\n      0x20\n        /* \"#utility.yul\":1921:1930   */\n      dup3\n        /* \"#utility.yul\":1917:1935   */\n      add\n        /* \"#utility.yul\":1909:1935   */\n      swap1\n      pop\n        /* \"#utility.yul\":1945:2016   */\n      tag_170\n        /* \"#utility.yul\":2013:2014   */\n      0x00\n        /* \"#utility.yul\":2002:2011   */\n      dup4\n        /* \"#utility.yul\":1998:2015   */\n      add\n        /* \"#utility.yul\":1989:1995   */\n      dup5\n        /* \"#utility.yul\":1945:2016   */\n      tag_107\n      jump\t// in\n    tag_170:\n        /* \"#utility.yul\":1801:2023   */\n      swap3\n      swap2\n      pop\n      pop\n      jump\t// out\n        /* \"#utility.yul\":2029:2147   */\n    tag_108:\n        /* \"#utility.yul\":2116:2140   */\n      tag_172\n        /* \"#utility.yul\":2134:2139   */\n      dup2\n        /* \"#utility.yul\":2116:2140   */\n      tag_101\n      jump\t// in\n    tag_172:\n        /* \"#utility.yul\":2111:2114   */\n      dup3\n        /* \"#utility.yul\":2104:2141   */\n      mstore\n        /* \"#utility.yul\":2029:2147   */\n      pop\n      pop\n      jump\t// out\n        /* \"#utility.yul\":2153:2375   */\n    tag_32:\n        /* \"#utility.yul\":2246:2250   */\n      0x00\n        /* \"#utility.yul\":2284:2286   */\n      0x20\n        /* \"#utility.yul\":2273:2282   */\n      dup3\n        /* \"#utility.yul\":2269:2287   */\n      add\n        /* \"#utility.yul\":2261:2287   */\n      swap1\n      pop\n        /* \"#utility.yul\":2297:2368   */\n      tag_174\n        /* \"#utility.yul\":2365:2366   */\n      0x00\n        /* \"#utility.yul\":2354:2363   */\n      dup4\n        /* \"#utility.yul\":2350:2367   */\n      add\n        /* \"#utility.yul\":2341:2347   */\n      dup5\n        /* \"#utility.yul\":2297:2368   */\n      tag_108\n      jump\t// in\n    tag_174:\n        /* \"#utility.yul\":2153:2375   */\n      swap3\n      swap2\n      pop\n      pop\n      jump\t// out\n        /* \"#utility.yul\":2381:2710   */\n    tag_44:\n        /* \"#utility.yul\":2440:2446   */\n      0x00\n        /* \"#utility.yul\":2489:2491   */\n      0x20\n        /* \"#utility.yul\":2477:2486   */\n      dup3\n        /* \"#utility.yul\":2468:2475   */\n      dup5\n        /* \"#utility.yul\":2464:2487   */\n      sub\n        /* \"#utility.yul\":2460:2492   */\n      slt\n        /* \"#utility.yul\":2457:2576   */\n      iszero\n      tag_176\n      jumpi\n        /* \"#utility.yul\":2495:2574   */\n      tag_177\n      tag_98\n      jump\t// in\n    tag_177:\n        /* \"#utility.yul\":2457:2576   */\n    tag_176:\n        /* \"#utility.yul\":2615:2616   */\n      0x00\n        /* \"#utility.yul\":2640:2693   */\n      tag_178\n        /* \"#utility.yul\":2685:2692   */\n      dup5\n        /* \"#utility.yul\":2676:2682   */\n      dup3\n        /* \"#utility.yul\":2665:2674   */\n      dup6\n        /* \"#utility.yul\":2661:2683   */\n      add\n        /* \"#utility.yul\":2640:2693   */\n      tag_103\n      jump\t// in\n    tag_178:\n        /* \"#utility.yul\":2630:2693   */\n      swap2\n      pop\n        /* \"#utility.yul\":2586:2703   */\n      pop\n        /* \"#utility.yul\":2381:2710   */\n      swap3\n      swap2\n      pop\n      pop\n      jump\t// out\n        /* \"#utility.yul\":2716:2815   */\n    tag_109:\n        /* \"#utility.yul\":2768:2774   */\n      0x00\n        /* \"#utility.yul\":2802:2807   */\n      dup2\n        /* \"#utility.yul\":2796:2808   */\n      mload\n        /* \"#utility.yul\":2786:2808   */\n      swap1\n      pop\n        /* \"#utility.yul\":2716:2815   */\n      swap2\n      swap1\n      pop\n      jump\t// out\n        /* \"#utility.yul\":2821:2990   */\n    tag_110:\n        /* \"#utility.yul\":2905:2916   */\n      0x00\n        /* \"#utility.yul\":2939:2945   */\n      dup3\n        /* \"#utility.yul\":2934:2937   */\n      dup3\n        /* \"#utility.yul\":2927:2946   */\n      mstore\n        /* \"#utility.yul\":2979:2983   */\n      0x20\n        /* \"#utility.yul\":2974:2977   */\n      dup3\n        /* \"#utility.yul\":2970:2984   */\n      add\n        /* \"#utility.yul\":2955:2984   */\n      swap1\n      pop\n        /* \"#utility.yul\":2821:2990   */\n      swap3\n      swap2\n      pop\n      pop\n      jump\t// out\n        /* \"#utility.yul\":2996:3242   */\n    tag_111:\n        /* \"#utility.yul\":3077:3078   */\n      0x00\n        /* \"#utility.yul\":3087:3200   */\n    tag_182:\n        /* \"#utility.yul\":3101:3107   */\n      dup4\n        /* \"#utility.yul\":3098:3099   */\n      dup2\n        /* \"#utility.yul\":3095:3108   */\n      lt\n        /* \"#utility.yul\":3087:3200   */\n      iszero\n      tag_184\n      jumpi\n        /* \"#utility.yul\":3186:3187   */\n      dup1\n        /* \"#utility.yul\":3181:3184   */\n      dup3\n        /* \"#utility.yul\":3177:3188   */\n      add\n        /* \"#utility.yul\":3171:3189   */\n      mload\n        /* \"#utility.yul\":3167:3168   */\n      dup2\n        /* \"#utility.yul\":3162:3165   */\n      dup5\n        /* \"#utility.yul\":3158:3169   */\n      add\n        /* \"#utility.yul\":3151:3190   */\n      mstore\n        /* \"#utility.yul\":3123:3125   */\n      0x20\n        /* \"#utility.yul\":3120:3121   */\n      dup2\n        /* \"#utility.yul\":3116:3126   */\n      add\n        /* \"#utility.yul\":3111:3126   */\n      swap1\n      pop\n        /* \"#utility.yul\":3087:3200   */\n      jump(tag_182)\n    tag_184:\n        /* \"#utility.yul\":3234:3235   */\n      0x00\n        /* \"#utility.yul\":3225:3231   */\n      dup5\n        /* \"#utility.yul\":3220:3223   */\n      dup5\n        /* \"#utility.yul\":3216:3232   */\n      add\n        /* \"#utility.yul\":3209:3236   */\n      mstore\n        /* \"#utility.yul\":3058:3242   */\n      pop\n        /* \"#utility.yul\":2996:3242   */\n      pop\n      pop\n      pop\n      jump\t// out\n        /* \"#utility.yul\":3248:3350   */\n    tag_112:\n        /* \"#utility.yul\":3289:3295   */\n      0x00\n        /* \"#utility.yul\":3340:3342   */\n      0x1f\n        /* \"#utility.yul\":3336:3343   */\n      not\n        /* \"#utility.yul\":3331:3333   */\n      0x1f\n        /* \"#utility.yul\":3324:3329   */\n      dup4\n        /* \"#utility.yul\":3320:3334   */\n      add\n        /* \"#utility.yul\":3316:3344   */\n      and\n        /* \"#utility.yul\":3306:3344   */\n      swap1\n      pop\n        /* \"#utility.yul\":3248:3350   */\n      swap2\n      swap1\n      pop\n      jump\t// out\n        /* \"#utility.yul\":3356:3733   */\n    tag_113:\n        /* \"#utility.yul\":3444:3447   */\n      0x00\n        /* \"#utility.yul\":3472:3511   */\n      tag_187\n        /* \"#utility.yul\":3505:3510   */\n      dup3\n        /* \"#utility.yul\":3472:3511   */\n      tag_109\n      jump\t// in\n    tag_187:\n        /* \"#utility.yul\":3527:3598   */\n      tag_188\n        /* \"#utility.yul\":3591:3597   */\n      dup2\n        /* \"#utility.yul\":3586:3589   */\n      dup6\n        /* \"#utility.yul\":3527:3598   */\n      tag_110\n      jump\t// in\n    tag_188:\n        /* \"#utility.yul\":3520:3598   */\n      swap4\n      pop\n        /* \"#utility.yul\":3607:3672   */\n      tag_189\n        /* \"#utility.yul\":3665:3671   */\n      dup2\n        /* \"#utility.yul\":3660:3663   */\n      dup6\n        /* \"#utility.yul\":3653:3657   */\n      0x20\n        /* \"#utility.yul\":3646:3651   */\n      dup7\n        /* \"#utility.yul\":3642:3658   */\n      add\n        /* \"#utility.yul\":3607:3672   */\n      tag_111\n      jump\t// in\n    tag_189:\n        /* \"#utility.yul\":3697:3726   */\n      tag_190\n        /* \"#utility.yul\":3719:3725   */\n      dup2\n        /* \"#utility.yul\":3697:3726   */\n      tag_112\n      jump\t// in\n    tag_190:\n        /* \"#utility.yul\":3692:3695   */\n      dup5\n        /* \"#utility.yul\":3688:3727   */\n      add\n        /* \"#utility.yul\":3681:3727   */\n      swap2\n      pop\n        /* \"#utility.yul\":3448:3733   */\n      pop\n        /* \"#utility.yul\":3356:3733   */\n      swap3\n      swap2\n      pop\n      pop\n      jump\t// out\n        /* \"#utility.yul\":3739:4162   */\n    tag_47:\n        /* \"#utility.yul\":3880:3884   */\n      0x00\n        /* \"#utility.yul\":3918:3920   */\n      0x40\n        /* \"#utility.yul\":3907:3916   */\n      dup3\n        /* \"#utility.yul\":3903:3921   */\n      add\n        /* \"#utility.yul\":3895:3921   */\n      swap1\n      pop\n        /* \"#utility.yul\":3967:3976   */\n      dup2\n        /* \"#utility.yul\":3961:3965   */\n      dup2\n        /* \"#utility.yul\":3957:3977   */\n      sub\n        /* \"#utility.yul\":3953:3954   */\n      0x00\n        /* \"#utility.yul\":3942:3951   */\n      dup4\n        /* \"#utility.yul\":3938:3955   */\n      add\n        /* \"#utility.yul\":3931:3978   */\n      mstore\n        /* \"#utility.yul\":3995:4073   */\n      tag_192\n        /* \"#utility.yul\":4068:4072   */\n      dup2\n        /* \"#utility.yul\":4059:4065   */\n      dup6\n        /* \"#utility.yul\":3995:4073   */\n      tag_113\n      jump\t// in\n    tag_192:\n        /* \"#utility.yul\":3987:4073   */\n      swap1\n      pop\n        /* \"#utility.yul\":4083:4155   */\n      tag_193\n        /* \"#utility.yul\":4151:4153   */\n      0x20\n        /* \"#utility.yul\":4140:4149   */\n      dup4\n        /* \"#utility.yul\":4136:4154   */\n      add\n        /* \"#utility.yul\":4127:4133   */\n      dup5\n        /* \"#utility.yul\":4083:4155   */\n      tag_107\n      jump\t// in\n    tag_193:\n        /* \"#utility.yul\":3739:4162   */\n      swap4\n      swap3\n      pop\n      pop\n      pop\n      jump\t// out\n        /* \"#utility.yul\":4168:4497   */\n    tag_54:\n        /* \"#utility.yul\":4227:4233   */\n      0x00\n        /* \"#utility.yul\":4276:4278   */\n      0x20\n        /* \"#utility.yul\":4264:4273   */\n      dup3\n        /* \"#utility.yul\":4255:4262   */\n      dup5\n        /* \"#utility.yul\":4251:4274   */\n      sub\n        /* \"#utility.yul\":4247:4279   */\n      slt\n        /* \"#utility.yul\":4244:4363   */\n      iszero\n      tag_195\n      jumpi\n        /* \"#utility.yul\":4282:4361   */\n      tag_196\n      tag_98\n      jump\t// in\n    tag_196:\n        /* \"#utility.yul\":4244:4363   */\n    tag_195:\n        /* \"#utility.yul\":4402:4403   */\n      0x00\n        /* \"#utility.yul\":4427:4480   */\n      tag_197\n        /* \"#utility.yul\":4472:4479   */\n      dup5\n        /* \"#utility.yul\":4463:4469   */\n      dup3\n        /* \"#utility.yul\":4452:4461   */\n      dup6\n        /* \"#utility.yul\":4448:4470   */\n      add\n        /* \"#utility.yul\":4427:4480   */\n      tag_106\n      jump\t// in\n    tag_197:\n        /* \"#utility.yul\":4417:4480   */\n      swap2\n      pop\n        /* \"#utility.yul\":4373:4490   */\n      pop\n        /* \"#utility.yul\":4168:4497   */\n      swap3\n      swap2\n      pop\n      pop\n      jump\t// out\n        /* \"#utility.yul\":4503:4620   */\n    tag_114:\n        /* \"#utility.yul\":4612:4613   */\n      0x00\n        /* \"#utility.yul\":4609:4610   */\n      dup1\n        /* \"#utility.yul\":4602:4614   */\n      revert\n        /* \"#utility.yul\":4626:4743   */\n    tag_115:\n        /* \"#utility.yul\":4735:4736   */\n      0x00\n        /* \"#utility.yul\":4732:4733   */\n      dup1\n        /* \"#utility.yul\":4725:4737   */\n      revert\n        /* \"#utility.yul\":4749:4929   */\n    tag_116:\n        /* \"#utility.yul\":4797:4874   */\n      0x4e487b7100000000000000000000000000000000000000000000000000000000\n        /* \"#utility.yul\":4794:4795   */\n      0x00\n        /* \"#utility.yul\":4787:4875   */\n      mstore\n        /* \"#utility.yul\":4894:4898   */\n      0x41\n        /* \"#utility.yul\":4891:4892   */\n      0x04\n        /* \"#utility.yul\":4884:4899   */\n      mstore\n        /* \"#utility.yul\":4918:4922   */\n      0x24\n        /* \"#utility.yul\":4915:4916   */\n      0x00\n        /* \"#utility.yul\":4908:4923   */\n      revert\n        /* \"#utility.yul\":4935:5216   */\n    tag_117:\n        /* \"#utility.yul\":5018:5045   */\n      tag_202\n        /* \"#utility.yul\":5040:5044   */\n      dup3\n        /* \"#utility.yul\":5018:5045   */\n      tag_112\n      jump\t// in\n    tag_202:\n        /* \"#utility.yul\":5010:5016   */\n      dup2\n        /* \"#utility.yul\":5006:5046   */\n      add\n        /* \"#utility.yul\":5148:5154   */\n      dup2\n        /* \"#utility.yul\":5136:5146   */\n      dup2\n        /* \"#utility.yul\":5133:5155   */\n      lt\n        /* \"#utility.yul\":5112:5130   */\n      0xffffffffffffffff\n        /* \"#utility.yul\":5100:5110   */\n      dup3\n        /* \"#utility.yul\":5097:5131   */\n      gt\n        /* \"#utility.yul\":5094:5156   */\n      or\n        /* \"#utility.yul\":5091:5179   */\n      iszero\n      tag_203\n      jumpi\n        /* \"#utility.yul\":5159:5177   */\n      tag_204\n      tag_116\n      jump\t// in\n    tag_204:\n        /* \"#utility.yul\":5091:5179   */\n    tag_203:\n        /* \"#utility.yul\":5199:5209   */\n      dup1\n        /* \"#utility.yul\":5195:5197   */\n      0x40\n        /* \"#utility.yul\":5188:5210   */\n      mstore\n        /* \"#utility.yul\":4978:5216   */\n      pop\n        /* \"#utility.yul\":4935:5216   */\n      pop\n      pop\n      jump\t// out\n        /* \"#utility.yul\":5222:5351   */\n    tag_118:\n        /* \"#utility.yul\":5256:5262   */\n      0x00\n        /* \"#utility.yul\":5283:5303   */\n      tag_206\n      tag_97\n      jump\t// in\n    tag_206:\n        /* \"#utility.yul\":5273:5303   */\n      swap1\n      pop\n        /* \"#utility.yul\":5312:5345   */\n      tag_207\n        /* \"#utility.yul\":5340:5344   */\n      dup3\n        /* \"#utility.yul\":5332:5338   */\n      dup3\n        /* \"#utility.yul\":5312:5345   */\n      tag_117\n      jump\t// in\n    tag_207:\n        /* \"#utility.yul\":5222:5351   */\n      swap2\n      swap1\n      pop\n      jump\t// out\n        /* \"#utility.yul\":5357:5665   */\n    tag_119:\n        /* \"#utility.yul\":5419:5423   */\n      0x00\n        /* \"#utility.yul\":5509:5527   */\n      0xffffffffffffffff\n        /* \"#utility.yul\":5501:5507   */\n      dup3\n        /* \"#utility.yul\":5498:5528   */\n      gt\n        /* \"#utility.yul\":5495:5551   */\n      iszero\n      tag_209\n      jumpi\n        /* \"#utility.yul\":5531:5549   */\n      tag_210\n      tag_116\n      jump\t// in\n    tag_210:\n        /* \"#utility.yul\":5495:5551   */\n    tag_209:\n        /* \"#utility.yul\":5569:5598   */\n      tag_211\n        /* \"#utility.yul\":5591:5597   */\n      dup3\n        /* \"#utility.yul\":5569:5598   */\n      tag_112\n      jump\t// in\n    tag_211:\n        /* \"#utility.yul\":5561:5598   */\n      swap1\n      pop\n        /* \"#utility.yul\":5653:5657   */\n      0x20\n        /* \"#utility.yul\":5647:5651   */\n      dup2\n        /* \"#utility.yul\":5643:5658   */\n      add\n        /* \"#utility.yul\":5635:5658   */\n      swap1\n      pop\n        /* \"#utility.yul\":5357:5665   */\n      swap2\n      swap1\n      pop\n      jump\t// out\n        /* \"#utility.yul\":5671:5817   */\n    tag_120:\n        /* \"#utility.yul\":5768:5774   */\n      dup3\n        /* \"#utility.yul\":5763:5766   */\n      dup2\n        /* \"#utility.yul\":5758:5761   */\n      dup4\n        /* \"#utility.yul\":5745:5775   */\n      calldatacopy\n        /* \"#utility.yul\":5809:5810   */\n      0x00\n        /* \"#utility.yul\":5800:5806   */\n      dup4\n        /* \"#utility.yul\":5795:5798   */\n      dup4\n        /* \"#utility.yul\":5791:5807   */\n      add\n        /* \"#utility.yul\":5784:5811   */\n      mstore\n        /* \"#utility.yul\":5671:5817   */\n      pop\n      pop\n      pop\n      jump\t// out\n        /* \"#utility.yul\":5823:6248   */\n    tag_121:\n        /* \"#utility.yul\":5901:5906   */\n      0x00\n        /* \"#utility.yul\":5926:5992   */\n      tag_214\n        /* \"#utility.yul\":5942:5991   */\n      tag_215\n        /* \"#utility.yul\":5984:5990   */\n      dup5\n        /* \"#utility.yul\":5942:5991   */\n      tag_119\n      jump\t// in\n    tag_215:\n        /* \"#utility.yul\":5926:5992   */\n      tag_118\n      jump\t// in\n    tag_214:\n        /* \"#utility.yul\":5917:5992   */\n      swap1\n      pop\n        /* \"#utility.yul\":6015:6021   */\n      dup3\n        /* \"#utility.yul\":6008:6013   */\n      dup2\n        /* \"#utility.yul\":6001:6022   */\n      mstore\n        /* \"#utility.yul\":6053:6057   */\n      0x20\n        /* \"#utility.yul\":6046:6051   */\n      dup2\n        /* \"#utility.yul\":6042:6058   */\n      add\n        /* \"#utility.yul\":6091:6094   */\n      dup5\n        /* \"#utility.yul\":6082:6088   */\n      dup5\n        /* \"#utility.yul\":6077:6080   */\n      dup5\n        /* \"#utility.yul\":6073:6089   */\n      add\n        /* \"#utility.yul\":6070:6095   */\n      gt\n        /* \"#utility.yul\":6067:6179   */\n      iszero\n      tag_216\n      jumpi\n        /* \"#utility.yul\":6098:6177   */\n      tag_217\n      tag_115\n      jump\t// in\n    tag_217:\n        /* \"#utility.yul\":6067:6179   */\n    tag_216:\n        /* \"#utility.yul\":6188:6242   */\n      tag_218\n        /* \"#utility.yul\":6235:6241   */\n      dup5\n        /* \"#utility.yul\":6230:6233   */\n      dup3\n        /* \"#utility.yul\":6225:6228   */\n      dup6\n        /* \"#utility.yul\":6188:6242   */\n      tag_120\n      jump\t// in\n    tag_218:\n        /* \"#utility.yul\":5907:6248   */\n      pop\n        /* \"#utility.yul\":5823:6248   */\n      swap4\n      swap3\n      pop\n      pop\n      pop\n      jump\t// out\n        /* \"#utility.yul\":6268:6608   */\n    tag_122:\n        /* \"#utility.yul\":6324:6329   */\n      0x00\n        /* \"#utility.yul\":6373:6376   */\n      dup3\n        /* \"#utility.yul\":6366:6370   */\n      0x1f\n        /* \"#utility.yul\":6358:6364   */\n      dup4\n        /* \"#utility.yul\":6354:6371   */\n      add\n        /* \"#utility.yul\":6350:6377   */\n      slt\n        /* \"#utility.yul\":6340:6462   */\n      tag_220\n      jumpi\n        /* \"#utility.yul\":6381:6460   */\n      tag_221\n      tag_114\n      jump\t// in\n    tag_221:\n        /* \"#utility.yul\":6340:6462   */\n    tag_220:\n        /* \"#utility.yul\":6498:6504   */\n      dup2\n        /* \"#utility.yul\":6485:6505   */\n      calldataload\n        /* \"#utility.yul\":6523:6602   */\n      tag_222\n        /* \"#utility.yul\":6598:6601   */\n      dup5\n        /* \"#utility.yul\":6590:6596   */\n      dup3\n        /* \"#utility.yul\":6583:6587   */\n      0x20\n        /* \"#utility.yul\":6575:6581   */\n      dup7\n        /* \"#utility.yul\":6571:6588   */\n      add\n        /* \"#utility.yul\":6523:6602   */\n      tag_121\n      jump\t// in\n    tag_222:\n        /* \"#utility.yul\":6514:6602   */\n      swap2\n      pop\n        /* \"#utility.yul\":6330:6608   */\n      pop\n        /* \"#utility.yul\":6268:6608   */\n      swap3\n      swap2\n      pop\n      pop\n      jump\t// out\n        /* \"#utility.yul\":6614:7123   */\n    tag_64:\n        /* \"#utility.yul\":6683:6689   */\n      0x00\n        /* \"#utility.yul\":6732:6734   */\n      0x20\n        /* \"#utility.yul\":6720:6729   */\n      dup3\n        /* \"#utility.yul\":6711:6718   */\n      dup5\n        /* \"#utility.yul\":6707:6730   */\n      sub\n        /* \"#utility.yul\":6703:6735   */\n      slt\n        /* \"#utility.yul\":6700:6819   */\n      iszero\n      tag_224\n      jumpi\n        /* \"#utility.yul\":6738:6817   */\n      tag_225\n      tag_98\n      jump\t// in\n    tag_225:\n        /* \"#utility.yul\":6700:6819   */\n    tag_224:\n        /* \"#utility.yul\":6886:6887   */\n      0x00\n        /* \"#utility.yul\":6875:6884   */\n      dup3\n        /* \"#utility.yul\":6871:6888   */\n      add\n        /* \"#utility.yul\":6858:6889   */\n      calldataload\n        /* \"#utility.yul\":6916:6934   */\n      0xffffffffffffffff\n        /* \"#utility.yul\":6908:6914   */\n      dup2\n        /* \"#utility.yul\":6905:6935   */\n      gt\n        /* \"#utility.yul\":6902:7019   */\n      iszero\n      tag_226\n      jumpi\n        /* \"#utility.yul\":6938:7017   */\n      tag_227\n      tag_99\n      jump\t// in\n    tag_227:\n        /* \"#utility.yul\":6902:7019   */\n    tag_226:\n        /* \"#utility.yul\":7043:7106   */\n      tag_228\n        /* \"#utility.yul\":7098:7105   */\n      dup5\n        /* \"#utility.yul\":7089:7095   */\n      dup3\n        /* \"#utility.yul\":7078:7087   */\n      dup6\n        /* \"#utility.yul\":7074:7096   */\n      add\n        /* \"#utility.yul\":7043:7106   */\n      tag_122\n      jump\t// in\n    tag_228:\n        /* \"#utility.yul\":7033:7106   */\n      swap2\n      pop\n        /* \"#utility.yul\":6829:7116   */\n      pop\n        /* \"#utility.yul\":6614:7123   */\n      swap3\n      swap2\n      pop\n      pop\n      jump\t// out\n        /* \"#utility.yul\":7129:7309   */\n    tag_123:\n        /* \"#utility.yul\":7177:7254   */\n      0x4e487b7100000000000000000000000000000000000000000000000000000000\n        /* \"#utility.yul\":7174:7175   */\n      0x00\n        /* \"#utility.yul\":7167:7255   */\n      mstore\n        /* \"#utility.yul\":7274:7278   */\n      0x11\n        /* \"#utility.yul\":7271:7272   */\n      0x04\n        /* \"#utility.yul\":7264:7279   */\n      mstore\n        /* \"#utility.yul\":7298:7302   */\n      0x24\n        /* \"#utility.yul\":7295:7296   */\n      0x00\n        /* \"#utility.yul\":7288:7303   */\n      revert\n        /* \"#utility.yul\":7315:7509   */\n    tag_71:\n        /* \"#utility.yul\":7355:7359   */\n      0x00\n        /* \"#utility.yul\":7375:7395   */\n      tag_231\n        /* \"#utility.yul\":7393:7394   */\n      dup3\n        /* \"#utility.yul\":7375:7395   */\n      tag_104\n      jump\t// in\n    tag_231:\n        /* \"#utility.yul\":7370:7395   */\n      swap2\n      pop\n        /* \"#utility.yul\":7409:7429   */\n      tag_232\n        /* \"#utility.yul\":7427:7428   */\n      dup4\n        /* \"#utility.yul\":7409:7429   */\n      tag_104\n      jump\t// in\n    tag_232:\n        /* \"#utility.yul\":7404:7429   */\n      swap3\n      pop\n        /* \"#utility.yul\":7453:7454   */\n      dup3\n        /* \"#utility.yul\":7450:7451   */\n      dup3\n        /* \"#utility.yul\":7446:7455   */\n      sub\n        /* \"#utility.yul\":7438:7455   */\n      swap1\n      pop\n        /* \"#utility.yul\":7477:7478   */\n      dup2\n        /* \"#utility.yul\":7471:7475   */\n      dup2\n        /* \"#utility.yul\":7468:7479   */\n      gt\n        /* \"#utility.yul\":7465:7502   */\n      iszero\n      tag_233\n      jumpi\n        /* \"#utility.yul\":7482:7500   */\n      tag_234\n      tag_123\n      jump\t// in\n    tag_234:\n        /* \"#utility.yul\":7465:7502   */\n    tag_233:\n        /* \"#utility.yul\":7315:7509   */\n      swap3\n      swap2\n      pop\n      pop\n      jump\t// out\n        /* \"#utility.yul\":7515:7706   */\n    tag_73:\n        /* \"#utility.yul\":7555:7558   */\n      0x00\n        /* \"#utility.yul\":7574:7594   */\n      tag_236\n        /* \"#utility.yul\":7592:7593   */\n      dup3\n        /* \"#utility.yul\":7574:7594   */\n      tag_104\n      jump\t// in\n    tag_236:\n        /* \"#utility.yul\":7569:7594   */\n      swap2\n      pop\n        /* \"#utility.yul\":7608:7628   */\n      tag_237\n        /* \"#utility.yul\":7626:7627   */\n      dup4\n        /* \"#utility.yul\":7608:7628   */\n      tag_104\n      jump\t// in\n    tag_237:\n        /* \"#utility.yul\":7603:7628   */\n      swap3\n      pop\n        /* \"#utility.yul\":7651:7652   */\n      dup3\n        /* \"#utility.yul\":7648:7649   */\n      dup3\n        /* \"#utility.yul\":7644:7653   */\n      add\n        /* \"#utility.yul\":7637:7653   */\n      swap1\n      pop\n        /* \"#utility.yul\":7672:7675   */\n      dup1\n        /* \"#utility.yul\":7669:7670   */\n      dup3\n        /* \"#utility.yul\":7666:7676   */\n      gt\n        /* \"#utility.yul\":7663:7699   */\n      iszero\n      tag_238\n      jumpi\n        /* \"#utility.yul\":7679:7697   */\n      tag_239\n      tag_123\n      jump\t// in\n    tag_239:\n        /* \"#utility.yul\":7663:7699   */\n    tag_238:\n        /* \"#utility.yul\":7515:7706   */\n      swap3\n      swap2\n      pop\n      pop\n      jump\t// out\n        /* \"#utility.yul\":7712:7892   */\n    tag_124:\n        /* \"#utility.yul\":7760:7837   */\n      0x4e487b7100000000000000000000000000000000000000000000000000000000\n        /* \"#utility.yul\":7757:7758   */\n      0x00\n        /* \"#utility.yul\":7750:7838   */\n      mstore\n        /* \"#utility.yul\":7857:7861   */\n      0x22\n        /* \"#utility.yul\":7854:7855   */\n      0x04\n        /* \"#utility.yul\":7847:7862   */\n      mstore\n        /* \"#utility.yul\":7881:7885   */\n      0x24\n        /* \"#utility.yul\":7878:7879   */\n      0x00\n        /* \"#utility.yul\":7871:7886   */\n      revert\n        /* \"#utility.yul\":7898:8218   */\n    tag_76:\n        /* \"#utility.yul\":7942:7948   */\n      0x00\n        /* \"#utility.yul\":7979:7980   */\n      0x02\n        /* \"#utility.yul\":7973:7977   */\n      dup3\n        /* \"#utility.yul\":7969:7981   */\n      div\n        /* \"#utility.yul\":7959:7981   */\n      swap1\n      pop\n        /* \"#utility.yul\":8026:8027   */\n      0x01\n        /* \"#utility.yul\":8020:8024   */\n      dup3\n        /* \"#utility.yul\":8016:8028   */\n      and\n        /* \"#utility.yul\":8047:8065   */\n      dup1\n        /* \"#utility.yul\":8037:8118   */\n      tag_242\n      jumpi\n        /* \"#utility.yul\":8103:8107   */\n      0x7f\n        /* \"#utility.yul\":8095:8101   */\n      dup3\n        /* \"#utility.yul\":8091:8108   */\n      and\n        /* \"#utility.yul\":8081:8108   */\n      swap2\n      pop\n        /* \"#utility.yul\":8037:8118   */\n    tag_242:\n        /* \"#utility.yul\":8165:8167   */\n      0x20\n        /* \"#utility.yul\":8157:8163   */\n      dup3\n        /* \"#utility.yul\":8154:8168   */\n      lt\n        /* \"#utility.yul\":8134:8152   */\n      dup2\n        /* \"#utility.yul\":8131:8169   */\n      sub\n        /* \"#utility.yul\":8128:8212   */\n      tag_243\n      jumpi\n        /* \"#utility.yul\":8184:8202   */\n      tag_244\n      tag_124\n      jump\t// in\n    tag_244:\n        /* \"#utility.yul\":8128:8212   */\n    tag_243:\n        /* \"#utility.yul\":7949:8218   */\n      pop\n        /* \"#utility.yul\":7898:8218   */\n      swap2\n      swap1\n      pop\n      jump\t// out\n        /* \"#utility.yul\":8224:8634   */\n    tag_83:\n        /* \"#utility.yul\":8264:8271   */\n      0x00\n        /* \"#utility.yul\":8287:8307   */\n      tag_246\n        /* \"#utility.yul\":8305:8306   */\n      dup3\n        /* \"#utility.yul\":8287:8307   */\n      tag_104\n      jump\t// in\n    tag_246:\n        /* \"#utility.yul\":8282:8307   */\n      swap2\n      pop\n        /* \"#utility.yul\":8321:8341   */\n      tag_247\n        /* \"#utility.yul\":8339:8340   */\n      dup4\n        /* \"#utility.yul\":8321:8341   */\n      tag_104\n      jump\t// in\n    tag_247:\n        /* \"#utility.yul\":8316:8341   */\n      swap3\n      pop\n        /* \"#utility.yul\":8376:8377   */\n      dup3\n        /* \"#utility.yul\":8373:8374   */\n      dup3\n        /* \"#utility.yul\":8369:8378   */\n      mul\n        /* \"#utility.yul\":8398:8428   */\n      tag_248\n        /* \"#utility.yul\":8416:8427   */\n      dup2\n        /* \"#utility.yul\":8398:8428   */\n      tag_104\n      jump\t// in\n    tag_248:\n        /* \"#utility.yul\":8387:8428   */\n      swap2\n      pop\n        /* \"#utility.yul\":8577:8578   */\n      dup3\n        /* \"#utility.yul\":8568:8575   */\n      dup3\n        /* \"#utility.yul\":8564:8579   */\n      div\n        /* \"#utility.yul\":8561:8562   */\n      dup5\n        /* \"#utility.yul\":8558:8580   */\n      eq\n        /* \"#utility.yul\":8538:8539   */\n      dup4\n        /* \"#utility.yul\":8531:8540   */\n      iszero\n        /* \"#utility.yul\":8511:8594   */\n      or\n        /* \"#utility.yul\":8488:8627   */\n      tag_249\n      jumpi\n        /* \"#utility.yul\":8607:8625   */\n      tag_250\n      tag_123\n      jump\t// in\n    tag_250:\n        /* \"#utility.yul\":8488:8627   */\n    tag_249:\n        /* \"#utility.yul\":8272:8634   */\n      pop\n        /* \"#utility.yul\":8224:8634   */\n      swap3\n      swap2\n      pop\n      pop\n      jump\t// out\n        /* \"#utility.yul\":8640:8813   */\n    tag_125:\n        /* \"#utility.yul\":8780:8805   */\n      0x496e73756666696369656e742045746865722073656e74000000000000000000\n        /* \"#utility.yul\":8776:8777   */\n      0x00\n        /* \"#utility.yul\":8768:8774   */\n      dup3\n        /* \"#utility.yul\":8764:8778   */\n      add\n        /* \"#utility.yul\":8757:8806   */\n      mstore\n        /* \"#utility.yul\":8640:8813   */\n      pop\n      jump\t// out\n        /* \"#utility.yul\":8819:9185   */\n    tag_126:\n        /* \"#utility.yul\":8961:8964   */\n      0x00\n        /* \"#utility.yul\":8982:9049   */\n      tag_253\n        /* \"#utility.yul\":9046:9048   */\n      0x17\n        /* \"#utility.yul\":9041:9044   */\n      dup4\n        /* \"#utility.yul\":8982:9049   */\n      tag_110\n      jump\t// in\n    tag_253:\n        /* \"#utility.yul\":8975:9049   */\n      swap2\n      pop\n        /* \"#utility.yul\":9058:9151   */\n      tag_254\n        /* \"#utility.yul\":9147:9150   */\n      dup3\n        /* \"#utility.yul\":9058:9151   */\n      tag_125\n      jump\t// in\n    tag_254:\n        /* \"#utility.yul\":9176:9178   */\n      0x20\n        /* \"#utility.yul\":9171:9174   */\n      dup3\n        /* \"#utility.yul\":9167:9179   */\n      add\n        /* \"#utility.yul\":9160:9179   */\n      swap1\n      pop\n        /* \"#utility.yul\":8819:9185   */\n      swap2\n      swap1\n      pop\n      jump\t// out\n        /* \"#utility.yul\":9191:9610   */\n    tag_86:\n        /* \"#utility.yul\":9357:9361   */\n      0x00\n        /* \"#utility.yul\":9395:9397   */\n      0x20\n        /* \"#utility.yul\":9384:9393   */\n      dup3\n        /* \"#utility.yul\":9380:9398   */\n      add\n        /* \"#utility.yul\":9372:9398   */\n      swap1\n      pop\n        /* \"#utility.yul\":9444:9453   */\n      dup2\n        /* \"#utility.yul\":9438:9442   */\n      dup2\n        /* \"#utility.yul\":9434:9454   */\n      sub\n        /* \"#utility.yul\":9430:9431   */\n      0x00\n        /* \"#utility.yul\":9419:9428   */\n      dup4\n        /* \"#utility.yul\":9415:9432   */\n      add\n        /* \"#utility.yul\":9408:9455   */\n      mstore\n        /* \"#utility.yul\":9472:9603   */\n      tag_256\n        /* \"#utility.yul\":9598:9602   */\n      dup2\n        /* \"#utility.yul\":9472:9603   */\n      tag_126\n      jump\t// in\n    tag_256:\n        /* \"#utility.yul\":9464:9603   */\n      swap1\n      pop\n        /* \"#utility.yul\":9191:9610   */\n      swap2\n      swap1\n      pop\n      jump\t// out\n        /* \"#utility.yul\":9616:9798   */\n    tag_127:\n        /* \"#utility.yul\":9756:9790   */\n      0x4f776e657220646f65736e2774206861766520656e6f75676820746f6b656e73\n        /* \"#utility.yul\":9752:9753   */\n      0x00\n        /* \"#utility.yul\":9744:9750   */\n      dup3\n        /* \"#utility.yul\":9740:9754   */\n      add\n        /* \"#utility.yul\":9733:9791   */\n      mstore\n        /* \"#utility.yul\":9616:9798   */\n      pop\n      jump\t// out\n        /* \"#utility.yul\":9804:10170   */\n    tag_128:\n        /* \"#utility.yul\":9946:9949   */\n      0x00\n        /* \"#utility.yul\":9967:10034   */\n      tag_259\n        /* \"#utility.yul\":10031:10033   */\n      0x20\n        /* \"#utility.yul\":10026:10029   */\n      dup4\n        /* \"#utility.yul\":9967:10034   */\n      tag_110\n      jump\t// in\n    tag_259:\n        /* \"#utility.yul\":9960:10034   */\n      swap2\n      pop\n        /* \"#utility.yul\":10043:10136   */\n      tag_260\n        /* \"#utility.yul\":10132:10135   */\n      dup3\n        /* \"#utility.yul\":10043:10136   */\n      tag_127\n      jump\t// in\n    tag_260:\n        /* \"#utility.yul\":10161:10163   */\n      0x20\n        /* \"#utility.yul\":10156:10159   */\n      dup3\n        /* \"#utility.yul\":10152:10164   */\n      add\n        /* \"#utility.yul\":10145:10164   */\n      swap1\n      pop\n        /* \"#utility.yul\":9804:10170   */\n      swap2\n      swap1\n      pop\n      jump\t// out\n        /* \"#utility.yul\":10176:10595   */\n    tag_89:\n        /* \"#utility.yul\":10342:10346   */\n      0x00\n        /* \"#utility.yul\":10380:10382   */\n      0x20\n        /* \"#utility.yul\":10369:10378   */\n      dup3\n        /* \"#utility.yul\":10365:10383   */\n      add\n        /* \"#utility.yul\":10357:10383   */\n      swap1\n      pop\n        /* \"#utility.yul\":10429:10438   */\n      dup2\n        /* \"#utility.yul\":10423:10427   */\n      dup2\n        /* \"#utility.yul\":10419:10439   */\n      sub\n        /* \"#utility.yul\":10415:10416   */\n      0x00\n        /* \"#utility.yul\":10404:10413   */\n      dup4\n        /* \"#utility.yul\":10400:10417   */\n      add\n        /* \"#utility.yul\":10393:10440   */\n      mstore\n        /* \"#utility.yul\":10457:10588   */\n      tag_262\n        /* \"#utility.yul\":10583:10587   */\n      dup2\n        /* \"#utility.yul\":10457:10588   */\n      tag_128\n      jump\t// in\n    tag_262:\n        /* \"#utility.yul\":10449:10588   */\n      swap1\n      pop\n        /* \"#utility.yul\":10176:10595   */\n      swap2\n      swap1\n      pop\n      jump\t// out\n        /* \"#utility.yul\":10601:10742   */\n    tag_129:\n        /* \"#utility.yul\":10650:10654   */\n      0x00\n        /* \"#utility.yul\":10673:10676   */\n      dup2\n        /* \"#utility.yul\":10665:10676   */\n      swap1\n      pop\n        /* \"#utility.yul\":10696:10699   */\n      dup2\n        /* \"#utility.yul\":10693:10694   */\n      0x00\n        /* \"#utility.yul\":10686:10700   */\n      mstore\n        /* \"#utility.yul\":10730:10734   */\n      0x20\n        /* \"#utility.yul\":10727:10728   */\n      0x00\n        /* \"#utility.yul\":10717:10735   */\n      keccak256\n        /* \"#utility.yul\":10709:10735   */\n      swap1\n      pop\n        /* \"#utility.yul\":10601:10742   */\n      swap2\n      swap1\n      pop\n      jump\t// out\n        /* \"#utility.yul\":10748:10841   */\n    tag_130:\n        /* \"#utility.yul\":10785:10791   */\n      0x00\n        /* \"#utility.yul\":10832:10834   */\n      0x20\n        /* \"#utility.yul\":10827:10829   */\n      0x1f\n        /* \"#utility.yul\":10820:10825   */\n      dup4\n        /* \"#utility.yul\":10816:10830   */\n      add\n        /* \"#utility.yul\":10812:10835   */\n      div\n        /* \"#utility.yul\":10802:10835   */\n      swap1\n      pop\n        /* \"#utility.yul\":10748:10841   */\n      swap2\n      swap1\n      pop\n      jump\t// out\n        /* \"#utility.yul\":10847:10954   */\n    tag_131:\n        /* \"#utility.yul\":10891:10899   */\n      0x00\n        /* \"#utility.yul\":10941:10946   */\n      dup3\n        /* \"#utility.yul\":10935:10939   */\n      dup3\n        /* \"#utility.yul\":10931:10947   */\n      shl\n        /* \"#utility.yul\":10910:10947   */\n      swap1\n      pop\n        /* \"#utility.yul\":10847:10954   */\n      swap3\n      swap2\n      pop\n      pop\n      jump\t// out\n        /* \"#utility.yul\":10960:11353   */\n    tag_132:\n        /* \"#utility.yul\":11029:11035   */\n      0x00\n        /* \"#utility.yul\":11079:11080   */\n      0x08\n        /* \"#utility.yul\":11067:11077   */\n      dup4\n        /* \"#utility.yul\":11063:11081   */\n      mul\n        /* \"#utility.yul\":11102:11199   */\n      tag_267\n        /* \"#utility.yul\":11132:11198   */\n      0xffffffffffffffffffffffffffffffffffffffffffffffffffffffffffffffff\n        /* \"#utility.yul\":11121:11130   */\n      dup3\n        /* \"#utility.yul\":11102:11199   */\n      tag_131\n      jump\t// in\n    tag_267:\n        /* \"#utility.yul\":11220:11259   */\n      tag_268\n        /* \"#utility.yul\":11250:11258   */\n      dup7\n        /* \"#utility.yul\":11239:11248   */\n      dup4\n        /* \"#utility.yul\":11220:11259   */\n      tag_131\n      jump\t// in\n    tag_268:\n        /* \"#utility.yul\":11208:11259   */\n      swap6\n      pop\n        /* \"#utility.yul\":11292:11296   */\n      dup1\n        /* \"#utility.yul\":11288:11297   */\n      not\n        /* \"#utility.yul\":11281:11286   */\n      dup5\n        /* \"#utility.yul\":11277:11298   */\n      and\n        /* \"#utility.yul\":11268:11298   */\n      swap4\n      pop\n        /* \"#utility.yul\":11341:11345   */\n      dup1\n        /* \"#utility.yul\":11331:11339   */\n      dup7\n        /* \"#utility.yul\":11327:11346   */\n      and\n        /* \"#utility.yul\":11320:11325   */\n      dup5\n        /* \"#utility.yul\":11317:11347   */\n      or\n        /* \"#utility.yul\":11307:11347   */\n      swap3\n      pop\n        /* \"#utility.yul\":11036:11353   */\n      pop\n      pop\n        /* \"#utility.yul\":10960:11353   */\n      swap4\n      swap3\n      pop\n      pop\n      pop\n      jump\t// out\n        /* \"#utility.yul\":11359:11419   */\n    tag_133:\n        /* \"#utility.yul\":11387:11390   */\n      0x00\n        /* \"#utility.yul\":11408:11413   */\n      dup2\n        /* \"#utility.yul\":11401:11413   */\n      swap1\n      pop\n        /* \"#utility.yul\":11359:11419   */\n      swap2\n      swap1\n      pop\n      jump\t// out\n        /* \"#utility.yul\":11425:11567   */\n    tag_134:\n        /* \"#utility.yul\":11475:11484   */\n      0x00\n        /* \"#utility.yul\":11508:11561   */\n      tag_271\n        /* \"#utility.yul\":11526:11560   */\n      tag_272\n        /* \"#utility.yul\":11535:11559   */\n      tag_273\n        /* \"#utility.yul\":11553:11558   */\n      dup5\n        /* \"#utility.yul\":11535:11559   */\n      tag_104\n      jump\t// in\n    tag_273:\n        /* \"#utility.yul\":11526:11560   */\n      tag_133\n      jump\t// in\n    tag_272:\n        /* \"#utility.yul\":11508:11561   */\n      tag_104\n      jump\t// in\n    tag_271:\n        /* \"#utility.yul\":11495:11561   */\n      swap1\n      pop\n        /* \"#utility.yul\":11425:11567   */\n      swap2\n      swap1\n      pop\n      jump\t// out\n        /* \"#utility.yul\":11573:11648   */\n    tag_135:\n        /* \"#utility.yul\":11616:11619   */\n      0x00\n        /* \"#utility.yul\":11637:11642   */\n      dup2\n        /* \"#utility.yul\":11630:11642   */\n      swap1\n      pop\n        /* \"#utility.yul\":11573:11648   */\n      swap2\n      swap1\n      pop\n      jump\t// out\n        /* \"#utility.yul\":11654:11923   */\n    tag_136:\n        /* \"#utility.yul\":11764:11803   */\n      tag_276\n        /* \"#utility.yul\":11795:11802   */\n      dup4\n        /* \"#utility.yul\":11764:11803   */\n      tag_134\n      jump\t// in\n    tag_276:\n        /* \"#utility.yul\":11825:11916   */\n      tag_277\n        /* \"#utility.yul\":11874:11915   */\n      tag_278\n        /* \"#utility.yul\":11898:11914   */\n      dup3\n        /* \"#utility.yul\":11874:11915   */\n      tag_135\n      jump\t// in\n    tag_278:\n        /* \"#utility.yul\":11866:11872   */\n      dup5\n        /* \"#utility.yul\":11859:11863   */\n      dup5\n        /* \"#utility.yul\":11853:11864   */\n      sload\n        /* \"#utility.yul\":11825:11916   */\n      tag_132\n      jump\t// in\n    tag_277:\n        /* \"#utility.yul\":11819:11823   */\n      dup3\n        /* \"#utility.yul\":11812:11917   */\n      sstore\n        /* \"#utility.yul\":11730:11923   */\n      pop\n        /* \"#utility.yul\":11654:11923   */\n      pop\n      pop\n      pop\n      jump\t// out\n        /* \"#utility.yul\":11929:12002   */\n    tag_137:\n        /* \"#utility.yul\":11974:11977   */\n      0x00\n        /* \"#utility.yul\":11929:12002   */\n      swap1\n      jump\t// out\n        /* \"#utility.yul\":12008:12197   */\n    tag_138:\n        /* \"#utility.yul\":12085:12117   */\n      tag_281\n      tag_137\n      jump\t// in\n    tag_281:\n        /* \"#utility.yul\":12126:12191   */\n      tag_282\n        /* \"#utility.yul\":12184:12190   */\n      dup2\n        /* \"#utility.yul\":12176:12182   */\n      dup5\n        /* \"#utility.yul\":12170:12174   */\n      dup5\n        /* \"#utility.yul\":12126:12191   */\n      tag_136\n      jump\t// in\n    tag_282:\n        /* \"#utility.yul\":12061:12197   */\n      pop\n        /* \"#utility.yul\":12008:12197   */\n      pop\n      pop\n      jump\t// out\n        /* \"#utility.yul\":12203:12389   */\n    tag_139:\n        /* \"#utility.yul\":12263:12383   */\n    tag_284:\n        /* \"#utility.yul\":12280:12283   */\n      dup2\n        /* \"#utility.yul\":12273:12278   */\n      dup2\n        /* \"#utility.yul\":12270:12284   */\n      lt\n        /* \"#utility.yul\":12263:12383   */\n      iszero\n      tag_286\n      jumpi\n        /* \"#utility.yul\":12334:12373   */\n      tag_287\n        /* \"#utility.yul\":12371:12372   */\n      0x00\n        /* \"#utility.yul\":12364:12369   */\n      dup3\n        /* \"#utility.yul\":12334:12373   */\n      tag_138\n      jump\t// in\n    tag_287:\n        /* \"#utility.yul\":12307:12308   */\n      0x01\n        /* \"#utility.yul\":12300:12305   */\n      dup2\n        /* \"#utility.yul\":12296:12309   */\n      add\n        /* \"#utility.yul\":12287:12309   */\n      swap1\n      pop\n        /* \"#utility.yul\":12263:12383   */\n      jump(tag_284)\n    tag_286:\n        /* \"#utility.yul\":12203:12389   */\n      pop\n      pop\n      jump\t// out\n        /* \"#utility.yul\":12395:12938   */\n    tag_140:\n        /* \"#utility.yul\":12496:12498   */\n      0x1f\n        /* \"#utility.yul\":12491:12494   */\n      dup3\n        /* \"#utility.yul\":12488:12499   */\n      gt\n        /* \"#utility.yul\":12485:12931   */\n      iszero\n      tag_289\n      jumpi\n        /* \"#utility.yul\":12530:12568   */\n      tag_290\n        /* \"#utility.yul\":12562:12567   */\n      dup2\n        /* \"#utility.yul\":12530:12568   */\n      tag_129\n      jump\t// in\n    tag_290:\n        /* \"#utility.yul\":12614:12643   */\n      tag_291\n        /* \"#utility.yul\":12632:12642   */\n      dup5\n        /* \"#utility.yul\":12614:12643   */\n      tag_130\n      jump\t// in\n    tag_291:\n        /* \"#utility.yul\":12604:12612   */\n      dup2\n        /* \"#utility.yul\":12600:12644   */\n      add\n        /* \"#utility.yul\":12797:12799   */\n      0x20\n        /* \"#utility.yul\":12785:12795   */\n      dup6\n        /* \"#utility.yul\":12782:12800   */\n      lt\n        /* \"#utility.yul\":12779:12828   */\n      iszero\n      tag_292\n      jumpi\n        /* \"#utility.yul\":12818:12826   */\n      dup2\n        /* \"#utility.yul\":12803:12826   */\n      swap1\n      pop\n        /* \"#utility.yul\":12779:12828   */\n    tag_292:\n        /* \"#utility.yul\":12841:12921   */\n      tag_293\n        /* \"#utility.yul\":12897:12919   */\n      tag_294\n        /* \"#utility.yul\":12915:12918   */\n      dup6\n        /* \"#utility.yul\":12897:12919   */\n      tag_130\n      jump\t// in\n    tag_294:\n        /* \"#utility.yul\":12887:12895   */\n      dup4\n        /* \"#utility.yul\":12883:12920   */\n      add\n        /* \"#utility.yul\":12870:12881   */\n      dup3\n        /* \"#utility.yul\":12841:12921   */\n      tag_139\n      jump\t// in\n    tag_293:\n        /* \"#utility.yul\":12500:12931   */\n      pop\n      pop\n        /* \"#utility.yul\":12485:12931   */\n    tag_289:\n        /* \"#utility.yul\":12395:12938   */\n      pop\n      pop\n      pop\n      jump\t// out\n        /* \"#utility.yul\":12944:13061   */\n    tag_141:\n        /* \"#utility.yul\":12998:13006   */\n      0x00\n        /* \"#utility.yul\":13048:13053   */\n      dup3\n        /* \"#utility.yul\":13042:13046   */\n      dup3\n        /* \"#utility.yul\":13038:13054   */\n      shr\n        /* \"#utility.yul\":13017:13054   */\n      swap1\n      pop\n        /* \"#utility.yul\":12944:13061   */\n      swap3\n      swap2\n      pop\n      pop\n      jump\t// out\n        /* \"#utility.yul\":13067:13236   */\n    tag_142:\n        /* \"#utility.yul\":13111:13117   */\n      0x00\n        /* \"#utility.yul\":13144:13195   */\n      tag_297\n        /* \"#utility.yul\":13192:13193   */\n      0x00\n        /* \"#utility.yul\":13188:13194   */\n      not\n        /* \"#utility.yul\":13180:13185   */\n      dup5\n        /* \"#utility.yul\":13177:13178   */\n      0x08\n        /* \"#utility.yul\":13173:13186   */\n      mul\n        /* \"#utility.yul\":13144:13195   */\n      tag_141\n      jump\t// in\n    tag_297:\n        /* \"#utility.yul\":13140:13196   */\n      not\n        /* \"#utility.yul\":13225:13229   */\n      dup1\n        /* \"#utility.yul\":13219:13223   */\n      dup4\n        /* \"#utility.yul\":13215:13230   */\n      and\n        /* \"#utility.yul\":13205:13230   */\n      swap2\n      pop\n        /* \"#utility.yul\":13118:13236   */\n      pop\n        /* \"#utility.yul\":13067:13236   */\n      swap3\n      swap2\n      pop\n      pop\n      jump\t// out\n        /* \"#utility.yul\":13241:13536   */\n    tag_143:\n        /* \"#utility.yul\":13317:13321   */\n      0x00\n        /* \"#utility.yul\":13463:13492   */\n      tag_299\n        /* \"#utility.yul\":13488:13491   */\n      dup4\n        /* \"#utility.yul\":13482:13486   */\n      dup4\n        /* \"#utility.yul\":13463:13492   */\n      tag_142\n      jump\t// in\n    tag_299:\n        /* \"#utility.yul\":13455:13492   */\n      swap2\n      pop\n        /* \"#utility.yul\":13525:13528   */\n      dup3\n        /* \"#utility.yul\":13522:13523   */\n      0x02\n        /* \"#utility.yul\":13518:13529   */\n      mul\n        /* \"#utility.yul\":13512:13516   */\n      dup3\n        /* \"#utility.yul\":13509:13530   */\n      or\n        /* \"#utility.yul\":13501:13530   */\n      swap1\n      pop\n        /* \"#utility.yul\":13241:13536   */\n      swap3\n      swap2\n      pop\n      pop\n      jump\t// out\n        /* \"#utility.yul\":13541:14936   */\n    tag_96:\n        /* \"#utility.yul\":13658:13695   */\n      tag_301\n        /* \"#utility.yul\":13691:13694   */\n      dup3\n        /* \"#utility.yul\":13658:13695   */\n      tag_109\n      jump\t// in\n    tag_301:\n        /* \"#utility.yul\":13760:13778   */\n      0xffffffffffffffff\n        /* \"#utility.yul\":13752:13758   */\n      dup2\n        /* \"#utility.yul\":13749:13779   */\n      gt\n        /* \"#utility.yul\":13746:13802   */\n      iszero\n      tag_302\n      jumpi\n        /* \"#utility.yul\":13782:13800   */\n      tag_303\n      tag_116\n      jump\t// in\n    tag_303:\n        /* \"#utility.yul\":13746:13802   */\n    tag_302:\n        /* \"#utility.yul\":13826:13864   */\n      tag_304\n        /* \"#utility.yul\":13858:13862   */\n      dup3\n        /* \"#utility.yul\":13852:13863   */\n      sload\n        /* \"#utility.yul\":13826:13864   */\n      tag_76\n      jump\t// in\n    tag_304:\n        /* \"#utility.yul\":13911:13978   */\n      tag_305\n        /* \"#utility.yul\":13971:13977   */\n      dup3\n        /* \"#utility.yul\":13963:13969   */\n      dup3\n        /* \"#utility.yul\":13957:13961   */\n      dup6\n        /* \"#utility.yul\":13911:13978   */\n      tag_140\n      jump\t// in\n    tag_305:\n        /* \"#utility.yul\":14005:14006   */\n      0x00\n        /* \"#utility.yul\":14029:14033   */\n      0x20\n        /* \"#utility.yul\":14016:14033   */\n      swap1\n      pop\n        /* \"#utility.yul\":14061:14063   */\n      0x1f\n        /* \"#utility.yul\":14053:14059   */\n      dup4\n        /* \"#utility.yul\":14050:14064   */\n      gt\n        /* \"#utility.yul\":14078:14079   */\n      0x01\n        /* \"#utility.yul\":14073:14691   */\n      dup2\n      eq\n      tag_307\n      jumpi\n        /* \"#utility.yul\":14735:14736   */\n      0x00\n        /* \"#utility.yul\":14752:14758   */\n      dup5\n        /* \"#utility.yul\":14749:14826   */\n      iszero\n      tag_308\n      jumpi\n        /* \"#utility.yul\":14801:14810   */\n      dup3\n        /* \"#utility.yul\":14796:14799   */\n      dup8\n        /* \"#utility.yul\":14792:14811   */\n      add\n        /* \"#utility.yul\":14786:14812   */\n      mload\n        /* \"#utility.yul\":14777:14812   */\n      swap1\n      pop\n        /* \"#utility.yul\":14749:14826   */\n    tag_308:\n        /* \"#utility.yul\":14852:14919   */\n      tag_309\n        /* \"#utility.yul\":14912:14918   */\n      dup6\n        /* \"#utility.yul\":14905:14910   */\n      dup3\n        /* \"#utility.yul\":14852:14919   */\n      tag_143\n      jump\t// in\n    tag_309:\n        /* \"#utility.yul\":14846:14850   */\n      dup7\n        /* \"#utility.yul\":14839:14920   */\n      sstore\n        /* \"#utility.yul\":14708:14930   */\n      pop\n        /* \"#utility.yul\":14043:14930   */\n      jump(tag_306)\n        /* \"#utility.yul\":14073:14691   */\n    tag_307:\n        /* \"#utility.yul\":14125:14129   */\n      0x1f\n        /* \"#utility.yul\":14121:14130   */\n      not\n        /* \"#utility.yul\":14113:14119   */\n      dup5\n        /* \"#utility.yul\":14109:14131   */\n      and\n        /* \"#utility.yul\":14159:14196   */\n      tag_310\n        /* \"#utility.yul\":14191:14195   */\n      dup7\n        /* \"#utility.yul\":14159:14196   */\n      tag_129\n      jump\t// in\n    tag_310:\n        /* \"#utility.yul\":14218:14219   */\n      0x00\n        /* \"#utility.yul\":14232:14440   */\n    tag_311:\n        /* \"#utility.yul\":14246:14253   */\n      dup3\n        /* \"#utility.yul\":14243:14244   */\n      dup2\n        /* \"#utility.yul\":14240:14254   */\n      lt\n        /* \"#utility.yul\":14232:14440   */\n      iszero\n      tag_313\n      jumpi\n        /* \"#utility.yul\":14325:14334   */\n      dup5\n        /* \"#utility.yul\":14320:14323   */\n      dup10\n        /* \"#utility.yul\":14316:14335   */\n      add\n        /* \"#utility.yul\":14310:14336   */\n      mload\n        /* \"#utility.yul\":14302:14308   */\n      dup3\n        /* \"#utility.yul\":14295:14337   */\n      sstore\n        /* \"#utility.yul\":14376:14377   */\n      0x01\n        /* \"#utility.yul\":14368:14374   */\n      dup3\n        /* \"#utility.yul\":14364:14378   */\n      add\n        /* \"#utility.yul\":14354:14378   */\n      swap2\n      pop\n        /* \"#utility.yul\":14423:14425   */\n      0x20\n        /* \"#utility.yul\":14412:14421   */\n      dup6\n        /* \"#utility.yul\":14408:14426   */\n      add\n        /* \"#utility.yul\":14395:14426   */\n      swap5\n      pop\n        /* \"#utility.yul\":14269:14273   */\n      0x20\n        /* \"#utility.yul\":14266:14267   */\n      dup2\n        /* \"#utility.yul\":14262:14274   */\n      add\n        /* \"#utility.yul\":14257:14274   */\n      swap1\n      pop\n        /* \"#utility.yul\":14232:14440   */\n      jump(tag_311)\n    tag_313:\n        /* \"#utility.yul\":14468:14474   */\n      dup7\n        /* \"#utility.yul\":14459:14466   */\n      dup4\n        /* \"#utility.yul\":14456:14475   */\n      lt\n        /* \"#utility.yul\":14453:14632   */\n      iszero\n      tag_314\n      jumpi\n        /* \"#utility.yul\":14526:14535   */\n      dup5\n        /* \"#utility.yul\":14521:14524   */\n      dup10\n        /* \"#utility.yul\":14517:14536   */\n      add\n        /* \"#utility.yul\":14511:14537   */\n      mload\n        /* \"#utility.yul\":14569:14617   */\n      tag_315\n        /* \"#utility.yul\":14611:14615   */\n      0x1f\n        /* \"#utility.yul\":14603:14609   */\n      dup10\n        /* \"#utility.yul\":14599:14616   */\n      and\n        /* \"#utility.yul\":14588:14597   */\n      dup3\n        /* \"#utility.yul\":14569:14617   */\n      tag_142\n      jump\t// in\n    tag_315:\n        /* \"#utility.yul\":14561:14567   */\n      dup4\n        /* \"#utility.yul\":14554:14618   */\n      sstore\n        /* \"#utility.yul\":14476:14632   */\n      pop\n        /* \"#utility.yul\":14453:14632   */\n    tag_314:\n        /* \"#utility.yul\":14678:14679   */\n      0x01\n        /* \"#utility.yul\":14674:14675   */\n      0x02\n        /* \"#utility.yul\":14666:14672   */\n      dup9\n        /* \"#utility.yul\":14662:14676   */\n      mul\n        /* \"#utility.yul\":14658:14680   */\n      add\n        /* \"#utility.yul\":14652:14656   */\n      dup9\n        /* \"#utility.yul\":14645:14681   */\n      sstore\n        /* \"#utility.yul\":14080:14691   */\n      pop\n      pop\n      pop\n        /* \"#utility.yul\":14043:14930   */\n    tag_306:\n      pop\n        /* \"#utility.yul\":13633:14936   */\n      pop\n      pop\n      pop\n        /* \"#utility.yul\":13541:14936   */\n      pop\n      pop\n      jump\t// out\n\n    auxdata: 0xa2646970667358221220a030fcf8c46ddec572e2d1290616c318d2120f12d33db25bb1071ac67d4aacef64736f6c63430008120033\n}\n",
				"bytecode": {
					"linkReferences": {},
					"object": "6080604052674563918244f4000060015534801561001c57600080fd5b50336000806101000a81548173ffffffffffffffffffffffffffffffffffffffff021916908373ffffffffffffffffffffffffffffffffffffffff1602179055506064600560008060009054906101000a900473ffffffffffffffffffffffffffffffffffffffff1673ffffffffffffffffffffffffffffffffffffffff1673ffffffffffffffffffffffffffffffffffffffff168152602001908152602001600020600101819055506110e7806100d56000396000f3fe60806040526004361061009c5760003560e01c8063a176166411610064578063a176166414610176578063a87430ba146101a1578063b0a1c1c4146101df578063b6b55f251461020a578063eee9720614610226578063f2c298be146102635761009c565b8063193f974c146100a1578063419759f5146100ca5780637ff9b596146100f55780638da5cb5b146101205780639d63848a1461014b575b600080fd5b3480156100ad57600080fd5b506100c860048036038101906100c391906108f6565b61028c565b005b3480156100d657600080fd5b506100df61042b565b6040516100ec9190610945565b60405180910390f35b34801561010157600080fd5b5061010a610431565b6040516101179190610945565b60405180910390f35b34801561012c57600080fd5b50610135610437565b604051610142919061096f565b60405180910390f35b34801561015757600080fd5b5061016061045b565b60405161016d9190610945565b60405180910390f35b34801561018257600080fd5b5061018b6104a5565b604051610198919061096f565b60405180910390f35b3480156101ad57600080fd5b506101c860048036038101906101c3919061098a565b6104cb565b6040516101d6929190610a47565b60405180910390f35b3480156101eb57600080fd5b506101f4610577565b6040516102019190610945565b60405180910390f35b610224600480360381019061021f9190610a77565b61057d565b005b34801561023257600080fd5b5061024d60048036038101906102489190610a77565b6107e5565b60405161025a9190610945565b60405180910390f35b34801561026f57600080fd5b5061028a60048036038101906102859190610bd9565b6107fb565b005b60008054906101000a900473ffffffffffffffffffffffffffffffffffffffff1673ffffffffffffffffffffffffffffffffffffffff163373ffffffffffffffffffffffffffffffffffffffff16146102e457600080fd5b80600560008060009054906101000a900473ffffffffffffffffffffffffffffffffffffffff1673ffffffffffffffffffffffffffffffffffffffff1673ffffffffffffffffffffffffffffffffffffffff16815260200190815260200160002060010154101561035457600080fd5b80600560008060009054906101000a900473ffffffffffffffffffffffffffffffffffffffff1673ffffffffffffffffffffffffffffffffffffffff1673ffffffffffffffffffffffffffffffffffffffff16815260200190815260200160002060010160008282546103c79190610c51565b9250508190555080600560008473ffffffffffffffffffffffffffffffffffffffff1673ffffffffffffffffffffffffffffffffffffffff16815260200190815260200160002060010160008282546104209190610c85565b925050819055505050565b60035481565b60015481565b60008054906101000a900473ffffffffffffffffffffffffffffffffffffffff1681565b6000600560003373ffffffffffffffffffffffffffffffffffffffff1673ffffffffffffffffffffffffffffffffffffffff16815260200190815260200160002060010154905090565b600260009054906101000a900473ffffffffffffffffffffffffffffffffffffffff1681565b60056020528060005260406000206000915090508060000180546104ee90610ce8565b80601f016020809104026020016040519081016040528092919081815260200182805461051a90610ce8565b80156105675780601f1061053c57610100808354040283529160200191610567565b820191906000526020600020905b81548152906001019060200180831161054a57829003601f168201915b5050505050908060010154905082565b60045481565b60006001548261058d9190610d19565b90508034146105d1576040517f08c379a00000000000000000000000000000000000000000000000000000000081526004016105c890610da7565b60405180910390fd5b81600560008060009054906101000a900473ffffffffffffffffffffffffffffffffffffffff1673ffffffffffffffffffffffffffffffffffffffff1673ffffffffffffffffffffffffffffffffffffffff168152602001908152602001600020600101541015610677576040517f08c379a000000000000000000000000000000000000000000000000000000000815260040161066e90610e13565b60405180910390fd5b81600560008060009054906101000a900473ffffffffffffffffffffffffffffffffffffffff1673ffffffffffffffffffffffffffffffffffffffff1673ffffffffffffffffffffffffffffffffffffffff168152602001908152602001600020600101546106e69190610c51565b600560008060009054906101000a900473ffffffffffffffffffffffffffffffffffffffff1673ffffffffffffffffffffffffffffffffffffffff1673ffffffffffffffffffffffffffffffffffffffff1681526020019081526020016000206001018190555081600560003373ffffffffffffffffffffffffffffffffffffffff1673ffffffffffffffffffffffffffffffffffffffff1681526020019081526020016000206001015461079b9190610c85565b600560003373ffffffffffffffffffffffffffffffffffffffff1673ffffffffffffffffffffffffffffffffffffffff168152602001908152602001600020600101819055505050565b60006002826107f49190610d19565b9050919050565b80600560003373ffffffffffffffffffffffffffffffffffffffff1673ffffffffffffffffffffffffffffffffffffffff168152602001908152602001600020600001908161084a9190610fdf565b5050565b6000604051905090565b600080fd5b600080fd5b600073ffffffffffffffffffffffffffffffffffffffff82169050919050565b600061088d82610862565b9050919050565b61089d81610882565b81146108a857600080fd5b50565b6000813590506108ba81610894565b92915050565b6000819050919050565b6108d3816108c0565b81146108de57600080fd5b50565b6000813590506108f0816108ca565b92915050565b6000806040838503121561090d5761090c610858565b5b600061091b858286016108ab565b925050602061092c858286016108e1565b9150509250929050565b61093f816108c0565b82525050565b600060208201905061095a6000830184610936565b92915050565b61096981610882565b82525050565b60006020820190506109846000830184610960565b92915050565b6000602082840312156109a05761099f610858565b5b60006109ae848285016108ab565b91505092915050565b600081519050919050565b600082825260208201905092915050565b60005b838110156109f15780820151818401526020810190506109d6565b60008484015250505050565b6000601f19601f8301169050919050565b6000610a19826109b7565b610a2381856109c2565b9350610a338185602086016109d3565b610a3c816109fd565b840191505092915050565b60006040820190508181036000830152610a618185610a0e565b9050610a706020830184610936565b9392505050565b600060208284031215610a8d57610a8c610858565b5b6000610a9b848285016108e1565b91505092915050565b600080fd5b600080fd5b7f4e487b7100000000000000000000000000000000000000000000000000000000600052604160045260246000fd5b610ae6826109fd565b810181811067ffffffffffffffff82111715610b0557610b04610aae565b5b80604052505050565b6000610b1861084e565b9050610b248282610add565b919050565b600067ffffffffffffffff821115610b4457610b43610aae565b5b610b4d826109fd565b9050602081019050919050565b82818337600083830152505050565b6000610b7c610b7784610b29565b610b0e565b905082815260208101848484011115610b9857610b97610aa9565b5b610ba3848285610b5a565b509392505050565b600082601f830112610bc057610bbf610aa4565b5b8135610bd0848260208601610b69565b91505092915050565b600060208284031215610bef57610bee610858565b5b600082013567ffffffffffffffff811115610c0d57610c0c61085d565b5b610c1984828501610bab565b91505092915050565b7f4e487b7100000000000000000000000000000000000000000000000000000000600052601160045260246000fd5b6000610c5c826108c0565b9150610c67836108c0565b9250828203905081811115610c7f57610c7e610c22565b5b92915050565b6000610c90826108c0565b9150610c9b836108c0565b9250828201905080821115610cb357610cb2610c22565b5b92915050565b7f4e487b7100000000000000000000000000000000000000000000000000000000600052602260045260246000fd5b60006002820490506001821680610d0057607f821691505b602082108103610d1357610d12610cb9565b5b50919050565b6000610d24826108c0565b9150610d2f836108c0565b9250828202610d3d816108c0565b91508282048414831517610d5457610d53610c22565b5b5092915050565b7f496e73756666696369656e742045746865722073656e74000000000000000000600082015250565b6000610d916017836109c2565b9150610d9c82610d5b565b602082019050919050565b60006020820190508181036000830152610dc081610d84565b9050919050565b7f4f776e657220646f65736e2774206861766520656e6f75676820746f6b656e73600082015250565b6000610dfd6020836109c2565b9150610e0882610dc7565b602082019050919050565b60006020820190508181036000830152610e2c81610df0565b9050919050565b60008190508160005260206000209050919050565b60006020601f8301049050919050565b600082821b905092915050565b600060088302610e957fffffffffffffffffffffffffffffffffffffffffffffffffffffffffffffffff82610e58565b610e9f8683610e58565b95508019841693508086168417925050509392505050565b6000819050919050565b6000610edc610ed7610ed2846108c0565b610eb7565b6108c0565b9050919050565b6000819050919050565b610ef683610ec1565b610f0a610f0282610ee3565b848454610e65565b825550505050565b600090565b610f1f610f12565b610f2a818484610eed565b505050565b5b81811015610f4e57610f43600082610f17565b600181019050610f30565b5050565b601f821115610f9357610f6481610e33565b610f6d84610e48565b81016020851015610f7c578190505b610f90610f8885610e48565b830182610f2f565b50505b505050565b600082821c905092915050565b6000610fb660001984600802610f98565b1980831691505092915050565b6000610fcf8383610fa5565b9150826002028217905092915050565b610fe8826109b7565b67ffffffffffffffff81111561100157611000610aae565b5b61100b8254610ce8565b611016828285610f52565b600060209050601f8311600181146110495760008415611037578287015190505b6110418582610fc3565b8655506110a9565b601f19841661105786610e33565b60005b8281101561107f5784890151825560018201915060208501945060208101905061105a565b8683101561109c5784890151611098601f891682610fa5565b8355505b6001600288020188555050505b50505050505056fea2646970667358221220a030fcf8c46ddec572e2d1290616c318d2120f12d33db25bb1071ac67d4aacef64736f6c63430008120033",
					"opcodes": "PUSH1 0x80 PUSH1 0x40 MSTORE PUSH8 0x4563918244F40000 PUSH1 0x1 SSTORE CALLVALUE DUP1 ISZERO PUSH2 0x1C JUMPI PUSH1 0x0 DUP1 REVERT JUMPDEST POP CALLER PUSH1 0x0 DUP1 PUSH2 0x100 EXP DUP2 SLOAD DUP2 PUSH20 0xFFFFFFFFFFFFFFFFFFFFFFFFFFFFFFFFFFFFFFFF MUL NOT AND SWAP1 DUP4 PUSH20 0xFFFFFFFFFFFFFFFFFFFFFFFFFFFFFFFFFFFFFFFF AND MUL OR SWAP1 SSTORE POP PUSH1 0x64 PUSH1 0x5 PUSH1 0x0 DUP1 PUSH1 0x0 SWAP1 SLOAD SWAP1 PUSH2 0x100 EXP SWAP1 DIV PUSH20 0xFFFFFFFFFFFFFFFFFFFFFFFFFFFFFFFFFFFFFFFF AND PUSH20 0xFFFFFFFFFFFFFFFFFFFFFFFFFFFFFFFFFFFFFFFF AND PUSH20 0xFFFFFFFFFFFFFFFFFFFFFFFFFFFFFFFFFFFFFFFF AND DUP2 MSTORE PUSH1 0x20 ADD SWAP1 DUP2 MSTORE PUSH1 0x20 ADD PUSH1 0x0 KECCAK256 PUSH1 0x1 ADD DUP2 SWAP1 SSTORE POP PUSH2 0x10E7 DUP1 PUSH2 0xD5 PUSH1 0x0 CODECOPY PUSH1 0x0 RETURN INVALID PUSH1 0x80 PUSH1 0x40 MSTORE PUSH1 0x4 CALLDATASIZE LT PUSH2 0x9C JUMPI PUSH1 0x0 CALLDATALOAD PUSH1 0xE0 SHR DUP1 PUSH4 0xA1761664 GT PUSH2 0x64 JUMPI DUP1 PUSH4 0xA1761664 EQ PUSH2 0x176 JUMPI DUP1 PUSH4 0xA87430BA EQ PUSH2 0x1A1 JUMPI DUP1 PUSH4 0xB0A1C1C4 EQ PUSH2 0x1DF JUMPI DUP1 PUSH4 0xB6B55F25 EQ PUSH2 0x20A JUMPI DUP1 PUSH4 0xEEE97206 EQ PUSH2 0x226 JUMPI DUP1 PUSH4 0xF2C298BE EQ PUSH2 0x263 JUMPI PUSH2 0x9C JUMP JUMPDEST DUP1 PUSH4 0x193F974C EQ PUSH2 0xA1 JUMPI DUP1 PUSH4 0x419759F5 EQ PUSH2 0xCA JUMPI DUP1 PUSH4 0x7FF9B596 EQ PUSH2 0xF5 JUMPI DUP1 PUSH4 0x8DA5CB5B EQ PUSH2 0x120 JUMPI DUP1 PUSH4 0x9D63848A EQ PUSH2 0x14B JUMPI JUMPDEST PUSH1 0x0 DUP1 REVERT JUMPDEST CALLVALUE DUP1 ISZERO PUSH2 0xAD JUMPI PUSH1 0x0 DUP1 REVERT JUMPDEST POP PUSH2 0xC8 PUSH1 0x4 DUP1 CALLDATASIZE SUB DUP2 ADD SWAP1 PUSH2 0xC3 SWAP2 SWAP1 PUSH2 0x8F6 JUMP JUMPDEST PUSH2 0x28C JUMP JUMPDEST STOP JUMPDEST CALLVALUE DUP1 ISZERO PUSH2 0xD6 JUMPI PUSH1 0x0 DUP1 REVERT JUMPDEST POP PUSH2 0xDF PUSH2 0x42B JUMP JUMPDEST PUSH1 0x40 MLOAD PUSH2 0xEC SWAP2 SWAP1 PUSH2 0x945 JUMP JUMPDEST PUSH1 0x40 MLOAD DUP1 SWAP2 SUB SWAP1 RETURN JUMPDEST CALLVALUE DUP1 ISZERO PUSH2 0x101 JUMPI PUSH1 0x0 DUP1 REVERT JUMPDEST POP PUSH2 0x10A PUSH2 0x431 JUMP JUMPDEST PUSH1 0x40 MLOAD PUSH2 0x117 SWAP2 SWAP1 PUSH2 0x945 JUMP JUMPDEST PUSH1 0x40 MLOAD DUP1 SWAP2 SUB SWAP1 RETURN JUMPDEST CALLVALUE DUP1 ISZERO PUSH2 0x12C JUMPI PUSH1 0x0 DUP1 REVERT JUMPDEST POP PUSH2 0x135 PUSH2 0x437 JUMP JUMPDEST PUSH1 0x40 MLOAD PUSH2 0x142 SWAP2 SWAP1 PUSH2 0x96F JUMP JUMPDEST PUSH1 0x40 MLOAD DUP1 SWAP2 SUB SWAP1 RETURN JUMPDEST CALLVALUE DUP1 ISZERO PUSH2 0x157 JUMPI PUSH1 0x0 DUP1 REVERT JUMPDEST POP PUSH2 0x160 PUSH2 0x45B JUMP JUMPDEST PUSH1 0x40 MLOAD PUSH2 0x16D SWAP2 SWAP1 PUSH2 0x945 JUMP JUMPDEST PUSH1 0x40 MLOAD DUP1 SWAP2 SUB SWAP1 RETURN JUMPDEST CALLVALUE DUP1 ISZERO PUSH2 0x182 JUMPI PUSH1 0x0 DUP1 REVERT JUMPDEST POP PUSH2 0x18B PUSH2 0x4A5 JUMP JUMPDEST PUSH1 0x40 MLOAD PUSH2 0x198 SWAP2 SWAP1 PUSH2 0x96F JUMP JUMPDEST PUSH1 0x40 MLOAD DUP1 SWAP2 SUB SWAP1 RETURN JUMPDEST CALLVALUE DUP1 ISZERO PUSH2 0x1AD JUMPI PUSH1 0x0 DUP1 REVERT JUMPDEST POP PUSH2 0x1C8 PUSH1 0x4 DUP1 CALLDATASIZE SUB DUP2 ADD SWAP1 PUSH2 0x1C3 SWAP2 SWAP1 PUSH2 0x98A JUMP JUMPDEST PUSH2 0x4CB JUMP JUMPDEST PUSH1 0x40 MLOAD PUSH2 0x1D6 SWAP3 SWAP2 SWAP1 PUSH2 0xA47 JUMP JUMPDEST PUSH1 0x40 MLOAD DUP1 SWAP2 SUB SWAP1 RETURN JUMPDEST CALLVALUE DUP1 ISZERO PUSH2 0x1EB JUMPI PUSH1 0x0 DUP1 REVERT JUMPDEST POP PUSH2 0x1F4 PUSH2 0x577 JUMP JUMPDEST PUSH1 0x40 MLOAD PUSH2 0x201 SWAP2 SWAP1 PUSH2 0x945 JUMP JUMPDEST PUSH1 0x40 MLOAD DUP1 SWAP2 SUB SWAP1 RETURN JUMPDEST PUSH2 0x224 PUSH1 0x4 DUP1 CALLDATASIZE SUB DUP2 ADD SWAP1 PUSH2 0x21F SWAP2 SWAP1 PUSH2 0xA77 JUMP JUMPDEST PUSH2 0x57D JUMP JUMPDEST STOP JUMPDEST CALLVALUE DUP1 ISZERO PUSH2 0x232 JUMPI PUSH1 0x0 DUP1 REVERT JUMPDEST POP PUSH2 0x24D PUSH1 0x4 DUP1 CALLDATASIZE SUB DUP2 ADD SWAP1 PUSH2 0x248 SWAP2 SWAP1 PUSH2 0xA77 JUMP JUMPDEST PUSH2 0x7E5 JUMP JUMPDEST PUSH1 0x40 MLOAD PUSH2 0x25A SWAP2 SWAP1 PUSH2 0x945 JUMP JUMPDEST PUSH1 0x40 MLOAD DUP1 SWAP2 SUB SWAP1 RETURN JUMPDEST CALLVALUE DUP1 ISZERO PUSH2 0x26F JUMPI PUSH1 0x0 DUP1 REVERT JUMPDEST POP PUSH2 0x28A PUSH1 0x4 DUP1 CALLDATASIZE SUB DUP2 ADD SWAP1 PUSH2 0x285 SWAP2 SWAP1 PUSH2 0xBD9 JUMP JUMPDEST PUSH2 0x7FB JUMP JUMPDEST STOP JUMPDEST PUSH1 0x0 DUP1 SLOAD SWAP1 PUSH2 0x100 EXP SWAP1 DIV PUSH20 0xFFFFFFFFFFFFFFFFFFFFFFFFFFFFFFFFFFFFFFFF AND PUSH20 0xFFFFFFFFFFFFFFFFFFFFFFFFFFFFFFFFFFFFFFFF AND CALLER PUSH20 0xFFFFFFFFFFFFFFFFFFFFFFFFFFFFFFFFFFFFFFFF AND EQ PUSH2 0x2E4 JUMPI PUSH1 0x0 DUP1 REVERT JUMPDEST DUP1 PUSH1 0x5 PUSH1 0x0 DUP1 PUSH1 0x0 SWAP1 SLOAD SWAP1 PUSH2 0x100 EXP SWAP1 DIV PUSH20 0xFFFFFFFFFFFFFFFFFFFFFFFFFFFFFFFFFFFFFFFF AND PUSH20 0xFFFFFFFFFFFFFFFFFFFFFFFFFFFFFFFFFFFFFFFF AND PUSH20 0xFFFFFFFFFFFFFFFFFFFFFFFFFFFFFFFFFFFFFFFF AND DUP2 MSTORE PUSH1 0x20 ADD SWAP1 DUP2 MSTORE PUSH1 0x20 ADD PUSH1 0x0 KECCAK256 PUSH1 0x1 ADD SLOAD LT ISZERO PUSH2 0x354 JUMPI PUSH1 0x0 DUP1 REVERT JUMPDEST DUP1 PUSH1 0x5 PUSH1 0x0 DUP1 PUSH1 0x0 SWAP1 SLOAD SWAP1 PUSH2 0x100 EXP SWAP1 DIV PUSH20 0xFFFFFFFFFFFFFFFFFFFFFFFFFFFFFFFFFFFFFFFF AND PUSH20 0xFFFFFFFFFFFFFFFFFFFFFFFFFFFFFFFFFFFFFFFF AND PUSH20 0xFFFFFFFFFFFFFFFFFFFFFFFFFFFFFFFFFFFFFFFF AND DUP2 MSTORE PUSH1 0x20 ADD SWAP1 DUP2 MSTORE PUSH1 0x20 ADD PUSH1 0x0 KECCAK256 PUSH1 0x1 ADD PUSH1 0x0 DUP3 DUP3 SLOAD PUSH2 0x3C7 SWAP2 SWAP1 PUSH2 0xC51 JUMP JUMPDEST SWAP3 POP POP DUP2 SWAP1 SSTORE POP DUP1 PUSH1 0x5 PUSH1 0x0 DUP5 PUSH20 0xFFFFFFFFFFFFFFFFFFFFFFFFFFFFFFFFFFFFFFFF AND PUSH20 0xFFFFFFFFFFFFFFFFFFFFFFFFFFFFFFFFFFFFFFFF AND DUP2 MSTORE PUSH1 0x20 ADD SWAP1 DUP2 MSTORE PUSH1 0x20 ADD PUSH1 0x0 KECCAK256 PUSH1 0x1 ADD PUSH1 0x0 DUP3 DUP3 SLOAD PUSH2 0x420 SWAP2 SWAP1 PUSH2 0xC85 JUMP JUMPDEST SWAP3 POP POP DUP2 SWAP1 SSTORE POP POP POP JUMP JUMPDEST PUSH1 0x3 SLOAD DUP2 JUMP JUMPDEST PUSH1 0x1 SLOAD DUP2 JUMP JUMPDEST PUSH1 0x0 DUP1 SLOAD SWAP1 PUSH2 0x100 EXP SWAP1 DIV PUSH20 0xFFFFFFFFFFFFFFFFFFFFFFFFFFFFFFFFFFFFFFFF AND DUP2 JUMP JUMPDEST PUSH1 0x0 PUSH1 0x5 PUSH1 0x0 CALLER PUSH20 0xFFFFFFFFFFFFFFFFFFFFFFFFFFFFFFFFFFFFFFFF AND PUSH20 0xFFFFFFFFFFFFFFFFFFFFFFFFFFFFFFFFFFFFFFFF AND DUP2 MSTORE PUSH1 0x20 ADD SWAP1 DUP2 MSTORE PUSH1 0x20 ADD PUSH1 0x0 KECCAK256 PUSH1 0x1 ADD SLOAD SWAP1 POP SWAP1 JUMP JUMPDEST PUSH1 0x2 PUSH1 0x0 SWAP1 SLOAD SWAP1 PUSH2 0x100 EXP SWAP1 DIV PUSH20 0xFFFFFFFFFFFFFFFFFFFFFFFFFFFFFFFFFFFFFFFF AND DUP2 JUMP JUMPDEST PUSH1 0x5 PUSH1 0x20 MSTORE DUP1 PUSH1 0x0 MSTORE PUSH1 0x40 PUSH1 0x0 KECCAK256 PUSH1 0x0 SWAP2 POP SWAP1 POP DUP1 PUSH1 0x0 ADD DUP1 SLOAD PUSH2 0x4EE SWAP1 PUSH2 0xCE8 JUMP JUMPDEST DUP1 PUSH1 0x1F ADD PUSH1 0x20 DUP1 SWAP2 DIV MUL PUSH1 0x20 ADD PUSH1 0x40 MLOAD SWAP1 DUP2 ADD PUSH1 0x40 MSTORE DUP1 SWAP3 SWAP2 SWAP1 DUP2 DUP2 MSTORE PUSH1 0x20 ADD DUP3 DUP1 SLOAD PUSH2 0x51A SWAP1 PUSH2 0xCE8 JUMP JUMPDEST DUP1 ISZERO PUSH2 0x567 JUMPI DUP1 PUSH1 0x1F LT PUSH2 0x53C JUMPI PUSH2 0x100 DUP1 DUP4 SLOAD DIV MUL DUP4 MSTORE SWAP2 PUSH1 0x20 ADD SWAP2 PUSH2 0x567 JUMP JUMPDEST DUP3 ADD SWAP2 SWAP1 PUSH1 0x0 MSTORE PUSH1 0x20 PUSH1 0x0 KECCAK256 SWAP1 JUMPDEST DUP2 SLOAD DUP2 MSTORE SWAP1 PUSH1 0x1 ADD SWAP1 PUSH1 0x20 ADD DUP1 DUP4 GT PUSH2 0x54A JUMPI DUP3 SWAP1 SUB PUSH1 0x1F AND DUP3 ADD SWAP2 JUMPDEST POP POP POP POP POP SWAP1 DUP1 PUSH1 0x1 ADD SLOAD SWAP1 POP DUP3 JUMP JUMPDEST PUSH1 0x4 SLOAD DUP2 JUMP JUMPDEST PUSH1 0x0 PUSH1 0x1 SLOAD DUP3 PUSH2 0x58D SWAP2 SWAP1 PUSH2 0xD19 JUMP JUMPDEST SWAP1 POP DUP1 CALLVALUE EQ PUSH2 0x5D1 JUMPI PUSH1 0x40 MLOAD PUSH32 0x8C379A000000000000000000000000000000000000000000000000000000000 DUP2 MSTORE PUSH1 0x4 ADD PUSH2 0x5C8 SWAP1 PUSH2 0xDA7 JUMP JUMPDEST PUSH1 0x40 MLOAD DUP1 SWAP2 SUB SWAP1 REVERT JUMPDEST DUP2 PUSH1 0x5 PUSH1 0x0 DUP1 PUSH1 0x0 SWAP1 SLOAD SWAP1 PUSH2 0x100 EXP SWAP1 DIV PUSH20 0xFFFFFFFFFFFFFFFFFFFFFFFFFFFFFFFFFFFFFFFF AND PUSH20 0xFFFFFFFFFFFFFFFFFFFFFFFFFFFFFFFFFFFFFFFF AND PUSH20 0xFFFFFFFFFFFFFFFFFFFFFFFFFFFFFFFFFFFFFFFF AND DUP2 MSTORE PUSH1 0x20 ADD SWAP1 DUP2 MSTORE PUSH1 0x20 ADD PUSH1 0x0 KECCAK256 PUSH1 0x1 ADD SLOAD LT ISZERO PUSH2 0x677 JUMPI PUSH1 0x40 MLOAD PUSH32 0x8C379A000000000000000000000000000000000000000000000000000000000 DUP2 MSTORE PUSH1 0x4 ADD PUSH2 0x66E SWAP1 PUSH2 0xE13 JUMP JUMPDEST PUSH1 0x40 MLOAD DUP1 SWAP2 SUB SWAP1 REVERT JUMPDEST DUP2 PUSH1 0x5 PUSH1 0x0 DUP1 PUSH1 0x0 SWAP1 SLOAD SWAP1 PUSH2 0x100 EXP SWAP1 DIV PUSH20 0xFFFFFFFFFFFFFFFFFFFFFFFFFFFFFFFFFFFFFFFF AND PUSH20 0xFFFFFFFFFFFFFFFFFFFFFFFFFFFFFFFFFFFFFFFF AND PUSH20 0xFFFFFFFFFFFFFFFFFFFFFFFFFFFFFFFFFFFFFFFF AND DUP2 MSTORE PUSH1 0x20 ADD SWAP1 DUP2 MSTORE PUSH1 0x20 ADD PUSH1 0x0 KECCAK256 PUSH1 0x1 ADD SLOAD PUSH2 0x6E6 SWAP2 SWAP1 PUSH2 0xC51 JUMP JUMPDEST PUSH1 0x5 PUSH1 0x0 DUP1 PUSH1 0x0 SWAP1 SLOAD SWAP1 PUSH2 0x100 EXP SWAP1 DIV PUSH20 0xFFFFFFFFFFFFFFFFFFFFFFFFFFFFFFFFFFFFFFFF AND PUSH20 0xFFFFFFFFFFFFFFFFFFFFFFFFFFFFFFFFFFFFFFFF AND PUSH20 0xFFFFFFFFFFFFFFFFFFFFFFFFFFFFFFFFFFFFFFFF AND DUP2 MSTORE PUSH1 0x20 ADD SWAP1 DUP2 MSTORE PUSH1 0x20 ADD PUSH1 0x0 KECCAK256 PUSH1 0x1 ADD DUP2 SWAP1 SSTORE POP DUP2 PUSH1 0x5 PUSH1 0x0 CALLER PUSH20 0xFFFFFFFFFFFFFFFFFFFFFFFFFFFFFFFFFFFFFFFF AND PUSH20 0xFFFFFFFFFFFFFFFFFFFFFFFFFFFFFFFFFFFFFFFF AND DUP2 MSTORE PUSH1 0x20 ADD SWAP1 DUP2 MSTORE PUSH1 0x20 ADD PUSH1 0x0 KECCAK256 PUSH1 0x1 ADD SLOAD PUSH2 0x79B SWAP2 SWAP1 PUSH2 0xC85 JUMP JUMPDEST PUSH1 0x5 PUSH1 0x0 CALLER PUSH20 0xFFFFFFFFFFFFFFFFFFFFFFFFFFFFFFFFFFFFFFFF AND PUSH20 0xFFFFFFFFFFFFFFFFFFFFFFFFFFFFFFFFFFFFFFFF AND DUP2 MSTORE PUSH1 0x20 ADD SWAP1 DUP2 MSTORE PUSH1 0x20 ADD PUSH1 0x0 KECCAK256 PUSH1 0x1 ADD DUP2 SWAP1 SSTORE POP POP POP JUMP JUMPDEST PUSH1 0x0 PUSH1 0x2 DUP3 PUSH2 0x7F4 SWAP2 SWAP1 PUSH2 0xD19 JUMP JUMPDEST SWAP1 POP SWAP2 SWAP1 POP JUMP JUMPDEST DUP1 PUSH1 0x5 PUSH1 0x0 CALLER PUSH20 0xFFFFFFFFFFFFFFFFFFFFFFFFFFFFFFFFFFFFFFFF AND PUSH20 0xFFFFFFFFFFFFFFFFFFFFFFFFFFFFFFFFFFFFFFFF AND DUP2 MSTORE PUSH1 0x20 ADD SWAP1 DUP2 MSTORE PUSH1 0x20 ADD PUSH1 0x0 KECCAK256 PUSH1 0x0 ADD SWAP1 DUP2 PUSH2 0x84A SWAP2 SWAP1 PUSH2 0xFDF JUMP JUMPDEST POP POP JUMP JUMPDEST PUSH1 0x0 PUSH1 0x40 MLOAD SWAP1 POP SWAP1 JUMP JUMPDEST PUSH1 0x0 DUP1 REVERT JUMPDEST PUSH1 0x0 DUP1 REVERT JUMPDEST PUSH1 0x0 PUSH20 0xFFFFFFFFFFFFFFFFFFFFFFFFFFFFFFFFFFFFFFFF DUP3 AND SWAP1 POP SWAP2 SWAP1 POP JUMP JUMPDEST PUSH1 0x0 PUSH2 0x88D DUP3 PUSH2 0x862 JUMP JUMPDEST SWAP1 POP SWAP2 SWAP1 POP JUMP JUMPDEST PUSH2 0x89D DUP2 PUSH2 0x882 JUMP JUMPDEST DUP2 EQ PUSH2 0x8A8 JUMPI PUSH1 0x0 DUP1 REVERT JUMPDEST POP JUMP JUMPDEST PUSH1 0x0 DUP2 CALLDATALOAD SWAP1 POP PUSH2 0x8BA DUP2 PUSH2 0x894 JUMP JUMPDEST SWAP3 SWAP2 POP POP JUMP JUMPDEST PUSH1 0x0 DUP2 SWAP1 POP SWAP2 SWAP1 POP JUMP JUMPDEST PUSH2 0x8D3 DUP2 PUSH2 0x8C0 JUMP JUMPDEST DUP2 EQ PUSH2 0x8DE JUMPI PUSH1 0x0 DUP1 REVERT JUMPDEST POP JUMP JUMPDEST PUSH1 0x0 DUP2 CALLDATALOAD SWAP1 POP PUSH2 0x8F0 DUP2 PUSH2 0x8CA JUMP JUMPDEST SWAP3 SWAP2 POP POP JUMP JUMPDEST PUSH1 0x0 DUP1 PUSH1 0x40 DUP4 DUP6 SUB SLT ISZERO PUSH2 0x90D JUMPI PUSH2 0x90C PUSH2 0x858 JUMP JUMPDEST JUMPDEST PUSH1 0x0 PUSH2 0x91B DUP6 DUP3 DUP7 ADD PUSH2 0x8AB JUMP JUMPDEST SWAP3 POP POP PUSH1 0x20 PUSH2 0x92C DUP6 DUP3 DUP7 ADD PUSH2 0x8E1 JUMP JUMPDEST SWAP2 POP POP SWAP3 POP SWAP3 SWAP1 POP JUMP JUMPDEST PUSH2 0x93F DUP2 PUSH2 0x8C0 JUMP JUMPDEST DUP3 MSTORE POP POP JUMP JUMPDEST PUSH1 0x0 PUSH1 0x20 DUP3 ADD SWAP1 POP PUSH2 0x95A PUSH1 0x0 DUP4 ADD DUP5 PUSH2 0x936 JUMP JUMPDEST SWAP3 SWAP2 POP POP JUMP JUMPDEST PUSH2 0x969 DUP2 PUSH2 0x882 JUMP JUMPDEST DUP3 MSTORE POP POP JUMP JUMPDEST PUSH1 0x0 PUSH1 0x20 DUP3 ADD SWAP1 POP PUSH2 0x984 PUSH1 0x0 DUP4 ADD DUP5 PUSH2 0x960 JUMP JUMPDEST SWAP3 SWAP2 POP POP JUMP JUMPDEST PUSH1 0x0 PUSH1 0x20 DUP3 DUP5 SUB SLT ISZERO PUSH2 0x9A0 JUMPI PUSH2 0x99F PUSH2 0x858 JUMP JUMPDEST JUMPDEST PUSH1 0x0 PUSH2 0x9AE DUP5 DUP3 DUP6 ADD PUSH2 0x8AB JUMP JUMPDEST SWAP2 POP POP SWAP3 SWAP2 POP POP JUMP JUMPDEST PUSH1 0x0 DUP2 MLOAD SWAP1 POP SWAP2 SWAP1 POP JUMP JUMPDEST PUSH1 0x0 DUP3 DUP3 MSTORE PUSH1 0x20 DUP3 ADD SWAP1 POP SWAP3 SWAP2 POP POP JUMP JUMPDEST PUSH1 0x0 JUMPDEST DUP4 DUP2 LT ISZERO PUSH2 0x9F1 JUMPI DUP1 DUP3 ADD MLOAD DUP2 DUP5 ADD MSTORE PUSH1 0x20 DUP2 ADD SWAP1 POP PUSH2 0x9D6 JUMP JUMPDEST PUSH1 0x0 DUP5 DUP5 ADD MSTORE POP POP POP POP JUMP JUMPDEST PUSH1 0x0 PUSH1 0x1F NOT PUSH1 0x1F DUP4 ADD AND SWAP1 POP SWAP2 SWAP1 POP JUMP JUMPDEST PUSH1 0x0 PUSH2 0xA19 DUP3 PUSH2 0x9B7 JUMP JUMPDEST PUSH2 0xA23 DUP2 DUP6 PUSH2 0x9C2 JUMP JUMPDEST SWAP4 POP PUSH2 0xA33 DUP2 DUP6 PUSH1 0x20 DUP7 ADD PUSH2 0x9D3 JUMP JUMPDEST PUSH2 0xA3C DUP2 PUSH2 0x9FD JUMP JUMPDEST DUP5 ADD SWAP2 POP POP SWAP3 SWAP2 POP POP JUMP JUMPDEST PUSH1 0x0 PUSH1 0x40 DUP3 ADD SWAP1 POP DUP2 DUP2 SUB PUSH1 0x0 DUP4 ADD MSTORE PUSH2 0xA61 DUP2 DUP6 PUSH2 0xA0E JUMP JUMPDEST SWAP1 POP PUSH2 0xA70 PUSH1 0x20 DUP4 ADD DUP5 PUSH2 0x936 JUMP JUMPDEST SWAP4 SWAP3 POP POP POP JUMP JUMPDEST PUSH1 0x0 PUSH1 0x20 DUP3 DUP5 SUB SLT ISZERO PUSH2 0xA8D JUMPI PUSH2 0xA8C PUSH2 0x858 JUMP JUMPDEST JUMPDEST PUSH1 0x0 PUSH2 0xA9B DUP5 DUP3 DUP6 ADD PUSH2 0x8E1 JUMP JUMPDEST SWAP2 POP POP SWAP3 SWAP2 POP POP JUMP JUMPDEST PUSH1 0x0 DUP1 REVERT JUMPDEST PUSH1 0x0 DUP1 REVERT JUMPDEST PUSH32 0x4E487B7100000000000000000000000000000000000000000000000000000000 PUSH1 0x0 MSTORE PUSH1 0x41 PUSH1 0x4 MSTORE PUSH1 0x24 PUSH1 0x0 REVERT JUMPDEST PUSH2 0xAE6 DUP3 PUSH2 0x9FD JUMP JUMPDEST DUP2 ADD DUP2 DUP2 LT PUSH8 0xFFFFFFFFFFFFFFFF DUP3 GT OR ISZERO PUSH2 0xB05 JUMPI PUSH2 0xB04 PUSH2 0xAAE JUMP JUMPDEST JUMPDEST DUP1 PUSH1 0x40 MSTORE POP POP POP JUMP JUMPDEST PUSH1 0x0 PUSH2 0xB18 PUSH2 0x84E JUMP JUMPDEST SWAP1 POP PUSH2 0xB24 DUP3 DUP3 PUSH2 0xADD JUMP JUMPDEST SWAP2 SWAP1 POP JUMP JUMPDEST PUSH1 0x0 PUSH8 0xFFFFFFFFFFFFFFFF DUP3 GT ISZERO PUSH2 0xB44 JUMPI PUSH2 0xB43 PUSH2 0xAAE JUMP JUMPDEST JUMPDEST PUSH2 0xB4D DUP3 PUSH2 0x9FD JUMP JUMPDEST SWAP1 POP PUSH1 0x20 DUP2 ADD SWAP1 POP SWAP2 SWAP1 POP JUMP JUMPDEST DUP3 DUP2 DUP4 CALLDATACOPY PUSH1 0x0 DUP4 DUP4 ADD MSTORE POP POP POP JUMP JUMPDEST PUSH1 0x0 PUSH2 0xB7C PUSH2 0xB77 DUP5 PUSH2 0xB29 JUMP JUMPDEST PUSH2 0xB0E JUMP JUMPDEST SWAP1 POP DUP3 DUP2 MSTORE PUSH1 0x20 DUP2 ADD DUP5 DUP5 DUP5 ADD GT ISZERO PUSH2 0xB98 JUMPI PUSH2 0xB97 PUSH2 0xAA9 JUMP JUMPDEST JUMPDEST PUSH2 0xBA3 DUP5 DUP3 DUP6 PUSH2 0xB5A JUMP JUMPDEST POP SWAP4 SWAP3 POP POP POP JUMP JUMPDEST PUSH1 0x0 DUP3 PUSH1 0x1F DUP4 ADD SLT PUSH2 0xBC0 JUMPI PUSH2 0xBBF PUSH2 0xAA4 JUMP JUMPDEST JUMPDEST DUP2 CALLDATALOAD PUSH2 0xBD0 DUP5 DUP3 PUSH1 0x20 DUP7 ADD PUSH2 0xB69 JUMP JUMPDEST SWAP2 POP POP SWAP3 SWAP2 POP POP JUMP JUMPDEST PUSH1 0x0 PUSH1 0x20 DUP3 DUP5 SUB SLT ISZERO PUSH2 0xBEF JUMPI PUSH2 0xBEE PUSH2 0x858 JUMP JUMPDEST JUMPDEST PUSH1 0x0 DUP3 ADD CALLDATALOAD PUSH8 0xFFFFFFFFFFFFFFFF DUP2 GT ISZERO PUSH2 0xC0D JUMPI PUSH2 0xC0C PUSH2 0x85D JUMP JUMPDEST JUMPDEST PUSH2 0xC19 DUP5 DUP3 DUP6 ADD PUSH2 0xBAB JUMP JUMPDEST SWAP2 POP POP SWAP3 SWAP2 POP POP JUMP JUMPDEST PUSH32 0x4E487B7100000000000000000000000000000000000000000000000000000000 PUSH1 0x0 MSTORE PUSH1 0x11 PUSH1 0x4 MSTORE PUSH1 0x24 PUSH1 0x0 REVERT JUMPDEST PUSH1 0x0 PUSH2 0xC5C DUP3 PUSH2 0x8C0 JUMP JUMPDEST SWAP2 POP PUSH2 0xC67 DUP4 PUSH2 0x8C0 JUMP JUMPDEST SWAP3 POP DUP3 DUP3 SUB SWAP1 POP DUP2 DUP2 GT ISZERO PUSH2 0xC7F JUMPI PUSH2 0xC7E PUSH2 0xC22 JUMP JUMPDEST JUMPDEST SWAP3 SWAP2 POP POP JUMP JUMPDEST PUSH1 0x0 PUSH2 0xC90 DUP3 PUSH2 0x8C0 JUMP JUMPDEST SWAP2 POP PUSH2 0xC9B DUP4 PUSH2 0x8C0 JUMP JUMPDEST SWAP3 POP DUP3 DUP3 ADD SWAP1 POP DUP1 DUP3 GT ISZERO PUSH2 0xCB3 JUMPI PUSH2 0xCB2 PUSH2 0xC22 JUMP JUMPDEST JUMPDEST SWAP3 SWAP2 POP POP JUMP JUMPDEST PUSH32 0x4E487B7100000000000000000000000000000000000000000000000000000000 PUSH1 0x0 MSTORE PUSH1 0x22 PUSH1 0x4 MSTORE PUSH1 0x24 PUSH1 0x0 REVERT JUMPDEST PUSH1 0x0 PUSH1 0x2 DUP3 DIV SWAP1 POP PUSH1 0x1 DUP3 AND DUP1 PUSH2 0xD00 JUMPI PUSH1 0x7F DUP3 AND SWAP2 POP JUMPDEST PUSH1 0x20 DUP3 LT DUP2 SUB PUSH2 0xD13 JUMPI PUSH2 0xD12 PUSH2 0xCB9 JUMP JUMPDEST JUMPDEST POP SWAP2 SWAP1 POP JUMP JUMPDEST PUSH1 0x0 PUSH2 0xD24 DUP3 PUSH2 0x8C0 JUMP JUMPDEST SWAP2 POP PUSH2 0xD2F DUP4 PUSH2 0x8C0 JUMP JUMPDEST SWAP3 POP DUP3 DUP3 MUL PUSH2 0xD3D DUP2 PUSH2 0x8C0 JUMP JUMPDEST SWAP2 POP DUP3 DUP3 DIV DUP5 EQ DUP4 ISZERO OR PUSH2 0xD54 JUMPI PUSH2 0xD53 PUSH2 0xC22 JUMP JUMPDEST JUMPDEST POP SWAP3 SWAP2 POP POP JUMP JUMPDEST PUSH32 0x496E73756666696369656E742045746865722073656E74000000000000000000 PUSH1 0x0 DUP3 ADD MSTORE POP JUMP JUMPDEST PUSH1 0x0 PUSH2 0xD91 PUSH1 0x17 DUP4 PUSH2 0x9C2 JUMP JUMPDEST SWAP2 POP PUSH2 0xD9C DUP3 PUSH2 0xD5B JUMP JUMPDEST PUSH1 0x20 DUP3 ADD SWAP1 POP SWAP2 SWAP1 POP JUMP JUMPDEST PUSH1 0x0 PUSH1 0x20 DUP3 ADD SWAP1 POP DUP2 DUP2 SUB PUSH1 0x0 DUP4 ADD MSTORE PUSH2 0xDC0 DUP2 PUSH2 0xD84 JUMP JUMPDEST SWAP1 POP SWAP2 SWAP1 POP JUMP JUMPDEST PUSH32 0x4F776E657220646F65736E2774206861766520656E6F75676820746F6B656E73 PUSH1 0x0 DUP3 ADD MSTORE POP JUMP JUMPDEST PUSH1 0x0 PUSH2 0xDFD PUSH1 0x20 DUP4 PUSH2 0x9C2 JUMP JUMPDEST SWAP2 POP PUSH2 0xE08 DUP3 PUSH2 0xDC7 JUMP JUMPDEST PUSH1 0x20 DUP3 ADD SWAP1 POP SWAP2 SWAP1 POP JUMP JUMPDEST PUSH1 0x0 PUSH1 0x20 DUP3 ADD SWAP1 POP DUP2 DUP2 SUB PUSH1 0x0 DUP4 ADD MSTORE PUSH2 0xE2C DUP2 PUSH2 0xDF0 JUMP JUMPDEST SWAP1 POP SWAP2 SWAP1 POP JUMP JUMPDEST PUSH1 0x0 DUP2 SWAP1 POP DUP2 PUSH1 0x0 MSTORE PUSH1 0x20 PUSH1 0x0 KECCAK256 SWAP1 POP SWAP2 SWAP1 POP JUMP JUMPDEST PUSH1 0x0 PUSH1 0x20 PUSH1 0x1F DUP4 ADD DIV SWAP1 POP SWAP2 SWAP1 POP JUMP JUMPDEST PUSH1 0x0 DUP3 DUP3 SHL SWAP1 POP SWAP3 SWAP2 POP POP JUMP JUMPDEST PUSH1 0x0 PUSH1 0x8 DUP4 MUL PUSH2 0xE95 PUSH32 0xFFFFFFFFFFFFFFFFFFFFFFFFFFFFFFFFFFFFFFFFFFFFFFFFFFFFFFFFFFFFFFFF DUP3 PUSH2 0xE58 JUMP JUMPDEST PUSH2 0xE9F DUP7 DUP4 PUSH2 0xE58 JUMP JUMPDEST SWAP6 POP DUP1 NOT DUP5 AND SWAP4 POP DUP1 DUP7 AND DUP5 OR SWAP3 POP POP POP SWAP4 SWAP3 POP POP POP JUMP JUMPDEST PUSH1 0x0 DUP2 SWAP1 POP SWAP2 SWAP1 POP JUMP JUMPDEST PUSH1 0x0 PUSH2 0xEDC PUSH2 0xED7 PUSH2 0xED2 DUP5 PUSH2 0x8C0 JUMP JUMPDEST PUSH2 0xEB7 JUMP JUMPDEST PUSH2 0x8C0 JUMP JUMPDEST SWAP1 POP SWAP2 SWAP1 POP JUMP JUMPDEST PUSH1 0x0 DUP2 SWAP1 POP SWAP2 SWAP1 POP JUMP JUMPDEST PUSH2 0xEF6 DUP4 PUSH2 0xEC1 JUMP JUMPDEST PUSH2 0xF0A PUSH2 0xF02 DUP3 PUSH2 0xEE3 JUMP JUMPDEST DUP5 DUP5 SLOAD PUSH2 0xE65 JUMP JUMPDEST DUP3 SSTORE POP POP POP POP JUMP JUMPDEST PUSH1 0x0 SWAP1 JUMP JUMPDEST PUSH2 0xF1F PUSH2 0xF12 JUMP JUMPDEST PUSH2 0xF2A DUP2 DUP5 DUP5 PUSH2 0xEED JUMP JUMPDEST POP POP POP JUMP JUMPDEST JUMPDEST DUP2 DUP2 LT ISZERO PUSH2 0xF4E JUMPI PUSH2 0xF43 PUSH1 0x0 DUP3 PUSH2 0xF17 JUMP JUMPDEST PUSH1 0x1 DUP2 ADD SWAP1 POP PUSH2 0xF30 JUMP JUMPDEST POP POP JUMP JUMPDEST PUSH1 0x1F DUP3 GT ISZERO PUSH2 0xF93 JUMPI PUSH2 0xF64 DUP2 PUSH2 0xE33 JUMP JUMPDEST PUSH2 0xF6D DUP5 PUSH2 0xE48 JUMP JUMPDEST DUP2 ADD PUSH1 0x20 DUP6 LT ISZERO PUSH2 0xF7C JUMPI DUP2 SWAP1 POP JUMPDEST PUSH2 0xF90 PUSH2 0xF88 DUP6 PUSH2 0xE48 JUMP JUMPDEST DUP4 ADD DUP3 PUSH2 0xF2F JUMP JUMPDEST POP POP JUMPDEST POP POP POP JUMP JUMPDEST PUSH1 0x0 DUP3 DUP3 SHR SWAP1 POP SWAP3 SWAP2 POP POP JUMP JUMPDEST PUSH1 0x0 PUSH2 0xFB6 PUSH1 0x0 NOT DUP5 PUSH1 0x8 MUL PUSH2 0xF98 JUMP JUMPDEST NOT DUP1 DUP4 AND SWAP2 POP POP SWAP3 SWAP2 POP POP JUMP JUMPDEST PUSH1 0x0 PUSH2 0xFCF DUP4 DUP4 PUSH2 0xFA5 JUMP JUMPDEST SWAP2 POP DUP3 PUSH1 0x2 MUL DUP3 OR SWAP1 POP SWAP3 SWAP2 POP POP JUMP JUMPDEST PUSH2 0xFE8 DUP3 PUSH2 0x9B7 JUMP JUMPDEST PUSH8 0xFFFFFFFFFFFFFFFF DUP2 GT ISZERO PUSH2 0x1001 JUMPI PUSH2 0x1000 PUSH2 0xAAE JUMP JUMPDEST JUMPDEST PUSH2 0x100B DUP3 SLOAD PUSH2 0xCE8 JUMP JUMPDEST PUSH2 0x1016 DUP3 DUP3 DUP6 PUSH2 0xF52 JUMP JUMPDEST PUSH1 0x0 PUSH1 0x20 SWAP1 POP PUSH1 0x1F DUP4 GT PUSH1 0x1 DUP2 EQ PUSH2 0x1049 JUMPI PUSH1 0x0 DUP5 ISZERO PUSH2 0x1037 JUMPI DUP3 DUP8 ADD MLOAD SWAP1 POP JUMPDEST PUSH2 0x1041 DUP6 DUP3 PUSH2 0xFC3 JUMP JUMPDEST DUP7 SSTORE POP PUSH2 0x10A9 JUMP JUMPDEST PUSH1 0x1F NOT DUP5 AND PUSH2 0x1057 DUP7 PUSH2 0xE33 JUMP JUMPDEST PUSH1 0x0 JUMPDEST DUP3 DUP2 LT ISZERO PUSH2 0x107F JUMPI DUP5 DUP10 ADD MLOAD DUP3 SSTORE PUSH1 0x1 DUP3 ADD SWAP2 POP PUSH1 0x20 DUP6 ADD SWAP5 POP PUSH1 0x20 DUP2 ADD SWAP1 POP PUSH2 0x105A JUMP JUMPDEST DUP7 DUP4 LT ISZERO PUSH2 0x109C JUMPI DUP5 DUP10 ADD MLOAD PUSH2 0x1098 PUSH1 0x1F DUP10 AND DUP3 PUSH2 0xFA5 JUMP JUMPDEST DUP4 SSTORE POP JUMPDEST PUSH1 0x1 PUSH1 0x2 DUP9 MUL ADD DUP9 SSTORE POP POP POP JUMPDEST POP POP POP POP POP POP JUMP INVALID LOG2 PUSH5 0x6970667358 0x22 SLT KECCAK256 LOG0 ADDRESS 0xFC 0xF8 0xC4 PUSH14 0xDEC572E2D1290616C318D2120F12 0xD3 RETURNDATASIZE 0xB2 JUMPDEST 0xB1 SMOD BYTE 0xC6 PUSH30 0x4AACEF64736F6C6343000812003300000000000000000000000000000000 "
				},
				"gasEstimates": {
					"creation": {
						"codeDepositCost": "865400",
						"executionCost": "71621",
						"totalCost": "937021"
					},
					"external": {
						"accountBalance()": "2473",
						"deposit(uint256)": "infinite",
						"depositAmount()": "2452",
						"double(uint256)": "infinite",
						"giveToken(address,uint256)": "infinite",
						"owner()": "2578",
						"register(string)": "infinite",
						"tokenPrice()": "2474",
						"tokens()": "2621",
						"users(address)": "infinite",
						"whoDeposited()": "2514"
					}
				},
				"methodIdentifiers": {
					"accountBalance()": "b0a1c1c4",
					"deposit(uint256)": "b6b55f25",
					"depositAmount()": "419759f5",
					"double(uint256)": "eee97206",
					"giveToken(address,uint256)": "193f974c",
					"owner()": "8da5cb5b",
					"register(string)": "f2c298be",
					"tokenPrice()": "7ff9b596",
					"tokens()": "9d63848a",
					"users(address)": "a87430ba",
					"whoDeposited()": "a1761664"
				}
			},
			"storageLayout": {
				"storage": [
					{
						"astId": 3,
						"contract": "EJ2/TokenContract.sol:TokenContract",
						"label": "owner",
						"offset": 0,
						"slot": "0",
						"type": "t_address"
					},
					{
						"astId": 6,
						"contract": "EJ2/TokenContract.sol:TokenContract",
						"label": "tokenPrice",
						"offset": 0,
						"slot": "1",
						"type": "t_uint256"
					},
					{
						"astId": 8,
						"contract": "EJ2/TokenContract.sol:TokenContract",
						"label": "whoDeposited",
						"offset": 0,
						"slot": "2",
						"type": "t_address"
					},
					{
						"astId": 10,
						"contract": "EJ2/TokenContract.sol:TokenContract",
						"label": "depositAmount",
						"offset": 0,
						"slot": "3",
						"type": "t_uint256"
					},
					{
						"astId": 12,
						"contract": "EJ2/TokenContract.sol:TokenContract",
						"label": "accountBalance",
						"offset": 0,
						"slot": "4",
						"type": "t_uint256"
					},
					{
						"astId": 22,
						"contract": "EJ2/TokenContract.sol:TokenContract",
						"label": "users",
						"offset": 0,
						"slot": "5",
						"type": "t_mapping(t_address,t_struct(Receivers)17_storage)"
					}
				],
				"types": {
					"t_address": {
						"encoding": "inplace",
						"label": "address",
						"numberOfBytes": "20"
					},
					"t_mapping(t_address,t_struct(Receivers)17_storage)": {
						"encoding": "mapping",
						"key": "t_address",
						"label": "mapping(address => struct TokenContract.Receivers)",
						"numberOfBytes": "32",
						"value": "t_struct(Receivers)17_storage"
					},
					"t_string_storage": {
						"encoding": "bytes",
						"label": "string",
						"numberOfBytes": "32"
					},
					"t_struct(Receivers)17_storage": {
						"encoding": "inplace",
						"label": "struct TokenContract.Receivers",
						"members": [
							{
								"astId": 14,
								"contract": "EJ2/TokenContract.sol:TokenContract",
								"label": "name",
								"offset": 0,
								"slot": "0",
								"type": "t_string_storage"
							},
							{
								"astId": 16,
								"contract": "EJ2/TokenContract.sol:TokenContract",
								"label": "tokens",
								"offset": 0,
								"slot": "1",
								"type": "t_uint256"
							}
						],
						"numberOfBytes": "64"
					},
					"t_uint256": {
						"encoding": "inplace",
						"label": "uint256",
						"numberOfBytes": "32"
					}
				}
			},
			"userdoc": {
				"kind": "user",
				"methods": {},
				"version": 1
			}
		}
	}
}