{
	"contracts/FabricaContract.sol": {
		"FabricaContract": {
			"abi": [
				{
					"anonymous": false,
					"inputs": [
						{
							"indexed": false,
							"internalType": "uint256",
							"name": "ArrayProductId",
							"type": "uint256"
						},
						{
							"indexed": false,
							"internalType": "string",
							"name": "nombre",
							"type": "string"
						},
						{
							"indexed": false,
							"internalType": "uint256",
							"name": "id",
							"type": "uint256"
						}
					],
					"name": "NuevoProducto",
					"type": "event"
				},
				{
					"inputs": [
						{
							"internalType": "string",
							"name": "_nombre",
							"type": "string"
						}
					],
					"name": "crearProductoAleatorio",
					"outputs": [],
					"stateMutability": "nonpayable",
					"type": "function"
				},
				{
					"inputs": [
						{
							"internalType": "address",
							"name": "_propietario",
							"type": "address"
						}
					],
					"name": "getProductosPorPropietario",
					"outputs": [
						{
							"internalType": "uint256[]",
							"name": "",
							"type": "uint256[]"
						}
					],
					"stateMutability": "view",
					"type": "function"
				},
				{
					"inputs": [],
					"name": "idDigits",
					"outputs": [
						{
							"internalType": "uint256",
							"name": "",
							"type": "uint256"
						}
					],
					"stateMutability": "view",
					"type": "function"
				},
				{
					"inputs": [
						{
							"internalType": "uint256",
							"name": "",
							"type": "uint256"
						}
					],
					"name": "productoAPropietario",
					"outputs": [
						{
							"internalType": "address",
							"name": "",
							"type": "address"
						}
					],
					"stateMutability": "view",
					"type": "function"
				},
				{
					"inputs": [
						{
							"internalType": "uint256",
							"name": "productoId",
							"type": "uint256"
						}
					],
					"name": "propiedad",
					"outputs": [],
					"stateMutability": "nonpayable",
					"type": "function"
				},
				{
					"inputs": [
						{
							"internalType": "address",
							"name": "",
							"type": "address"
						}
					],
					"name": "propietarioProductos",
					"outputs": [
						{
							"internalType": "uint256",
							"name": "",
							"type": "uint256"
						}
					],
					"stateMutability": "view",
					"type": "function"
				}
			],
			"devdoc": {
				"kind": "dev",
				"methods": {},
				"version": 1
			},
			"evm": {
				"assembly": "    /* \"contracts/FabricaContract.sol\":60:1766  contract FabricaContract {... */\n  mstore(0x40, 0x80)\n    /* \"contracts/FabricaContract.sol\":114:116  16 */\n  0x10\n    /* \"contracts/FabricaContract.sol\":91:116  uint public idDigits = 16 */\n  0x00\n  sstore\n    /* \"contracts/FabricaContract.sol\":60:1766  contract FabricaContract {... */\n  callvalue\n  dup1\n  iszero\n  tag_1\n  jumpi\n  0x00\n  dup1\n  revert\ntag_1:\n  pop\n  dataSize(sub_0)\n  dup1\n  dataOffset(sub_0)\n  0x00\n  codecopy\n  0x00\n  return\nstop\n\nsub_0: assembly {\n        /* \"contracts/FabricaContract.sol\":60:1766  contract FabricaContract {... */\n      mstore(0x40, 0x80)\n      callvalue\n      dup1\n      iszero\n      tag_1\n      jumpi\n      0x00\n      dup1\n      revert\n    tag_1:\n      pop\n      jumpi(tag_2, lt(calldatasize, 0x04))\n      shr(0xe0, calldataload(0x00))\n      dup1\n      0x0a0f2d76\n      eq\n      tag_3\n      jumpi\n      dup1\n      0x50ed5277\n      eq\n      tag_4\n      jumpi\n      dup1\n      0x72380aea\n      eq\n      tag_5\n      jumpi\n      dup1\n      0x9baabf55\n      eq\n      tag_6\n      jumpi\n      dup1\n      0xadb4954e\n      eq\n      tag_7\n      jumpi\n      dup1\n      0xae44a105\n      eq\n      tag_8\n      jumpi\n    tag_2:\n      0x00\n      dup1\n      revert\n        /* \"contracts/FabricaContract.sol\":91:116  uint public idDigits = 16 */\n    tag_3:\n      tag_9\n      tag_10\n      jump\t// in\n    tag_9:\n      mload(0x40)\n      tag_11\n      swap2\n      swap1\n      tag_12\n      jump\t// in\n    tag_11:\n      mload(0x40)\n      dup1\n      swap2\n      sub\n      swap1\n      return\n        /* \"contracts/FabricaContract.sol\":1007:1193  function propiedad(uint productoId) public {... */\n    tag_4:\n      tag_13\n      0x04\n      dup1\n      calldatasize\n      sub\n      dup2\n      add\n      swap1\n      tag_14\n      swap2\n      swap1\n      tag_15\n      jump\t// in\n    tag_14:\n      tag_16\n      jump\t// in\n    tag_13:\n      stop\n        /* \"contracts/FabricaContract.sol\":1199:1764  function getProductosPorPropietario(address _propietario)... */\n    tag_5:\n      tag_17\n      0x04\n      dup1\n      calldatasize\n      sub\n      dup2\n      add\n      swap1\n      tag_18\n      swap2\n      swap1\n      tag_19\n      jump\t// in\n    tag_18:\n      tag_20\n      jump\t// in\n    tag_17:\n      mload(0x40)\n      tag_21\n      swap2\n      swap1\n      tag_22\n      jump\t// in\n    tag_21:\n      mload(0x40)\n      dup1\n      swap2\n      sub\n      swap1\n      return\n        /* \"contracts/FabricaContract.sol\":889:941  mapping(uint => address) public productoAPropietario */\n    tag_6:\n      tag_23\n      0x04\n      dup1\n      calldatasize\n      sub\n      dup2\n      add\n      swap1\n      tag_24\n      swap2\n      swap1\n      tag_15\n      jump\t// in\n    tag_24:\n      tag_25\n      jump\t// in\n    tag_23:\n      mload(0x40)\n      tag_26\n      swap2\n      swap1\n      tag_27\n      jump\t// in\n    tag_26:\n      mload(0x40)\n      dup1\n      swap2\n      sub\n      swap1\n      return\n        /* \"contracts/FabricaContract.sol\":948:1000  mapping(address => uint) public propietarioProductos */\n    tag_7:\n      tag_28\n      0x04\n      dup1\n      calldatasize\n      sub\n      dup2\n      add\n      swap1\n      tag_29\n      swap2\n      swap1\n      tag_19\n      jump\t// in\n    tag_29:\n      tag_30\n      jump\t// in\n    tag_28:\n      mload(0x40)\n      tag_31\n      swap2\n      swap1\n      tag_12\n      jump\t// in\n    tag_31:\n      mload(0x40)\n      dup1\n      swap2\n      sub\n      swap1\n      return\n        /* \"contracts/FabricaContract.sol\":648:812  function crearProductoAleatorio(string memory _nombre) public {... */\n    tag_8:\n      tag_32\n      0x04\n      dup1\n      calldatasize\n      sub\n      dup2\n      add\n      swap1\n      tag_33\n      swap2\n      swap1\n      tag_34\n      jump\t// in\n    tag_33:\n      tag_35\n      jump\t// in\n    tag_32:\n      stop\n        /* \"contracts/FabricaContract.sol\":91:116  uint public idDigits = 16 */\n    tag_10:\n      sload(0x00)\n      dup2\n      jump\t// out\n        /* \"contracts/FabricaContract.sol\":1007:1193  function propiedad(uint productoId) public {... */\n    tag_16:\n        /* \"contracts/FabricaContract.sol\":1095:1105  msg.sender */\n      caller\n        /* \"contracts/FabricaContract.sol\":1060:1080  productoAPropietario */\n      0x02\n        /* \"contracts/FabricaContract.sol\":1060:1092  productoAPropietario[productoId] */\n      0x00\n        /* \"contracts/FabricaContract.sol\":1081:1091  productoId */\n      dup4\n        /* \"contracts/FabricaContract.sol\":1060:1092  productoAPropietario[productoId] */\n      dup2\n      mstore\n      0x20\n      add\n      swap1\n      dup2\n      mstore\n      0x20\n      add\n      0x00\n      keccak256\n      0x00\n        /* \"contracts/FabricaContract.sol\":1060:1105  productoAPropietario[productoId] = msg.sender */\n      0x0100\n      exp\n      dup2\n      sload\n      dup2\n      0xffffffffffffffffffffffffffffffffffffffff\n      mul\n      not\n      and\n      swap1\n      dup4\n      0xffffffffffffffffffffffffffffffffffffffff\n      and\n      mul\n      or\n      swap1\n      sstore\n      pop\n        /* \"contracts/FabricaContract.sol\":1185:1186  1 */\n      0x01\n        /* \"contracts/FabricaContract.sol\":1150:1170  propietarioProductos */\n      0x03\n        /* \"contracts/FabricaContract.sol\":1150:1182  propietarioProductos[msg.sender] */\n      0x00\n        /* \"contracts/FabricaContract.sol\":1171:1181  msg.sender */\n      caller\n        /* \"contracts/FabricaContract.sol\":1150:1182  propietarioProductos[msg.sender] */\n      0xffffffffffffffffffffffffffffffffffffffff\n      and\n      0xffffffffffffffffffffffffffffffffffffffff\n      and\n      dup2\n      mstore\n      0x20\n      add\n      swap1\n      dup2\n      mstore\n      0x20\n      add\n      0x00\n      keccak256\n      sload\n        /* \"contracts/FabricaContract.sol\":1150:1186  propietarioProductos[msg.sender] + 1 */\n      tag_37\n      swap2\n      swap1\n      tag_38\n      jump\t// in\n    tag_37:\n        /* \"contracts/FabricaContract.sol\":1115:1135  propietarioProductos */\n      0x03\n        /* \"contracts/FabricaContract.sol\":1115:1147  propietarioProductos[msg.sender] */\n      0x00\n        /* \"contracts/FabricaContract.sol\":1136:1146  msg.sender */\n      caller\n        /* \"contracts/FabricaContract.sol\":1115:1147  propietarioProductos[msg.sender] */\n      0xffffffffffffffffffffffffffffffffffffffff\n      and\n      0xffffffffffffffffffffffffffffffffffffffff\n      and\n      dup2\n      mstore\n      0x20\n      add\n      swap1\n      dup2\n      mstore\n      0x20\n      add\n      0x00\n      keccak256\n        /* \"contracts/FabricaContract.sol\":1115:1186  propietarioProductos[msg.sender] = propietarioProductos[msg.sender] + 1 */\n      dup2\n      swap1\n      sstore\n      pop\n        /* \"contracts/FabricaContract.sol\":1007:1193  function propiedad(uint productoId) public {... */\n      pop\n      jump\t// out\n        /* \"contracts/FabricaContract.sol\":1199:1764  function getProductosPorPropietario(address _propietario)... */\n    tag_20:\n        /* \"contracts/FabricaContract.sol\":1304:1317  uint[] memory */\n      0x60\n        /* \"contracts/FabricaContract.sol\":1333:1346  uint contador */\n      0x00\n        /* \"contracts/FabricaContract.sol\":1360:1383  uint[] memory resultado */\n      dup1\n        /* \"contracts/FabricaContract.sol\":1397:1417  propietarioProductos */\n      0x03\n        /* \"contracts/FabricaContract.sol\":1397:1431  propietarioProductos[_propietario] */\n      0x00\n        /* \"contracts/FabricaContract.sol\":1418:1430  _propietario */\n      dup6\n        /* \"contracts/FabricaContract.sol\":1397:1431  propietarioProductos[_propietario] */\n      0xffffffffffffffffffffffffffffffffffffffff\n      and\n      0xffffffffffffffffffffffffffffffffffffffff\n      and\n      dup2\n      mstore\n      0x20\n      add\n      swap1\n      dup2\n      mstore\n      0x20\n      add\n      0x00\n      keccak256\n      sload\n        /* \"contracts/FabricaContract.sol\":1386:1432  new uint[](propietarioProductos[_propietario]) */\n      0xffffffffffffffff\n      dup2\n      gt\n      iszero\n      tag_40\n      jumpi\n      tag_41\n      tag_42\n      jump\t// in\n    tag_41:\n    tag_40:\n      mload(0x40)\n      swap1\n      dup1\n      dup3\n      mstore\n      dup1\n      0x20\n      mul\n      0x20\n      add\n      dup3\n      add\n      0x40\n      mstore\n      dup1\n      iszero\n      tag_43\n      jumpi\n      dup2\n      0x20\n      add\n      0x20\n      dup3\n      mul\n      dup1\n      calldatasize\n      dup4\n      calldatacopy\n      dup1\n      dup3\n      add\n      swap2\n      pop\n      pop\n      swap1\n      pop\n    tag_43:\n      pop\n        /* \"contracts/FabricaContract.sol\":1360:1432  uint[] memory resultado = new uint[](propietarioProductos[_propietario]) */\n      swap1\n      pop\n        /* \"contracts/FabricaContract.sol\":1448:1454  uint x */\n      0x00\n        /* \"contracts/FabricaContract.sol\":1443:1732  for (uint x = 0; x < productos.length; x++) {... */\n    tag_44:\n        /* \"contracts/FabricaContract.sol\":1464:1473  productos */\n      0x01\n        /* \"contracts/FabricaContract.sol\":1464:1480  productos.length */\n      dup1\n      sload\n      swap1\n      pop\n        /* \"contracts/FabricaContract.sol\":1460:1461  x */\n      dup2\n        /* \"contracts/FabricaContract.sol\":1460:1480  x < productos.length */\n      lt\n        /* \"contracts/FabricaContract.sol\":1443:1732  for (uint x = 0; x < productos.length; x++) {... */\n      iszero\n      tag_45\n      jumpi\n        /* \"contracts/FabricaContract.sol\":1501:1508  uint id */\n      0x00\n        /* \"contracts/FabricaContract.sol\":1511:1520  productos */\n      0x01\n        /* \"contracts/FabricaContract.sol\":1521:1522  x */\n      dup3\n        /* \"contracts/FabricaContract.sol\":1511:1523  productos[x] */\n      dup2\n      sload\n      dup2\n      lt\n      tag_47\n      jumpi\n      tag_48\n      tag_49\n      jump\t// in\n    tag_48:\n    tag_47:\n      swap1\n      0x00\n      mstore\n      keccak256(0x00, 0x20)\n      swap1\n      0x02\n      mul\n      add\n        /* \"contracts/FabricaContract.sol\":1511:1538  productos[x].identificacion */\n      0x01\n      add\n      sload\n        /* \"contracts/FabricaContract.sol\":1501:1538  uint id = productos[x].identificacion */\n      swap1\n      pop\n        /* \"contracts/FabricaContract.sol\":1585:1597  _propietario */\n      dup6\n        /* \"contracts/FabricaContract.sol\":1557:1597  productoAPropietario[id] == _propietario */\n      0xffffffffffffffffffffffffffffffffffffffff\n      and\n        /* \"contracts/FabricaContract.sol\":1557:1577  productoAPropietario */\n      0x02\n        /* \"contracts/FabricaContract.sol\":1557:1581  productoAPropietario[id] */\n      0x00\n        /* \"contracts/FabricaContract.sol\":1578:1580  id */\n      dup4\n        /* \"contracts/FabricaContract.sol\":1557:1581  productoAPropietario[id] */\n      dup2\n      mstore\n      0x20\n      add\n      swap1\n      dup2\n      mstore\n      0x20\n      add\n      0x00\n      keccak256\n      0x00\n      swap1\n      sload\n      swap1\n      0x0100\n      exp\n      swap1\n      div\n      0xffffffffffffffffffffffffffffffffffffffff\n      and\n        /* \"contracts/FabricaContract.sol\":1557:1597  productoAPropietario[id] == _propietario */\n      0xffffffffffffffffffffffffffffffffffffffff\n      and\n      sub\n        /* \"contracts/FabricaContract.sol\":1552:1722  if ( productoAPropietario[id] == _propietario) {... */\n      tag_51\n      jumpi\n        /* \"contracts/FabricaContract.sol\":1639:1648  productos */\n      0x01\n        /* \"contracts/FabricaContract.sol\":1649:1650  x */\n      dup3\n        /* \"contracts/FabricaContract.sol\":1639:1651  productos[x] */\n      dup2\n      sload\n      dup2\n      lt\n      tag_52\n      jumpi\n      tag_53\n      tag_49\n      jump\t// in\n    tag_53:\n    tag_52:\n      swap1\n      0x00\n      mstore\n      keccak256(0x00, 0x20)\n      swap1\n      0x02\n      mul\n      add\n        /* \"contracts/FabricaContract.sol\":1639:1666  productos[x].identificacion */\n      0x01\n      add\n      sload\n        /* \"contracts/FabricaContract.sol\":1617:1626  resultado */\n      dup4\n        /* \"contracts/FabricaContract.sol\":1627:1635  contador */\n      dup6\n        /* \"contracts/FabricaContract.sol\":1617:1636  resultado[contador] */\n      dup2\n      mload\n      dup2\n      lt\n      tag_55\n      jumpi\n      tag_56\n      tag_49\n      jump\t// in\n    tag_56:\n    tag_55:\n      0x20\n      mul\n      0x20\n      add\n      add\n        /* \"contracts/FabricaContract.sol\":1617:1666  resultado[contador] = productos[x].identificacion */\n      dup2\n      dup2\n      mstore\n      pop\n      pop\n        /* \"contracts/FabricaContract.sol\":1704:1705  1 */\n      0x01\n        /* \"contracts/FabricaContract.sol\":1695:1703  contador */\n      dup5\n        /* \"contracts/FabricaContract.sol\":1695:1705  contador+1 */\n      tag_57\n      swap2\n      swap1\n      tag_38\n      jump\t// in\n    tag_57:\n        /* \"contracts/FabricaContract.sol\":1684:1705  contador = contador+1 */\n      swap4\n      pop\n        /* \"contracts/FabricaContract.sol\":1552:1722  if ( productoAPropietario[id] == _propietario) {... */\n    tag_51:\n        /* \"contracts/FabricaContract.sol\":1487:1732  {... */\n      pop\n        /* \"contracts/FabricaContract.sol\":1482:1485  x++ */\n      dup1\n      dup1\n      tag_58\n      swap1\n      tag_59\n      jump\t// in\n    tag_58:\n      swap2\n      pop\n      pop\n        /* \"contracts/FabricaContract.sol\":1443:1732  for (uint x = 0; x < productos.length; x++) {... */\n      jump(tag_44)\n    tag_45:\n      pop\n        /* \"contracts/FabricaContract.sol\":1748:1757  resultado */\n      dup1\n        /* \"contracts/FabricaContract.sol\":1741:1757  return resultado */\n      swap3\n      pop\n      pop\n      pop\n        /* \"contracts/FabricaContract.sol\":1199:1764  function getProductosPorPropietario(address _propietario)... */\n      swap2\n      swap1\n      pop\n      jump\t// out\n        /* \"contracts/FabricaContract.sol\":889:941  mapping(uint => address) public productoAPropietario */\n    tag_25:\n      mstore(0x20, 0x02)\n      dup1\n      0x00\n      mstore\n      keccak256(0x00, 0x40)\n      0x00\n      swap2\n      pop\n      sload\n      swap1\n      0x0100\n      exp\n      swap1\n      div\n      0xffffffffffffffffffffffffffffffffffffffff\n      and\n      dup2\n      jump\t// out\n        /* \"contracts/FabricaContract.sol\":948:1000  mapping(address => uint) public propietarioProductos */\n    tag_30:\n      mstore(0x20, 0x03)\n      dup1\n      0x00\n      mstore\n      keccak256(0x00, 0x40)\n      0x00\n      swap2\n      pop\n      swap1\n      pop\n      sload\n      dup2\n      jump\t// out\n        /* \"contracts/FabricaContract.sol\":648:812  function crearProductoAleatorio(string memory _nombre) public {... */\n    tag_35:\n        /* \"contracts/FabricaContract.sol\":720:732  uint _randId */\n      0x00\n        /* \"contracts/FabricaContract.sol\":735:763  _generarIdAleatorio(_nombre) */\n      tag_61\n        /* \"contracts/FabricaContract.sol\":755:762  _nombre */\n      dup3\n        /* \"contracts/FabricaContract.sol\":735:754  _generarIdAleatorio */\n      tag_62\n        /* \"contracts/FabricaContract.sol\":735:763  _generarIdAleatorio(_nombre) */\n      jump\t// in\n    tag_61:\n        /* \"contracts/FabricaContract.sol\":720:763  uint _randId = _generarIdAleatorio(_nombre) */\n      swap1\n      pop\n        /* \"contracts/FabricaContract.sol\":773:805  _crearProducto(_nombre, _randId) */\n      tag_63\n        /* \"contracts/FabricaContract.sol\":788:795  _nombre */\n      dup3\n        /* \"contracts/FabricaContract.sol\":797:804  _randId */\n      dup3\n        /* \"contracts/FabricaContract.sol\":773:787  _crearProducto */\n      tag_64\n        /* \"contracts/FabricaContract.sol\":773:805  _crearProducto(_nombre, _randId) */\n      jump\t// in\n    tag_63:\n        /* \"contracts/FabricaContract.sol\":710:812  {... */\n      pop\n        /* \"contracts/FabricaContract.sol\":648:812  function crearProductoAleatorio(string memory _nombre) public {... */\n      pop\n      jump\t// out\n        /* \"contracts/FabricaContract.sol\":417:642  function _generarIdAleatorio(string memory _str)... */\n    tag_62:\n        /* \"contracts/FabricaContract.sol\":512:521  uint rand */\n      0x00\n        /* \"contracts/FabricaContract.sol\":537:551  uint idModulus */\n      dup1\n        /* \"contracts/FabricaContract.sol\":559:567  idDigits */\n      sload(0x00)\n        /* \"contracts/FabricaContract.sol\":554:556  10 */\n      0x0a\n        /* \"contracts/FabricaContract.sol\":554:567  10 ^ idDigits */\n      xor\n        /* \"contracts/FabricaContract.sol\":537:567  uint idModulus = 10 ^ idDigits */\n      swap1\n      pop\n        /* \"contracts/FabricaContract.sol\":626:635  idModulus */\n      dup1\n        /* \"contracts/FabricaContract.sol\":616:620  _str */\n      dup4\n        /* \"contracts/FabricaContract.sol\":599:621  abi.encodePacked(_str) */\n      add(0x20, mload(0x40))\n      tag_66\n      swap2\n      swap1\n      tag_67\n      jump\t// in\n    tag_66:\n      mload(0x40)\n      0x20\n      dup2\n      dup4\n      sub\n      sub\n      dup2\n      mstore\n      swap1\n      0x40\n      mstore\n        /* \"contracts/FabricaContract.sol\":589:622  keccak256(abi.encodePacked(_str)) */\n      dup1\n      mload\n      swap1\n      0x20\n      add\n      keccak256\n        /* \"contracts/FabricaContract.sol\":584:623  uint(keccak256(abi.encodePacked(_str))) */\n      0x00\n      shr\n        /* \"contracts/FabricaContract.sol\":584:635  uint(keccak256(abi.encodePacked(_str))) % idModulus */\n      tag_68\n      swap2\n      swap1\n      tag_69\n      jump\t// in\n    tag_68:\n        /* \"contracts/FabricaContract.sol\":577:635  rand = uint(keccak256(abi.encodePacked(_str))) % idModulus */\n      swap2\n      pop\n        /* \"contracts/FabricaContract.sol\":527:642  {... */\n      pop\n        /* \"contracts/FabricaContract.sol\":417:642  function _generarIdAleatorio(string memory _str)... */\n      swap2\n      swap1\n      pop\n      jump\t// out\n        /* \"contracts/FabricaContract.sol\":229:411  function _crearProducto(string memory _nombre, uint _id) private {... */\n    tag_64:\n        /* \"contracts/FabricaContract.sol\":304:313  productos */\n      0x01\n        /* \"contracts/FabricaContract.sol\":319:341  Producto(_nombre, _id) */\n      mload(0x40)\n      dup1\n      0x40\n      add\n      0x40\n      mstore\n      dup1\n        /* \"contracts/FabricaContract.sol\":328:335  _nombre */\n      dup5\n        /* \"contracts/FabricaContract.sol\":319:341  Producto(_nombre, _id) */\n      dup2\n      mstore\n      0x20\n      add\n        /* \"contracts/FabricaContract.sol\":337:340  _id */\n      dup4\n        /* \"contracts/FabricaContract.sol\":319:341  Producto(_nombre, _id) */\n      dup2\n      mstore\n      pop\n        /* \"contracts/FabricaContract.sol\":304:342  productos.push(Producto(_nombre, _id)) */\n      swap1\n      dup1\n      0x01\n      dup2\n      sload\n      add\n      dup1\n      dup3\n      sstore\n      dup1\n      swap2\n      pop\n      pop\n      0x01\n      swap1\n      sub\n      swap1\n      0x00\n      mstore\n      keccak256(0x00, 0x20)\n      swap1\n      0x02\n      mul\n      add\n      0x00\n      swap1\n      swap2\n      swap1\n      swap2\n      swap1\n      swap2\n      pop\n      0x00\n      dup3\n      add\n      mload\n      dup2\n      0x00\n      add\n      swap1\n      dup2\n      tag_72\n      swap2\n      swap1\n      tag_73\n      jump\t// in\n    tag_72:\n      pop\n      0x20\n      dup3\n      add\n      mload\n      dup2\n      0x01\n      add\n      sstore\n      pop\n      pop\n        /* \"contracts/FabricaContract.sol\":357:404  NuevoProducto(productos.length-1, _nombre, _id) */\n      0x0638820bbfa7f1ab0bfb9054649b6198da60bd10654cbfe5c50d26b1bec65878\n        /* \"contracts/FabricaContract.sol\":388:389  1 */\n      0x01\n        /* \"contracts/FabricaContract.sol\":371:380  productos */\n      dup1\n        /* \"contracts/FabricaContract.sol\":371:387  productos.length */\n      dup1\n      sload\n      swap1\n      pop\n        /* \"contracts/FabricaContract.sol\":371:389  productos.length-1 */\n      tag_74\n      swap2\n      swap1\n      tag_75\n      jump\t// in\n    tag_74:\n        /* \"contracts/FabricaContract.sol\":391:398  _nombre */\n      dup4\n        /* \"contracts/FabricaContract.sol\":400:403  _id */\n      dup4\n        /* \"contracts/FabricaContract.sol\":357:404  NuevoProducto(productos.length-1, _nombre, _id) */\n      mload(0x40)\n      tag_76\n      swap4\n      swap3\n      swap2\n      swap1\n      tag_77\n      jump\t// in\n    tag_76:\n      mload(0x40)\n      dup1\n      swap2\n      sub\n      swap1\n      log1\n        /* \"contracts/FabricaContract.sol\":229:411  function _crearProducto(string memory _nombre, uint _id) private {... */\n      pop\n      pop\n      jump\t// out\n        /* \"#utility.yul\":7:84   */\n    tag_78:\n        /* \"#utility.yul\":44:51   */\n      0x00\n        /* \"#utility.yul\":73:78   */\n      dup2\n        /* \"#utility.yul\":62:78   */\n      swap1\n      pop\n        /* \"#utility.yul\":7:84   */\n      swap2\n      swap1\n      pop\n      jump\t// out\n        /* \"#utility.yul\":90:208   */\n    tag_79:\n        /* \"#utility.yul\":177:201   */\n      tag_134\n        /* \"#utility.yul\":195:200   */\n      dup2\n        /* \"#utility.yul\":177:201   */\n      tag_78\n      jump\t// in\n    tag_134:\n        /* \"#utility.yul\":172:175   */\n      dup3\n        /* \"#utility.yul\":165:202   */\n      mstore\n        /* \"#utility.yul\":90:208   */\n      pop\n      pop\n      jump\t// out\n        /* \"#utility.yul\":214:436   */\n    tag_12:\n        /* \"#utility.yul\":307:311   */\n      0x00\n        /* \"#utility.yul\":345:347   */\n      0x20\n        /* \"#utility.yul\":334:343   */\n      dup3\n        /* \"#utility.yul\":330:348   */\n      add\n        /* \"#utility.yul\":322:348   */\n      swap1\n      pop\n        /* \"#utility.yul\":358:429   */\n      tag_136\n        /* \"#utility.yul\":426:427   */\n      0x00\n        /* \"#utility.yul\":415:424   */\n      dup4\n        /* \"#utility.yul\":411:428   */\n      add\n        /* \"#utility.yul\":402:408   */\n      dup5\n        /* \"#utility.yul\":358:429   */\n      tag_79\n      jump\t// in\n    tag_136:\n        /* \"#utility.yul\":214:436   */\n      swap3\n      swap2\n      pop\n      pop\n      jump\t// out\n        /* \"#utility.yul\":442:517   */\n    tag_80:\n        /* \"#utility.yul\":475:481   */\n      0x00\n        /* \"#utility.yul\":508:510   */\n      0x40\n        /* \"#utility.yul\":502:511   */\n      mload\n        /* \"#utility.yul\":492:511   */\n      swap1\n      pop\n        /* \"#utility.yul\":442:517   */\n      swap1\n      jump\t// out\n        /* \"#utility.yul\":523:640   */\n    tag_81:\n        /* \"#utility.yul\":632:633   */\n      0x00\n        /* \"#utility.yul\":629:630   */\n      dup1\n        /* \"#utility.yul\":622:634   */\n      revert\n        /* \"#utility.yul\":646:763   */\n    tag_82:\n        /* \"#utility.yul\":755:756   */\n      0x00\n        /* \"#utility.yul\":752:753   */\n      dup1\n        /* \"#utility.yul\":745:757   */\n      revert\n        /* \"#utility.yul\":769:891   */\n    tag_83:\n        /* \"#utility.yul\":842:866   */\n      tag_141\n        /* \"#utility.yul\":860:865   */\n      dup2\n        /* \"#utility.yul\":842:866   */\n      tag_78\n      jump\t// in\n    tag_141:\n        /* \"#utility.yul\":835:840   */\n      dup2\n        /* \"#utility.yul\":832:867   */\n      eq\n        /* \"#utility.yul\":822:885   */\n      tag_142\n      jumpi\n        /* \"#utility.yul\":881:882   */\n      0x00\n        /* \"#utility.yul\":878:879   */\n      dup1\n        /* \"#utility.yul\":871:883   */\n      revert\n        /* \"#utility.yul\":822:885   */\n    tag_142:\n        /* \"#utility.yul\":769:891   */\n      pop\n      jump\t// out\n        /* \"#utility.yul\":897:1036   */\n    tag_84:\n        /* \"#utility.yul\":943:948   */\n      0x00\n        /* \"#utility.yul\":981:987   */\n      dup2\n        /* \"#utility.yul\":968:988   */\n      calldataload\n        /* \"#utility.yul\":959:988   */\n      swap1\n      pop\n        /* \"#utility.yul\":997:1030   */\n      tag_144\n        /* \"#utility.yul\":1024:1029   */\n      dup2\n        /* \"#utility.yul\":997:1030   */\n      tag_83\n      jump\t// in\n    tag_144:\n        /* \"#utility.yul\":897:1036   */\n      swap3\n      swap2\n      pop\n      pop\n      jump\t// out\n        /* \"#utility.yul\":1042:1371   */\n    tag_15:\n        /* \"#utility.yul\":1101:1107   */\n      0x00\n        /* \"#utility.yul\":1150:1152   */\n      0x20\n        /* \"#utility.yul\":1138:1147   */\n      dup3\n        /* \"#utility.yul\":1129:1136   */\n      dup5\n        /* \"#utility.yul\":1125:1148   */\n      sub\n        /* \"#utility.yul\":1121:1153   */\n      slt\n        /* \"#utility.yul\":1118:1237   */\n      iszero\n      tag_146\n      jumpi\n        /* \"#utility.yul\":1156:1235   */\n      tag_147\n      tag_81\n      jump\t// in\n    tag_147:\n        /* \"#utility.yul\":1118:1237   */\n    tag_146:\n        /* \"#utility.yul\":1276:1277   */\n      0x00\n        /* \"#utility.yul\":1301:1354   */\n      tag_148\n        /* \"#utility.yul\":1346:1353   */\n      dup5\n        /* \"#utility.yul\":1337:1343   */\n      dup3\n        /* \"#utility.yul\":1326:1335   */\n      dup6\n        /* \"#utility.yul\":1322:1344   */\n      add\n        /* \"#utility.yul\":1301:1354   */\n      tag_84\n      jump\t// in\n    tag_148:\n        /* \"#utility.yul\":1291:1354   */\n      swap2\n      pop\n        /* \"#utility.yul\":1247:1364   */\n      pop\n        /* \"#utility.yul\":1042:1371   */\n      swap3\n      swap2\n      pop\n      pop\n      jump\t// out\n        /* \"#utility.yul\":1377:1503   */\n    tag_85:\n        /* \"#utility.yul\":1414:1421   */\n      0x00\n        /* \"#utility.yul\":1454:1496   */\n      0xffffffffffffffffffffffffffffffffffffffff\n        /* \"#utility.yul\":1447:1452   */\n      dup3\n        /* \"#utility.yul\":1443:1497   */\n      and\n        /* \"#utility.yul\":1432:1497   */\n      swap1\n      pop\n        /* \"#utility.yul\":1377:1503   */\n      swap2\n      swap1\n      pop\n      jump\t// out\n        /* \"#utility.yul\":1509:1605   */\n    tag_86:\n        /* \"#utility.yul\":1546:1553   */\n      0x00\n        /* \"#utility.yul\":1575:1599   */\n      tag_151\n        /* \"#utility.yul\":1593:1598   */\n      dup3\n        /* \"#utility.yul\":1575:1599   */\n      tag_85\n      jump\t// in\n    tag_151:\n        /* \"#utility.yul\":1564:1599   */\n      swap1\n      pop\n        /* \"#utility.yul\":1509:1605   */\n      swap2\n      swap1\n      pop\n      jump\t// out\n        /* \"#utility.yul\":1611:1733   */\n    tag_87:\n        /* \"#utility.yul\":1684:1708   */\n      tag_153\n        /* \"#utility.yul\":1702:1707   */\n      dup2\n        /* \"#utility.yul\":1684:1708   */\n      tag_86\n      jump\t// in\n    tag_153:\n        /* \"#utility.yul\":1677:1682   */\n      dup2\n        /* \"#utility.yul\":1674:1709   */\n      eq\n        /* \"#utility.yul\":1664:1727   */\n      tag_154\n      jumpi\n        /* \"#utility.yul\":1723:1724   */\n      0x00\n        /* \"#utility.yul\":1720:1721   */\n      dup1\n        /* \"#utility.yul\":1713:1725   */\n      revert\n        /* \"#utility.yul\":1664:1727   */\n    tag_154:\n        /* \"#utility.yul\":1611:1733   */\n      pop\n      jump\t// out\n        /* \"#utility.yul\":1739:1878   */\n    tag_88:\n        /* \"#utility.yul\":1785:1790   */\n      0x00\n        /* \"#utility.yul\":1823:1829   */\n      dup2\n        /* \"#utility.yul\":1810:1830   */\n      calldataload\n        /* \"#utility.yul\":1801:1830   */\n      swap1\n      pop\n        /* \"#utility.yul\":1839:1872   */\n      tag_156\n        /* \"#utility.yul\":1866:1871   */\n      dup2\n        /* \"#utility.yul\":1839:1872   */\n      tag_87\n      jump\t// in\n    tag_156:\n        /* \"#utility.yul\":1739:1878   */\n      swap3\n      swap2\n      pop\n      pop\n      jump\t// out\n        /* \"#utility.yul\":1884:2213   */\n    tag_19:\n        /* \"#utility.yul\":1943:1949   */\n      0x00\n        /* \"#utility.yul\":1992:1994   */\n      0x20\n        /* \"#utility.yul\":1980:1989   */\n      dup3\n        /* \"#utility.yul\":1971:1978   */\n      dup5\n        /* \"#utility.yul\":1967:1990   */\n      sub\n        /* \"#utility.yul\":1963:1995   */\n      slt\n        /* \"#utility.yul\":1960:2079   */\n      iszero\n      tag_158\n      jumpi\n        /* \"#utility.yul\":1998:2077   */\n      tag_159\n      tag_81\n      jump\t// in\n    tag_159:\n        /* \"#utility.yul\":1960:2079   */\n    tag_158:\n        /* \"#utility.yul\":2118:2119   */\n      0x00\n        /* \"#utility.yul\":2143:2196   */\n      tag_160\n        /* \"#utility.yul\":2188:2195   */\n      dup5\n        /* \"#utility.yul\":2179:2185   */\n      dup3\n        /* \"#utility.yul\":2168:2177   */\n      dup6\n        /* \"#utility.yul\":2164:2186   */\n      add\n        /* \"#utility.yul\":2143:2196   */\n      tag_88\n      jump\t// in\n    tag_160:\n        /* \"#utility.yul\":2133:2196   */\n      swap2\n      pop\n        /* \"#utility.yul\":2089:2206   */\n      pop\n        /* \"#utility.yul\":1884:2213   */\n      swap3\n      swap2\n      pop\n      pop\n      jump\t// out\n        /* \"#utility.yul\":2219:2333   */\n    tag_89:\n        /* \"#utility.yul\":2286:2292   */\n      0x00\n        /* \"#utility.yul\":2320:2325   */\n      dup2\n        /* \"#utility.yul\":2314:2326   */\n      mload\n        /* \"#utility.yul\":2304:2326   */\n      swap1\n      pop\n        /* \"#utility.yul\":2219:2333   */\n      swap2\n      swap1\n      pop\n      jump\t// out\n        /* \"#utility.yul\":2339:2523   */\n    tag_90:\n        /* \"#utility.yul\":2438:2449   */\n      0x00\n        /* \"#utility.yul\":2472:2478   */\n      dup3\n        /* \"#utility.yul\":2467:2470   */\n      dup3\n        /* \"#utility.yul\":2460:2479   */\n      mstore\n        /* \"#utility.yul\":2512:2516   */\n      0x20\n        /* \"#utility.yul\":2507:2510   */\n      dup3\n        /* \"#utility.yul\":2503:2517   */\n      add\n        /* \"#utility.yul\":2488:2517   */\n      swap1\n      pop\n        /* \"#utility.yul\":2339:2523   */\n      swap3\n      swap2\n      pop\n      pop\n      jump\t// out\n        /* \"#utility.yul\":2529:2661   */\n    tag_91:\n        /* \"#utility.yul\":2596:2600   */\n      0x00\n        /* \"#utility.yul\":2619:2622   */\n      dup2\n        /* \"#utility.yul\":2611:2622   */\n      swap1\n      pop\n        /* \"#utility.yul\":2649:2653   */\n      0x20\n        /* \"#utility.yul\":2644:2647   */\n      dup3\n        /* \"#utility.yul\":2640:2654   */\n      add\n        /* \"#utility.yul\":2632:2654   */\n      swap1\n      pop\n        /* \"#utility.yul\":2529:2661   */\n      swap2\n      swap1\n      pop\n      jump\t// out\n        /* \"#utility.yul\":2667:2775   */\n    tag_92:\n        /* \"#utility.yul\":2744:2768   */\n      tag_165\n        /* \"#utility.yul\":2762:2767   */\n      dup2\n        /* \"#utility.yul\":2744:2768   */\n      tag_78\n      jump\t// in\n    tag_165:\n        /* \"#utility.yul\":2739:2742   */\n      dup3\n        /* \"#utility.yul\":2732:2769   */\n      mstore\n        /* \"#utility.yul\":2667:2775   */\n      pop\n      pop\n      jump\t// out\n        /* \"#utility.yul\":2781:2960   */\n    tag_93:\n        /* \"#utility.yul\":2850:2860   */\n      0x00\n        /* \"#utility.yul\":2871:2917   */\n      tag_167\n        /* \"#utility.yul\":2913:2916   */\n      dup4\n        /* \"#utility.yul\":2905:2911   */\n      dup4\n        /* \"#utility.yul\":2871:2917   */\n      tag_92\n      jump\t// in\n    tag_167:\n        /* \"#utility.yul\":2949:2953   */\n      0x20\n        /* \"#utility.yul\":2944:2947   */\n      dup4\n        /* \"#utility.yul\":2940:2954   */\n      add\n        /* \"#utility.yul\":2926:2954   */\n      swap1\n      pop\n        /* \"#utility.yul\":2781:2960   */\n      swap3\n      swap2\n      pop\n      pop\n      jump\t// out\n        /* \"#utility.yul\":2966:3079   */\n    tag_94:\n        /* \"#utility.yul\":3036:3040   */\n      0x00\n        /* \"#utility.yul\":3068:3072   */\n      0x20\n        /* \"#utility.yul\":3063:3066   */\n      dup3\n        /* \"#utility.yul\":3059:3073   */\n      add\n        /* \"#utility.yul\":3051:3073   */\n      swap1\n      pop\n        /* \"#utility.yul\":2966:3079   */\n      swap2\n      swap1\n      pop\n      jump\t// out\n        /* \"#utility.yul\":3115:3847   */\n    tag_95:\n        /* \"#utility.yul\":3234:3237   */\n      0x00\n        /* \"#utility.yul\":3263:3317   */\n      tag_170\n        /* \"#utility.yul\":3311:3316   */\n      dup3\n        /* \"#utility.yul\":3263:3317   */\n      tag_89\n      jump\t// in\n    tag_170:\n        /* \"#utility.yul\":3333:3419   */\n      tag_171\n        /* \"#utility.yul\":3412:3418   */\n      dup2\n        /* \"#utility.yul\":3407:3410   */\n      dup6\n        /* \"#utility.yul\":3333:3419   */\n      tag_90\n      jump\t// in\n    tag_171:\n        /* \"#utility.yul\":3326:3419   */\n      swap4\n      pop\n        /* \"#utility.yul\":3443:3499   */\n      tag_172\n        /* \"#utility.yul\":3493:3498   */\n      dup4\n        /* \"#utility.yul\":3443:3499   */\n      tag_91\n      jump\t// in\n    tag_172:\n        /* \"#utility.yul\":3522:3529   */\n      dup1\n        /* \"#utility.yul\":3553:3554   */\n      0x00\n        /* \"#utility.yul\":3538:3822   */\n    tag_173:\n        /* \"#utility.yul\":3563:3569   */\n      dup4\n        /* \"#utility.yul\":3560:3561   */\n      dup2\n        /* \"#utility.yul\":3557:3570   */\n      lt\n        /* \"#utility.yul\":3538:3822   */\n      iszero\n      tag_175\n      jumpi\n        /* \"#utility.yul\":3639:3645   */\n      dup2\n        /* \"#utility.yul\":3633:3646   */\n      mload\n        /* \"#utility.yul\":3666:3729   */\n      tag_176\n        /* \"#utility.yul\":3725:3728   */\n      dup9\n        /* \"#utility.yul\":3710:3723   */\n      dup3\n        /* \"#utility.yul\":3666:3729   */\n      tag_93\n      jump\t// in\n    tag_176:\n        /* \"#utility.yul\":3659:3729   */\n      swap8\n      pop\n        /* \"#utility.yul\":3752:3812   */\n      tag_177\n        /* \"#utility.yul\":3805:3811   */\n      dup4\n        /* \"#utility.yul\":3752:3812   */\n      tag_94\n      jump\t// in\n    tag_177:\n        /* \"#utility.yul\":3742:3812   */\n      swap3\n      pop\n        /* \"#utility.yul\":3598:3822   */\n      pop\n        /* \"#utility.yul\":3585:3586   */\n      0x01\n        /* \"#utility.yul\":3582:3583   */\n      dup2\n        /* \"#utility.yul\":3578:3587   */\n      add\n        /* \"#utility.yul\":3573:3587   */\n      swap1\n      pop\n        /* \"#utility.yul\":3538:3822   */\n      jump(tag_173)\n    tag_175:\n        /* \"#utility.yul\":3542:3556   */\n      pop\n        /* \"#utility.yul\":3838:3841   */\n      dup6\n        /* \"#utility.yul\":3831:3841   */\n      swap4\n      pop\n        /* \"#utility.yul\":3239:3847   */\n      pop\n      pop\n      pop\n        /* \"#utility.yul\":3115:3847   */\n      swap3\n      swap2\n      pop\n      pop\n      jump\t// out\n        /* \"#utility.yul\":3853:4226   */\n    tag_22:\n        /* \"#utility.yul\":3996:4000   */\n      0x00\n        /* \"#utility.yul\":4034:4036   */\n      0x20\n        /* \"#utility.yul\":4023:4032   */\n      dup3\n        /* \"#utility.yul\":4019:4037   */\n      add\n        /* \"#utility.yul\":4011:4037   */\n      swap1\n      pop\n        /* \"#utility.yul\":4083:4092   */\n      dup2\n        /* \"#utility.yul\":4077:4081   */\n      dup2\n        /* \"#utility.yul\":4073:4093   */\n      sub\n        /* \"#utility.yul\":4069:4070   */\n      0x00\n        /* \"#utility.yul\":4058:4067   */\n      dup4\n        /* \"#utility.yul\":4054:4071   */\n      add\n        /* \"#utility.yul\":4047:4094   */\n      mstore\n        /* \"#utility.yul\":4111:4219   */\n      tag_179\n        /* \"#utility.yul\":4214:4218   */\n      dup2\n        /* \"#utility.yul\":4205:4211   */\n      dup5\n        /* \"#utility.yul\":4111:4219   */\n      tag_95\n      jump\t// in\n    tag_179:\n        /* \"#utility.yul\":4103:4219   */\n      swap1\n      pop\n        /* \"#utility.yul\":3853:4226   */\n      swap3\n      swap2\n      pop\n      pop\n      jump\t// out\n        /* \"#utility.yul\":4232:4350   */\n    tag_96:\n        /* \"#utility.yul\":4319:4343   */\n      tag_181\n        /* \"#utility.yul\":4337:4342   */\n      dup2\n        /* \"#utility.yul\":4319:4343   */\n      tag_86\n      jump\t// in\n    tag_181:\n        /* \"#utility.yul\":4314:4317   */\n      dup3\n        /* \"#utility.yul\":4307:4344   */\n      mstore\n        /* \"#utility.yul\":4232:4350   */\n      pop\n      pop\n      jump\t// out\n        /* \"#utility.yul\":4356:4578   */\n    tag_27:\n        /* \"#utility.yul\":4449:4453   */\n      0x00\n        /* \"#utility.yul\":4487:4489   */\n      0x20\n        /* \"#utility.yul\":4476:4485   */\n      dup3\n        /* \"#utility.yul\":4472:4490   */\n      add\n        /* \"#utility.yul\":4464:4490   */\n      swap1\n      pop\n        /* \"#utility.yul\":4500:4571   */\n      tag_183\n        /* \"#utility.yul\":4568:4569   */\n      0x00\n        /* \"#utility.yul\":4557:4566   */\n      dup4\n        /* \"#utility.yul\":4553:4570   */\n      add\n        /* \"#utility.yul\":4544:4550   */\n      dup5\n        /* \"#utility.yul\":4500:4571   */\n      tag_96\n      jump\t// in\n    tag_183:\n        /* \"#utility.yul\":4356:4578   */\n      swap3\n      swap2\n      pop\n      pop\n      jump\t// out\n        /* \"#utility.yul\":4584:4701   */\n    tag_97:\n        /* \"#utility.yul\":4693:4694   */\n      0x00\n        /* \"#utility.yul\":4690:4691   */\n      dup1\n        /* \"#utility.yul\":4683:4695   */\n      revert\n        /* \"#utility.yul\":4707:4824   */\n    tag_98:\n        /* \"#utility.yul\":4816:4817   */\n      0x00\n        /* \"#utility.yul\":4813:4814   */\n      dup1\n        /* \"#utility.yul\":4806:4818   */\n      revert\n        /* \"#utility.yul\":4830:4932   */\n    tag_99:\n        /* \"#utility.yul\":4871:4877   */\n      0x00\n        /* \"#utility.yul\":4922:4924   */\n      0x1f\n        /* \"#utility.yul\":4918:4925   */\n      not\n        /* \"#utility.yul\":4913:4915   */\n      0x1f\n        /* \"#utility.yul\":4906:4911   */\n      dup4\n        /* \"#utility.yul\":4902:4916   */\n      add\n        /* \"#utility.yul\":4898:4926   */\n      and\n        /* \"#utility.yul\":4888:4926   */\n      swap1\n      pop\n        /* \"#utility.yul\":4830:4932   */\n      swap2\n      swap1\n      pop\n      jump\t// out\n        /* \"#utility.yul\":4938:5118   */\n    tag_42:\n        /* \"#utility.yul\":4986:5063   */\n      0x4e487b7100000000000000000000000000000000000000000000000000000000\n        /* \"#utility.yul\":4983:4984   */\n      0x00\n        /* \"#utility.yul\":4976:5064   */\n      mstore\n        /* \"#utility.yul\":5083:5087   */\n      0x41\n        /* \"#utility.yul\":5080:5081   */\n      0x04\n        /* \"#utility.yul\":5073:5088   */\n      mstore\n        /* \"#utility.yul\":5107:5111   */\n      0x24\n        /* \"#utility.yul\":5104:5105   */\n      0x00\n        /* \"#utility.yul\":5097:5112   */\n      revert\n        /* \"#utility.yul\":5124:5405   */\n    tag_100:\n        /* \"#utility.yul\":5207:5234   */\n      tag_189\n        /* \"#utility.yul\":5229:5233   */\n      dup3\n        /* \"#utility.yul\":5207:5234   */\n      tag_99\n      jump\t// in\n    tag_189:\n        /* \"#utility.yul\":5199:5205   */\n      dup2\n        /* \"#utility.yul\":5195:5235   */\n      add\n        /* \"#utility.yul\":5337:5343   */\n      dup2\n        /* \"#utility.yul\":5325:5335   */\n      dup2\n        /* \"#utility.yul\":5322:5344   */\n      lt\n        /* \"#utility.yul\":5301:5319   */\n      0xffffffffffffffff\n        /* \"#utility.yul\":5289:5299   */\n      dup3\n        /* \"#utility.yul\":5286:5320   */\n      gt\n        /* \"#utility.yul\":5283:5345   */\n      or\n        /* \"#utility.yul\":5280:5368   */\n      iszero\n      tag_190\n      jumpi\n        /* \"#utility.yul\":5348:5366   */\n      tag_191\n      tag_42\n      jump\t// in\n    tag_191:\n        /* \"#utility.yul\":5280:5368   */\n    tag_190:\n        /* \"#utility.yul\":5388:5398   */\n      dup1\n        /* \"#utility.yul\":5384:5386   */\n      0x40\n        /* \"#utility.yul\":5377:5399   */\n      mstore\n        /* \"#utility.yul\":5167:5405   */\n      pop\n        /* \"#utility.yul\":5124:5405   */\n      pop\n      pop\n      jump\t// out\n        /* \"#utility.yul\":5411:5540   */\n    tag_101:\n        /* \"#utility.yul\":5445:5451   */\n      0x00\n        /* \"#utility.yul\":5472:5492   */\n      tag_193\n      tag_80\n      jump\t// in\n    tag_193:\n        /* \"#utility.yul\":5462:5492   */\n      swap1\n      pop\n        /* \"#utility.yul\":5501:5534   */\n      tag_194\n        /* \"#utility.yul\":5529:5533   */\n      dup3\n        /* \"#utility.yul\":5521:5527   */\n      dup3\n        /* \"#utility.yul\":5501:5534   */\n      tag_100\n      jump\t// in\n    tag_194:\n        /* \"#utility.yul\":5411:5540   */\n      swap2\n      swap1\n      pop\n      jump\t// out\n        /* \"#utility.yul\":5546:5854   */\n    tag_102:\n        /* \"#utility.yul\":5608:5612   */\n      0x00\n        /* \"#utility.yul\":5698:5716   */\n      0xffffffffffffffff\n        /* \"#utility.yul\":5690:5696   */\n      dup3\n        /* \"#utility.yul\":5687:5717   */\n      gt\n        /* \"#utility.yul\":5684:5740   */\n      iszero\n      tag_196\n      jumpi\n        /* \"#utility.yul\":5720:5738   */\n      tag_197\n      tag_42\n      jump\t// in\n    tag_197:\n        /* \"#utility.yul\":5684:5740   */\n    tag_196:\n        /* \"#utility.yul\":5758:5787   */\n      tag_198\n        /* \"#utility.yul\":5780:5786   */\n      dup3\n        /* \"#utility.yul\":5758:5787   */\n      tag_99\n      jump\t// in\n    tag_198:\n        /* \"#utility.yul\":5750:5787   */\n      swap1\n      pop\n        /* \"#utility.yul\":5842:5846   */\n      0x20\n        /* \"#utility.yul\":5836:5840   */\n      dup2\n        /* \"#utility.yul\":5832:5847   */\n      add\n        /* \"#utility.yul\":5824:5847   */\n      swap1\n      pop\n        /* \"#utility.yul\":5546:5854   */\n      swap2\n      swap1\n      pop\n      jump\t// out\n        /* \"#utility.yul\":5860:6006   */\n    tag_103:\n        /* \"#utility.yul\":5957:5963   */\n      dup3\n        /* \"#utility.yul\":5952:5955   */\n      dup2\n        /* \"#utility.yul\":5947:5950   */\n      dup4\n        /* \"#utility.yul\":5934:5964   */\n      calldatacopy\n        /* \"#utility.yul\":5998:5999   */\n      0x00\n        /* \"#utility.yul\":5989:5995   */\n      dup4\n        /* \"#utility.yul\":5984:5987   */\n      dup4\n        /* \"#utility.yul\":5980:5996   */\n      add\n        /* \"#utility.yul\":5973:6000   */\n      mstore\n        /* \"#utility.yul\":5860:6006   */\n      pop\n      pop\n      pop\n      jump\t// out\n        /* \"#utility.yul\":6012:6437   */\n    tag_104:\n        /* \"#utility.yul\":6090:6095   */\n      0x00\n        /* \"#utility.yul\":6115:6181   */\n      tag_201\n        /* \"#utility.yul\":6131:6180   */\n      tag_202\n        /* \"#utility.yul\":6173:6179   */\n      dup5\n        /* \"#utility.yul\":6131:6180   */\n      tag_102\n      jump\t// in\n    tag_202:\n        /* \"#utility.yul\":6115:6181   */\n      tag_101\n      jump\t// in\n    tag_201:\n        /* \"#utility.yul\":6106:6181   */\n      swap1\n      pop\n        /* \"#utility.yul\":6204:6210   */\n      dup3\n        /* \"#utility.yul\":6197:6202   */\n      dup2\n        /* \"#utility.yul\":6190:6211   */\n      mstore\n        /* \"#utility.yul\":6242:6246   */\n      0x20\n        /* \"#utility.yul\":6235:6240   */\n      dup2\n        /* \"#utility.yul\":6231:6247   */\n      add\n        /* \"#utility.yul\":6280:6283   */\n      dup5\n        /* \"#utility.yul\":6271:6277   */\n      dup5\n        /* \"#utility.yul\":6266:6269   */\n      dup5\n        /* \"#utility.yul\":6262:6278   */\n      add\n        /* \"#utility.yul\":6259:6284   */\n      gt\n        /* \"#utility.yul\":6256:6368   */\n      iszero\n      tag_203\n      jumpi\n        /* \"#utility.yul\":6287:6366   */\n      tag_204\n      tag_98\n      jump\t// in\n    tag_204:\n        /* \"#utility.yul\":6256:6368   */\n    tag_203:\n        /* \"#utility.yul\":6377:6431   */\n      tag_205\n        /* \"#utility.yul\":6424:6430   */\n      dup5\n        /* \"#utility.yul\":6419:6422   */\n      dup3\n        /* \"#utility.yul\":6414:6417   */\n      dup6\n        /* \"#utility.yul\":6377:6431   */\n      tag_103\n      jump\t// in\n    tag_205:\n        /* \"#utility.yul\":6096:6437   */\n      pop\n        /* \"#utility.yul\":6012:6437   */\n      swap4\n      swap3\n      pop\n      pop\n      pop\n      jump\t// out\n        /* \"#utility.yul\":6457:6797   */\n    tag_105:\n        /* \"#utility.yul\":6513:6518   */\n      0x00\n        /* \"#utility.yul\":6562:6565   */\n      dup3\n        /* \"#utility.yul\":6555:6559   */\n      0x1f\n        /* \"#utility.yul\":6547:6553   */\n      dup4\n        /* \"#utility.yul\":6543:6560   */\n      add\n        /* \"#utility.yul\":6539:6566   */\n      slt\n        /* \"#utility.yul\":6529:6651   */\n      tag_207\n      jumpi\n        /* \"#utility.yul\":6570:6649   */\n      tag_208\n      tag_97\n      jump\t// in\n    tag_208:\n        /* \"#utility.yul\":6529:6651   */\n    tag_207:\n        /* \"#utility.yul\":6687:6693   */\n      dup2\n        /* \"#utility.yul\":6674:6694   */\n      calldataload\n        /* \"#utility.yul\":6712:6791   */\n      tag_209\n        /* \"#utility.yul\":6787:6790   */\n      dup5\n        /* \"#utility.yul\":6779:6785   */\n      dup3\n        /* \"#utility.yul\":6772:6776   */\n      0x20\n        /* \"#utility.yul\":6764:6770   */\n      dup7\n        /* \"#utility.yul\":6760:6777   */\n      add\n        /* \"#utility.yul\":6712:6791   */\n      tag_104\n      jump\t// in\n    tag_209:\n        /* \"#utility.yul\":6703:6791   */\n      swap2\n      pop\n        /* \"#utility.yul\":6519:6797   */\n      pop\n        /* \"#utility.yul\":6457:6797   */\n      swap3\n      swap2\n      pop\n      pop\n      jump\t// out\n        /* \"#utility.yul\":6803:7312   */\n    tag_34:\n        /* \"#utility.yul\":6872:6878   */\n      0x00\n        /* \"#utility.yul\":6921:6923   */\n      0x20\n        /* \"#utility.yul\":6909:6918   */\n      dup3\n        /* \"#utility.yul\":6900:6907   */\n      dup5\n        /* \"#utility.yul\":6896:6919   */\n      sub\n        /* \"#utility.yul\":6892:6924   */\n      slt\n        /* \"#utility.yul\":6889:7008   */\n      iszero\n      tag_211\n      jumpi\n        /* \"#utility.yul\":6927:7006   */\n      tag_212\n      tag_81\n      jump\t// in\n    tag_212:\n        /* \"#utility.yul\":6889:7008   */\n    tag_211:\n        /* \"#utility.yul\":7075:7076   */\n      0x00\n        /* \"#utility.yul\":7064:7073   */\n      dup3\n        /* \"#utility.yul\":7060:7077   */\n      add\n        /* \"#utility.yul\":7047:7078   */\n      calldataload\n        /* \"#utility.yul\":7105:7123   */\n      0xffffffffffffffff\n        /* \"#utility.yul\":7097:7103   */\n      dup2\n        /* \"#utility.yul\":7094:7124   */\n      gt\n        /* \"#utility.yul\":7091:7208   */\n      iszero\n      tag_213\n      jumpi\n        /* \"#utility.yul\":7127:7206   */\n      tag_214\n      tag_82\n      jump\t// in\n    tag_214:\n        /* \"#utility.yul\":7091:7208   */\n    tag_213:\n        /* \"#utility.yul\":7232:7295   */\n      tag_215\n        /* \"#utility.yul\":7287:7294   */\n      dup5\n        /* \"#utility.yul\":7278:7284   */\n      dup3\n        /* \"#utility.yul\":7267:7276   */\n      dup6\n        /* \"#utility.yul\":7263:7285   */\n      add\n        /* \"#utility.yul\":7232:7295   */\n      tag_105\n      jump\t// in\n    tag_215:\n        /* \"#utility.yul\":7222:7295   */\n      swap2\n      pop\n        /* \"#utility.yul\":7018:7305   */\n      pop\n        /* \"#utility.yul\":6803:7312   */\n      swap3\n      swap2\n      pop\n      pop\n      jump\t// out\n        /* \"#utility.yul\":7318:7498   */\n    tag_106:\n        /* \"#utility.yul\":7366:7443   */\n      0x4e487b7100000000000000000000000000000000000000000000000000000000\n        /* \"#utility.yul\":7363:7364   */\n      0x00\n        /* \"#utility.yul\":7356:7444   */\n      mstore\n        /* \"#utility.yul\":7463:7467   */\n      0x11\n        /* \"#utility.yul\":7460:7461   */\n      0x04\n        /* \"#utility.yul\":7453:7468   */\n      mstore\n        /* \"#utility.yul\":7487:7491   */\n      0x24\n        /* \"#utility.yul\":7484:7485   */\n      0x00\n        /* \"#utility.yul\":7477:7492   */\n      revert\n        /* \"#utility.yul\":7504:7695   */\n    tag_38:\n        /* \"#utility.yul\":7544:7547   */\n      0x00\n        /* \"#utility.yul\":7563:7583   */\n      tag_218\n        /* \"#utility.yul\":7581:7582   */\n      dup3\n        /* \"#utility.yul\":7563:7583   */\n      tag_78\n      jump\t// in\n    tag_218:\n        /* \"#utility.yul\":7558:7583   */\n      swap2\n      pop\n        /* \"#utility.yul\":7597:7617   */\n      tag_219\n        /* \"#utility.yul\":7615:7616   */\n      dup4\n        /* \"#utility.yul\":7597:7617   */\n      tag_78\n      jump\t// in\n    tag_219:\n        /* \"#utility.yul\":7592:7617   */\n      swap3\n      pop\n        /* \"#utility.yul\":7640:7641   */\n      dup3\n        /* \"#utility.yul\":7637:7638   */\n      dup3\n        /* \"#utility.yul\":7633:7642   */\n      add\n        /* \"#utility.yul\":7626:7642   */\n      swap1\n      pop\n        /* \"#utility.yul\":7661:7664   */\n      dup1\n        /* \"#utility.yul\":7658:7659   */\n      dup3\n        /* \"#utility.yul\":7655:7665   */\n      gt\n        /* \"#utility.yul\":7652:7688   */\n      iszero\n      tag_220\n      jumpi\n        /* \"#utility.yul\":7668:7686   */\n      tag_221\n      tag_106\n      jump\t// in\n    tag_221:\n        /* \"#utility.yul\":7652:7688   */\n    tag_220:\n        /* \"#utility.yul\":7504:7695   */\n      swap3\n      swap2\n      pop\n      pop\n      jump\t// out\n        /* \"#utility.yul\":7701:7881   */\n    tag_49:\n        /* \"#utility.yul\":7749:7826   */\n      0x4e487b7100000000000000000000000000000000000000000000000000000000\n        /* \"#utility.yul\":7746:7747   */\n      0x00\n        /* \"#utility.yul\":7739:7827   */\n      mstore\n        /* \"#utility.yul\":7846:7850   */\n      0x32\n        /* \"#utility.yul\":7843:7844   */\n      0x04\n        /* \"#utility.yul\":7836:7851   */\n      mstore\n        /* \"#utility.yul\":7870:7874   */\n      0x24\n        /* \"#utility.yul\":7867:7868   */\n      0x00\n        /* \"#utility.yul\":7860:7875   */\n      revert\n        /* \"#utility.yul\":7887:8120   */\n    tag_59:\n        /* \"#utility.yul\":7926:7929   */\n      0x00\n        /* \"#utility.yul\":7949:7973   */\n      tag_224\n        /* \"#utility.yul\":7967:7972   */\n      dup3\n        /* \"#utility.yul\":7949:7973   */\n      tag_78\n      jump\t// in\n    tag_224:\n        /* \"#utility.yul\":7940:7973   */\n      swap2\n      pop\n        /* \"#utility.yul\":7995:8061   */\n      0xffffffffffffffffffffffffffffffffffffffffffffffffffffffffffffffff\n        /* \"#utility.yul\":7988:7993   */\n      dup3\n        /* \"#utility.yul\":7985:8062   */\n      sub\n        /* \"#utility.yul\":7982:8085   */\n      tag_225\n      jumpi\n        /* \"#utility.yul\":8065:8083   */\n      tag_226\n      tag_106\n      jump\t// in\n    tag_226:\n        /* \"#utility.yul\":7982:8085   */\n    tag_225:\n        /* \"#utility.yul\":8112:8113   */\n      0x01\n        /* \"#utility.yul\":8105:8110   */\n      dup3\n        /* \"#utility.yul\":8101:8114   */\n      add\n        /* \"#utility.yul\":8094:8114   */\n      swap1\n      pop\n        /* \"#utility.yul\":7887:8120   */\n      swap2\n      swap1\n      pop\n      jump\t// out\n        /* \"#utility.yul\":8126:8225   */\n    tag_107:\n        /* \"#utility.yul\":8178:8184   */\n      0x00\n        /* \"#utility.yul\":8212:8217   */\n      dup2\n        /* \"#utility.yul\":8206:8218   */\n      mload\n        /* \"#utility.yul\":8196:8218   */\n      swap1\n      pop\n        /* \"#utility.yul\":8126:8225   */\n      swap2\n      swap1\n      pop\n      jump\t// out\n        /* \"#utility.yul\":8231:8379   */\n    tag_108:\n        /* \"#utility.yul\":8333:8344   */\n      0x00\n        /* \"#utility.yul\":8370:8373   */\n      dup2\n        /* \"#utility.yul\":8355:8373   */\n      swap1\n      pop\n        /* \"#utility.yul\":8231:8379   */\n      swap3\n      swap2\n      pop\n      pop\n      jump\t// out\n        /* \"#utility.yul\":8385:8631   */\n    tag_109:\n        /* \"#utility.yul\":8466:8467   */\n      0x00\n        /* \"#utility.yul\":8476:8589   */\n    tag_230:\n        /* \"#utility.yul\":8490:8496   */\n      dup4\n        /* \"#utility.yul\":8487:8488   */\n      dup2\n        /* \"#utility.yul\":8484:8497   */\n      lt\n        /* \"#utility.yul\":8476:8589   */\n      iszero\n      tag_232\n      jumpi\n        /* \"#utility.yul\":8575:8576   */\n      dup1\n        /* \"#utility.yul\":8570:8573   */\n      dup3\n        /* \"#utility.yul\":8566:8577   */\n      add\n        /* \"#utility.yul\":8560:8578   */\n      mload\n        /* \"#utility.yul\":8556:8557   */\n      dup2\n        /* \"#utility.yul\":8551:8554   */\n      dup5\n        /* \"#utility.yul\":8547:8558   */\n      add\n        /* \"#utility.yul\":8540:8579   */\n      mstore\n        /* \"#utility.yul\":8512:8514   */\n      0x20\n        /* \"#utility.yul\":8509:8510   */\n      dup2\n        /* \"#utility.yul\":8505:8515   */\n      add\n        /* \"#utility.yul\":8500:8515   */\n      swap1\n      pop\n        /* \"#utility.yul\":8476:8589   */\n      jump(tag_230)\n    tag_232:\n        /* \"#utility.yul\":8623:8624   */\n      0x00\n        /* \"#utility.yul\":8614:8620   */\n      dup5\n        /* \"#utility.yul\":8609:8612   */\n      dup5\n        /* \"#utility.yul\":8605:8621   */\n      add\n        /* \"#utility.yul\":8598:8625   */\n      mstore\n        /* \"#utility.yul\":8447:8631   */\n      pop\n        /* \"#utility.yul\":8385:8631   */\n      pop\n      pop\n      pop\n      jump\t// out\n        /* \"#utility.yul\":8637:9027   */\n    tag_110:\n        /* \"#utility.yul\":8743:8746   */\n      0x00\n        /* \"#utility.yul\":8771:8810   */\n      tag_234\n        /* \"#utility.yul\":8804:8809   */\n      dup3\n        /* \"#utility.yul\":8771:8810   */\n      tag_107\n      jump\t// in\n    tag_234:\n        /* \"#utility.yul\":8826:8915   */\n      tag_235\n        /* \"#utility.yul\":8908:8914   */\n      dup2\n        /* \"#utility.yul\":8903:8906   */\n      dup6\n        /* \"#utility.yul\":8826:8915   */\n      tag_108\n      jump\t// in\n    tag_235:\n        /* \"#utility.yul\":8819:8915   */\n      swap4\n      pop\n        /* \"#utility.yul\":8924:8989   */\n      tag_236\n        /* \"#utility.yul\":8982:8988   */\n      dup2\n        /* \"#utility.yul\":8977:8980   */\n      dup6\n        /* \"#utility.yul\":8970:8974   */\n      0x20\n        /* \"#utility.yul\":8963:8968   */\n      dup7\n        /* \"#utility.yul\":8959:8975   */\n      add\n        /* \"#utility.yul\":8924:8989   */\n      tag_109\n      jump\t// in\n    tag_236:\n        /* \"#utility.yul\":9014:9020   */\n      dup1\n        /* \"#utility.yul\":9009:9012   */\n      dup5\n        /* \"#utility.yul\":9005:9021   */\n      add\n        /* \"#utility.yul\":8998:9021   */\n      swap2\n      pop\n        /* \"#utility.yul\":8747:9027   */\n      pop\n        /* \"#utility.yul\":8637:9027   */\n      swap3\n      swap2\n      pop\n      pop\n      jump\t// out\n        /* \"#utility.yul\":9033:9308   */\n    tag_67:\n        /* \"#utility.yul\":9165:9168   */\n      0x00\n        /* \"#utility.yul\":9187:9282   */\n      tag_238\n        /* \"#utility.yul\":9278:9281   */\n      dup3\n        /* \"#utility.yul\":9269:9275   */\n      dup5\n        /* \"#utility.yul\":9187:9282   */\n      tag_110\n      jump\t// in\n    tag_238:\n        /* \"#utility.yul\":9180:9282   */\n      swap2\n      pop\n        /* \"#utility.yul\":9299:9302   */\n      dup2\n        /* \"#utility.yul\":9292:9302   */\n      swap1\n      pop\n        /* \"#utility.yul\":9033:9308   */\n      swap3\n      swap2\n      pop\n      pop\n      jump\t// out\n        /* \"#utility.yul\":9314:9494   */\n    tag_111:\n        /* \"#utility.yul\":9362:9439   */\n      0x4e487b7100000000000000000000000000000000000000000000000000000000\n        /* \"#utility.yul\":9359:9360   */\n      0x00\n        /* \"#utility.yul\":9352:9440   */\n      mstore\n        /* \"#utility.yul\":9459:9463   */\n      0x12\n        /* \"#utility.yul\":9456:9457   */\n      0x04\n        /* \"#utility.yul\":9449:9464   */\n      mstore\n        /* \"#utility.yul\":9483:9487   */\n      0x24\n        /* \"#utility.yul\":9480:9481   */\n      0x00\n        /* \"#utility.yul\":9473:9488   */\n      revert\n        /* \"#utility.yul\":9500:9676   */\n    tag_69:\n        /* \"#utility.yul\":9532:9533   */\n      0x00\n        /* \"#utility.yul\":9549:9569   */\n      tag_241\n        /* \"#utility.yul\":9567:9568   */\n      dup3\n        /* \"#utility.yul\":9549:9569   */\n      tag_78\n      jump\t// in\n    tag_241:\n        /* \"#utility.yul\":9544:9569   */\n      swap2\n      pop\n        /* \"#utility.yul\":9583:9603   */\n      tag_242\n        /* \"#utility.yul\":9601:9602   */\n      dup4\n        /* \"#utility.yul\":9583:9603   */\n      tag_78\n      jump\t// in\n    tag_242:\n        /* \"#utility.yul\":9578:9603   */\n      swap3\n      pop\n        /* \"#utility.yul\":9622:9623   */\n      dup3\n        /* \"#utility.yul\":9612:9647   */\n      tag_243\n      jumpi\n        /* \"#utility.yul\":9627:9645   */\n      tag_244\n      tag_111\n      jump\t// in\n    tag_244:\n        /* \"#utility.yul\":9612:9647   */\n    tag_243:\n        /* \"#utility.yul\":9668:9669   */\n      dup3\n        /* \"#utility.yul\":9665:9666   */\n      dup3\n        /* \"#utility.yul\":9661:9670   */\n      mod\n        /* \"#utility.yul\":9656:9670   */\n      swap1\n      pop\n        /* \"#utility.yul\":9500:9676   */\n      swap3\n      swap2\n      pop\n      pop\n      jump\t// out\n        /* \"#utility.yul\":9682:9862   */\n    tag_112:\n        /* \"#utility.yul\":9730:9807   */\n      0x4e487b7100000000000000000000000000000000000000000000000000000000\n        /* \"#utility.yul\":9727:9728   */\n      0x00\n        /* \"#utility.yul\":9720:9808   */\n      mstore\n        /* \"#utility.yul\":9827:9831   */\n      0x22\n        /* \"#utility.yul\":9824:9825   */\n      0x04\n        /* \"#utility.yul\":9817:9832   */\n      mstore\n        /* \"#utility.yul\":9851:9855   */\n      0x24\n        /* \"#utility.yul\":9848:9849   */\n      0x00\n        /* \"#utility.yul\":9841:9856   */\n      revert\n        /* \"#utility.yul\":9868:10188   */\n    tag_113:\n        /* \"#utility.yul\":9912:9918   */\n      0x00\n        /* \"#utility.yul\":9949:9950   */\n      0x02\n        /* \"#utility.yul\":9943:9947   */\n      dup3\n        /* \"#utility.yul\":9939:9951   */\n      div\n        /* \"#utility.yul\":9929:9951   */\n      swap1\n      pop\n        /* \"#utility.yul\":9996:9997   */\n      0x01\n        /* \"#utility.yul\":9990:9994   */\n      dup3\n        /* \"#utility.yul\":9986:9998   */\n      and\n        /* \"#utility.yul\":10017:10035   */\n      dup1\n        /* \"#utility.yul\":10007:10088   */\n      tag_247\n      jumpi\n        /* \"#utility.yul\":10073:10077   */\n      0x7f\n        /* \"#utility.yul\":10065:10071   */\n      dup3\n        /* \"#utility.yul\":10061:10078   */\n      and\n        /* \"#utility.yul\":10051:10078   */\n      swap2\n      pop\n        /* \"#utility.yul\":10007:10088   */\n    tag_247:\n        /* \"#utility.yul\":10135:10137   */\n      0x20\n        /* \"#utility.yul\":10127:10133   */\n      dup3\n        /* \"#utility.yul\":10124:10138   */\n      lt\n        /* \"#utility.yul\":10104:10122   */\n      dup2\n        /* \"#utility.yul\":10101:10139   */\n      sub\n        /* \"#utility.yul\":10098:10182   */\n      tag_248\n      jumpi\n        /* \"#utility.yul\":10154:10172   */\n      tag_249\n      tag_112\n      jump\t// in\n    tag_249:\n        /* \"#utility.yul\":10098:10182   */\n    tag_248:\n        /* \"#utility.yul\":9919:10188   */\n      pop\n        /* \"#utility.yul\":9868:10188   */\n      swap2\n      swap1\n      pop\n      jump\t// out\n        /* \"#utility.yul\":10194:10335   */\n    tag_114:\n        /* \"#utility.yul\":10243:10247   */\n      0x00\n        /* \"#utility.yul\":10266:10269   */\n      dup2\n        /* \"#utility.yul\":10258:10269   */\n      swap1\n      pop\n        /* \"#utility.yul\":10289:10292   */\n      dup2\n        /* \"#utility.yul\":10286:10287   */\n      0x00\n        /* \"#utility.yul\":10279:10293   */\n      mstore\n        /* \"#utility.yul\":10323:10327   */\n      0x20\n        /* \"#utility.yul\":10320:10321   */\n      0x00\n        /* \"#utility.yul\":10310:10328   */\n      keccak256\n        /* \"#utility.yul\":10302:10328   */\n      swap1\n      pop\n        /* \"#utility.yul\":10194:10335   */\n      swap2\n      swap1\n      pop\n      jump\t// out\n        /* \"#utility.yul\":10341:10434   */\n    tag_115:\n        /* \"#utility.yul\":10378:10384   */\n      0x00\n        /* \"#utility.yul\":10425:10427   */\n      0x20\n        /* \"#utility.yul\":10420:10422   */\n      0x1f\n        /* \"#utility.yul\":10413:10418   */\n      dup4\n        /* \"#utility.yul\":10409:10423   */\n      add\n        /* \"#utility.yul\":10405:10428   */\n      div\n        /* \"#utility.yul\":10395:10428   */\n      swap1\n      pop\n        /* \"#utility.yul\":10341:10434   */\n      swap2\n      swap1\n      pop\n      jump\t// out\n        /* \"#utility.yul\":10440:10547   */\n    tag_116:\n        /* \"#utility.yul\":10484:10492   */\n      0x00\n        /* \"#utility.yul\":10534:10539   */\n      dup3\n        /* \"#utility.yul\":10528:10532   */\n      dup3\n        /* \"#utility.yul\":10524:10540   */\n      shl\n        /* \"#utility.yul\":10503:10540   */\n      swap1\n      pop\n        /* \"#utility.yul\":10440:10547   */\n      swap3\n      swap2\n      pop\n      pop\n      jump\t// out\n        /* \"#utility.yul\":10553:10946   */\n    tag_117:\n        /* \"#utility.yul\":10622:10628   */\n      0x00\n        /* \"#utility.yul\":10672:10673   */\n      0x08\n        /* \"#utility.yul\":10660:10670   */\n      dup4\n        /* \"#utility.yul\":10656:10674   */\n      mul\n        /* \"#utility.yul\":10695:10792   */\n      tag_254\n        /* \"#utility.yul\":10725:10791   */\n      0xffffffffffffffffffffffffffffffffffffffffffffffffffffffffffffffff\n        /* \"#utility.yul\":10714:10723   */\n      dup3\n        /* \"#utility.yul\":10695:10792   */\n      tag_116\n      jump\t// in\n    tag_254:\n        /* \"#utility.yul\":10813:10852   */\n      tag_255\n        /* \"#utility.yul\":10843:10851   */\n      dup7\n        /* \"#utility.yul\":10832:10841   */\n      dup4\n        /* \"#utility.yul\":10813:10852   */\n      tag_116\n      jump\t// in\n    tag_255:\n        /* \"#utility.yul\":10801:10852   */\n      swap6\n      pop\n        /* \"#utility.yul\":10885:10889   */\n      dup1\n        /* \"#utility.yul\":10881:10890   */\n      not\n        /* \"#utility.yul\":10874:10879   */\n      dup5\n        /* \"#utility.yul\":10870:10891   */\n      and\n        /* \"#utility.yul\":10861:10891   */\n      swap4\n      pop\n        /* \"#utility.yul\":10934:10938   */\n      dup1\n        /* \"#utility.yul\":10924:10932   */\n      dup7\n        /* \"#utility.yul\":10920:10939   */\n      and\n        /* \"#utility.yul\":10913:10918   */\n      dup5\n        /* \"#utility.yul\":10910:10940   */\n      or\n        /* \"#utility.yul\":10900:10940   */\n      swap3\n      pop\n        /* \"#utility.yul\":10629:10946   */\n      pop\n      pop\n        /* \"#utility.yul\":10553:10946   */\n      swap4\n      swap3\n      pop\n      pop\n      pop\n      jump\t// out\n        /* \"#utility.yul\":10952:11012   */\n    tag_118:\n        /* \"#utility.yul\":10980:10983   */\n      0x00\n        /* \"#utility.yul\":11001:11006   */\n      dup2\n        /* \"#utility.yul\":10994:11006   */\n      swap1\n      pop\n        /* \"#utility.yul\":10952:11012   */\n      swap2\n      swap1\n      pop\n      jump\t// out\n        /* \"#utility.yul\":11018:11160   */\n    tag_119:\n        /* \"#utility.yul\":11068:11077   */\n      0x00\n        /* \"#utility.yul\":11101:11154   */\n      tag_258\n        /* \"#utility.yul\":11119:11153   */\n      tag_259\n        /* \"#utility.yul\":11128:11152   */\n      tag_260\n        /* \"#utility.yul\":11146:11151   */\n      dup5\n        /* \"#utility.yul\":11128:11152   */\n      tag_78\n      jump\t// in\n    tag_260:\n        /* \"#utility.yul\":11119:11153   */\n      tag_118\n      jump\t// in\n    tag_259:\n        /* \"#utility.yul\":11101:11154   */\n      tag_78\n      jump\t// in\n    tag_258:\n        /* \"#utility.yul\":11088:11154   */\n      swap1\n      pop\n        /* \"#utility.yul\":11018:11160   */\n      swap2\n      swap1\n      pop\n      jump\t// out\n        /* \"#utility.yul\":11166:11241   */\n    tag_120:\n        /* \"#utility.yul\":11209:11212   */\n      0x00\n        /* \"#utility.yul\":11230:11235   */\n      dup2\n        /* \"#utility.yul\":11223:11235   */\n      swap1\n      pop\n        /* \"#utility.yul\":11166:11241   */\n      swap2\n      swap1\n      pop\n      jump\t// out\n        /* \"#utility.yul\":11247:11516   */\n    tag_121:\n        /* \"#utility.yul\":11357:11396   */\n      tag_263\n        /* \"#utility.yul\":11388:11395   */\n      dup4\n        /* \"#utility.yul\":11357:11396   */\n      tag_119\n      jump\t// in\n    tag_263:\n        /* \"#utility.yul\":11418:11509   */\n      tag_264\n        /* \"#utility.yul\":11467:11508   */\n      tag_265\n        /* \"#utility.yul\":11491:11507   */\n      dup3\n        /* \"#utility.yul\":11467:11508   */\n      tag_120\n      jump\t// in\n    tag_265:\n        /* \"#utility.yul\":11459:11465   */\n      dup5\n        /* \"#utility.yul\":11452:11456   */\n      dup5\n        /* \"#utility.yul\":11446:11457   */\n      sload\n        /* \"#utility.yul\":11418:11509   */\n      tag_117\n      jump\t// in\n    tag_264:\n        /* \"#utility.yul\":11412:11416   */\n      dup3\n        /* \"#utility.yul\":11405:11510   */\n      sstore\n        /* \"#utility.yul\":11323:11516   */\n      pop\n        /* \"#utility.yul\":11247:11516   */\n      pop\n      pop\n      pop\n      jump\t// out\n        /* \"#utility.yul\":11522:11595   */\n    tag_122:\n        /* \"#utility.yul\":11567:11570   */\n      0x00\n        /* \"#utility.yul\":11522:11595   */\n      swap1\n      jump\t// out\n        /* \"#utility.yul\":11601:11790   */\n    tag_123:\n        /* \"#utility.yul\":11678:11710   */\n      tag_268\n      tag_122\n      jump\t// in\n    tag_268:\n        /* \"#utility.yul\":11719:11784   */\n      tag_269\n        /* \"#utility.yul\":11777:11783   */\n      dup2\n        /* \"#utility.yul\":11769:11775   */\n      dup5\n        /* \"#utility.yul\":11763:11767   */\n      dup5\n        /* \"#utility.yul\":11719:11784   */\n      tag_121\n      jump\t// in\n    tag_269:\n        /* \"#utility.yul\":11654:11790   */\n      pop\n        /* \"#utility.yul\":11601:11790   */\n      pop\n      pop\n      jump\t// out\n        /* \"#utility.yul\":11796:11982   */\n    tag_124:\n        /* \"#utility.yul\":11856:11976   */\n    tag_271:\n        /* \"#utility.yul\":11873:11876   */\n      dup2\n        /* \"#utility.yul\":11866:11871   */\n      dup2\n        /* \"#utility.yul\":11863:11877   */\n      lt\n        /* \"#utility.yul\":11856:11976   */\n      iszero\n      tag_273\n      jumpi\n        /* \"#utility.yul\":11927:11966   */\n      tag_274\n        /* \"#utility.yul\":11964:11965   */\n      0x00\n        /* \"#utility.yul\":11957:11962   */\n      dup3\n        /* \"#utility.yul\":11927:11966   */\n      tag_123\n      jump\t// in\n    tag_274:\n        /* \"#utility.yul\":11900:11901   */\n      0x01\n        /* \"#utility.yul\":11893:11898   */\n      dup2\n        /* \"#utility.yul\":11889:11902   */\n      add\n        /* \"#utility.yul\":11880:11902   */\n      swap1\n      pop\n        /* \"#utility.yul\":11856:11976   */\n      jump(tag_271)\n    tag_273:\n        /* \"#utility.yul\":11796:11982   */\n      pop\n      pop\n      jump\t// out\n        /* \"#utility.yul\":11988:12531   */\n    tag_125:\n        /* \"#utility.yul\":12089:12091   */\n      0x1f\n        /* \"#utility.yul\":12084:12087   */\n      dup3\n        /* \"#utility.yul\":12081:12092   */\n      gt\n        /* \"#utility.yul\":12078:12524   */\n      iszero\n      tag_276\n      jumpi\n        /* \"#utility.yul\":12123:12161   */\n      tag_277\n        /* \"#utility.yul\":12155:12160   */\n      dup2\n        /* \"#utility.yul\":12123:12161   */\n      tag_114\n      jump\t// in\n    tag_277:\n        /* \"#utility.yul\":12207:12236   */\n      tag_278\n        /* \"#utility.yul\":12225:12235   */\n      dup5\n        /* \"#utility.yul\":12207:12236   */\n      tag_115\n      jump\t// in\n    tag_278:\n        /* \"#utility.yul\":12197:12205   */\n      dup2\n        /* \"#utility.yul\":12193:12237   */\n      add\n        /* \"#utility.yul\":12390:12392   */\n      0x20\n        /* \"#utility.yul\":12378:12388   */\n      dup6\n        /* \"#utility.yul\":12375:12393   */\n      lt\n        /* \"#utility.yul\":12372:12421   */\n      iszero\n      tag_279\n      jumpi\n        /* \"#utility.yul\":12411:12419   */\n      dup2\n        /* \"#utility.yul\":12396:12419   */\n      swap1\n      pop\n        /* \"#utility.yul\":12372:12421   */\n    tag_279:\n        /* \"#utility.yul\":12434:12514   */\n      tag_280\n        /* \"#utility.yul\":12490:12512   */\n      tag_281\n        /* \"#utility.yul\":12508:12511   */\n      dup6\n        /* \"#utility.yul\":12490:12512   */\n      tag_115\n      jump\t// in\n    tag_281:\n        /* \"#utility.yul\":12480:12488   */\n      dup4\n        /* \"#utility.yul\":12476:12513   */\n      add\n        /* \"#utility.yul\":12463:12474   */\n      dup3\n        /* \"#utility.yul\":12434:12514   */\n      tag_124\n      jump\t// in\n    tag_280:\n        /* \"#utility.yul\":12093:12524   */\n      pop\n      pop\n        /* \"#utility.yul\":12078:12524   */\n    tag_276:\n        /* \"#utility.yul\":11988:12531   */\n      pop\n      pop\n      pop\n      jump\t// out\n        /* \"#utility.yul\":12537:12654   */\n    tag_126:\n        /* \"#utility.yul\":12591:12599   */\n      0x00\n        /* \"#utility.yul\":12641:12646   */\n      dup3\n        /* \"#utility.yul\":12635:12639   */\n      dup3\n        /* \"#utility.yul\":12631:12647   */\n      shr\n        /* \"#utility.yul\":12610:12647   */\n      swap1\n      pop\n        /* \"#utility.yul\":12537:12654   */\n      swap3\n      swap2\n      pop\n      pop\n      jump\t// out\n        /* \"#utility.yul\":12660:12829   */\n    tag_127:\n        /* \"#utility.yul\":12704:12710   */\n      0x00\n        /* \"#utility.yul\":12737:12788   */\n      tag_284\n        /* \"#utility.yul\":12785:12786   */\n      0x00\n        /* \"#utility.yul\":12781:12787   */\n      not\n        /* \"#utility.yul\":12773:12778   */\n      dup5\n        /* \"#utility.yul\":12770:12771   */\n      0x08\n        /* \"#utility.yul\":12766:12779   */\n      mul\n        /* \"#utility.yul\":12737:12788   */\n      tag_126\n      jump\t// in\n    tag_284:\n        /* \"#utility.yul\":12733:12789   */\n      not\n        /* \"#utility.yul\":12818:12822   */\n      dup1\n        /* \"#utility.yul\":12812:12816   */\n      dup4\n        /* \"#utility.yul\":12808:12823   */\n      and\n        /* \"#utility.yul\":12798:12823   */\n      swap2\n      pop\n        /* \"#utility.yul\":12711:12829   */\n      pop\n        /* \"#utility.yul\":12660:12829   */\n      swap3\n      swap2\n      pop\n      pop\n      jump\t// out\n        /* \"#utility.yul\":12834:13129   */\n    tag_128:\n        /* \"#utility.yul\":12910:12914   */\n      0x00\n        /* \"#utility.yul\":13056:13085   */\n      tag_286\n        /* \"#utility.yul\":13081:13084   */\n      dup4\n        /* \"#utility.yul\":13075:13079   */\n      dup4\n        /* \"#utility.yul\":13056:13085   */\n      tag_127\n      jump\t// in\n    tag_286:\n        /* \"#utility.yul\":13048:13085   */\n      swap2\n      pop\n        /* \"#utility.yul\":13118:13121   */\n      dup3\n        /* \"#utility.yul\":13115:13116   */\n      0x02\n        /* \"#utility.yul\":13111:13122   */\n      mul\n        /* \"#utility.yul\":13105:13109   */\n      dup3\n        /* \"#utility.yul\":13102:13123   */\n      or\n        /* \"#utility.yul\":13094:13123   */\n      swap1\n      pop\n        /* \"#utility.yul\":12834:13129   */\n      swap3\n      swap2\n      pop\n      pop\n      jump\t// out\n        /* \"#utility.yul\":13134:14529   */\n    tag_73:\n        /* \"#utility.yul\":13251:13288   */\n      tag_288\n        /* \"#utility.yul\":13284:13287   */\n      dup3\n        /* \"#utility.yul\":13251:13288   */\n      tag_107\n      jump\t// in\n    tag_288:\n        /* \"#utility.yul\":13353:13371   */\n      0xffffffffffffffff\n        /* \"#utility.yul\":13345:13351   */\n      dup2\n        /* \"#utility.yul\":13342:13372   */\n      gt\n        /* \"#utility.yul\":13339:13395   */\n      iszero\n      tag_289\n      jumpi\n        /* \"#utility.yul\":13375:13393   */\n      tag_290\n      tag_42\n      jump\t// in\n    tag_290:\n        /* \"#utility.yul\":13339:13395   */\n    tag_289:\n        /* \"#utility.yul\":13419:13457   */\n      tag_291\n        /* \"#utility.yul\":13451:13455   */\n      dup3\n        /* \"#utility.yul\":13445:13456   */\n      sload\n        /* \"#utility.yul\":13419:13457   */\n      tag_113\n      jump\t// in\n    tag_291:\n        /* \"#utility.yul\":13504:13571   */\n      tag_292\n        /* \"#utility.yul\":13564:13570   */\n      dup3\n        /* \"#utility.yul\":13556:13562   */\n      dup3\n        /* \"#utility.yul\":13550:13554   */\n      dup6\n        /* \"#utility.yul\":13504:13571   */\n      tag_125\n      jump\t// in\n    tag_292:\n        /* \"#utility.yul\":13598:13599   */\n      0x00\n        /* \"#utility.yul\":13622:13626   */\n      0x20\n        /* \"#utility.yul\":13609:13626   */\n      swap1\n      pop\n        /* \"#utility.yul\":13654:13656   */\n      0x1f\n        /* \"#utility.yul\":13646:13652   */\n      dup4\n        /* \"#utility.yul\":13643:13657   */\n      gt\n        /* \"#utility.yul\":13671:13672   */\n      0x01\n        /* \"#utility.yul\":13666:14284   */\n      dup2\n      eq\n      tag_294\n      jumpi\n        /* \"#utility.yul\":14328:14329   */\n      0x00\n        /* \"#utility.yul\":14345:14351   */\n      dup5\n        /* \"#utility.yul\":14342:14419   */\n      iszero\n      tag_295\n      jumpi\n        /* \"#utility.yul\":14394:14403   */\n      dup3\n        /* \"#utility.yul\":14389:14392   */\n      dup8\n        /* \"#utility.yul\":14385:14404   */\n      add\n        /* \"#utility.yul\":14379:14405   */\n      mload\n        /* \"#utility.yul\":14370:14405   */\n      swap1\n      pop\n        /* \"#utility.yul\":14342:14419   */\n    tag_295:\n        /* \"#utility.yul\":14445:14512   */\n      tag_296\n        /* \"#utility.yul\":14505:14511   */\n      dup6\n        /* \"#utility.yul\":14498:14503   */\n      dup3\n        /* \"#utility.yul\":14445:14512   */\n      tag_128\n      jump\t// in\n    tag_296:\n        /* \"#utility.yul\":14439:14443   */\n      dup7\n        /* \"#utility.yul\":14432:14513   */\n      sstore\n        /* \"#utility.yul\":14301:14523   */\n      pop\n        /* \"#utility.yul\":13636:14523   */\n      jump(tag_293)\n        /* \"#utility.yul\":13666:14284   */\n    tag_294:\n        /* \"#utility.yul\":13718:13722   */\n      0x1f\n        /* \"#utility.yul\":13714:13723   */\n      not\n        /* \"#utility.yul\":13706:13712   */\n      dup5\n        /* \"#utility.yul\":13702:13724   */\n      and\n        /* \"#utility.yul\":13752:13789   */\n      tag_297\n        /* \"#utility.yul\":13784:13788   */\n      dup7\n        /* \"#utility.yul\":13752:13789   */\n      tag_114\n      jump\t// in\n    tag_297:\n        /* \"#utility.yul\":13811:13812   */\n      0x00\n        /* \"#utility.yul\":13825:14033   */\n    tag_298:\n        /* \"#utility.yul\":13839:13846   */\n      dup3\n        /* \"#utility.yul\":13836:13837   */\n      dup2\n        /* \"#utility.yul\":13833:13847   */\n      lt\n        /* \"#utility.yul\":13825:14033   */\n      iszero\n      tag_300\n      jumpi\n        /* \"#utility.yul\":13918:13927   */\n      dup5\n        /* \"#utility.yul\":13913:13916   */\n      dup10\n        /* \"#utility.yul\":13909:13928   */\n      add\n        /* \"#utility.yul\":13903:13929   */\n      mload\n        /* \"#utility.yul\":13895:13901   */\n      dup3\n        /* \"#utility.yul\":13888:13930   */\n      sstore\n        /* \"#utility.yul\":13969:13970   */\n      0x01\n        /* \"#utility.yul\":13961:13967   */\n      dup3\n        /* \"#utility.yul\":13957:13971   */\n      add\n        /* \"#utility.yul\":13947:13971   */\n      swap2\n      pop\n        /* \"#utility.yul\":14016:14018   */\n      0x20\n        /* \"#utility.yul\":14005:14014   */\n      dup6\n        /* \"#utility.yul\":14001:14019   */\n      add\n        /* \"#utility.yul\":13988:14019   */\n      swap5\n      pop\n        /* \"#utility.yul\":13862:13866   */\n      0x20\n        /* \"#utility.yul\":13859:13860   */\n      dup2\n        /* \"#utility.yul\":13855:13867   */\n      add\n        /* \"#utility.yul\":13850:13867   */\n      swap1\n      pop\n        /* \"#utility.yul\":13825:14033   */\n      jump(tag_298)\n    tag_300:\n        /* \"#utility.yul\":14061:14067   */\n      dup7\n        /* \"#utility.yul\":14052:14059   */\n      dup4\n        /* \"#utility.yul\":14049:14068   */\n      lt\n        /* \"#utility.yul\":14046:14225   */\n      iszero\n      tag_301\n      jumpi\n        /* \"#utility.yul\":14119:14128   */\n      dup5\n        /* \"#utility.yul\":14114:14117   */\n      dup10\n        /* \"#utility.yul\":14110:14129   */\n      add\n        /* \"#utility.yul\":14104:14130   */\n      mload\n        /* \"#utility.yul\":14162:14210   */\n      tag_302\n        /* \"#utility.yul\":14204:14208   */\n      0x1f\n        /* \"#utility.yul\":14196:14202   */\n      dup10\n        /* \"#utility.yul\":14192:14209   */\n      and\n        /* \"#utility.yul\":14181:14190   */\n      dup3\n        /* \"#utility.yul\":14162:14210   */\n      tag_127\n      jump\t// in\n    tag_302:\n        /* \"#utility.yul\":14154:14160   */\n      dup4\n        /* \"#utility.yul\":14147:14211   */\n      sstore\n        /* \"#utility.yul\":14069:14225   */\n      pop\n        /* \"#utility.yul\":14046:14225   */\n    tag_301:\n        /* \"#utility.yul\":14271:14272   */\n      0x01\n        /* \"#utility.yul\":14267:14268   */\n      0x02\n        /* \"#utility.yul\":14259:14265   */\n      dup9\n        /* \"#utility.yul\":14255:14269   */\n      mul\n        /* \"#utility.yul\":14251:14273   */\n      add\n        /* \"#utility.yul\":14245:14249   */\n      dup9\n        /* \"#utility.yul\":14238:14274   */\n      sstore\n        /* \"#utility.yul\":13673:14284   */\n      pop\n      pop\n      pop\n        /* \"#utility.yul\":13636:14523   */\n    tag_293:\n      pop\n        /* \"#utility.yul\":13226:14529   */\n      pop\n      pop\n      pop\n        /* \"#utility.yul\":13134:14529   */\n      pop\n      pop\n      jump\t// out\n        /* \"#utility.yul\":14535:14729   */\n    tag_75:\n        /* \"#utility.yul\":14575:14579   */\n      0x00\n        /* \"#utility.yul\":14595:14615   */\n      tag_304\n        /* \"#utility.yul\":14613:14614   */\n      dup3\n        /* \"#utility.yul\":14595:14615   */\n      tag_78\n      jump\t// in\n    tag_304:\n        /* \"#utility.yul\":14590:14615   */\n      swap2\n      pop\n        /* \"#utility.yul\":14629:14649   */\n      tag_305\n        /* \"#utility.yul\":14647:14648   */\n      dup4\n        /* \"#utility.yul\":14629:14649   */\n      tag_78\n      jump\t// in\n    tag_305:\n        /* \"#utility.yul\":14624:14649   */\n      swap3\n      pop\n        /* \"#utility.yul\":14673:14674   */\n      dup3\n        /* \"#utility.yul\":14670:14671   */\n      dup3\n        /* \"#utility.yul\":14666:14675   */\n      sub\n        /* \"#utility.yul\":14658:14675   */\n      swap1\n      pop\n        /* \"#utility.yul\":14697:14698   */\n      dup2\n        /* \"#utility.yul\":14691:14695   */\n      dup2\n        /* \"#utility.yul\":14688:14699   */\n      gt\n        /* \"#utility.yul\":14685:14722   */\n      iszero\n      tag_306\n      jumpi\n        /* \"#utility.yul\":14702:14720   */\n      tag_307\n      tag_106\n      jump\t// in\n    tag_307:\n        /* \"#utility.yul\":14685:14722   */\n    tag_306:\n        /* \"#utility.yul\":14535:14729   */\n      swap3\n      swap2\n      pop\n      pop\n      jump\t// out\n        /* \"#utility.yul\":14735:14904   */\n    tag_129:\n        /* \"#utility.yul\":14819:14830   */\n      0x00\n        /* \"#utility.yul\":14853:14859   */\n      dup3\n        /* \"#utility.yul\":14848:14851   */\n      dup3\n        /* \"#utility.yul\":14841:14860   */\n      mstore\n        /* \"#utility.yul\":14893:14897   */\n      0x20\n        /* \"#utility.yul\":14888:14891   */\n      dup3\n        /* \"#utility.yul\":14884:14898   */\n      add\n        /* \"#utility.yul\":14869:14898   */\n      swap1\n      pop\n        /* \"#utility.yul\":14735:14904   */\n      swap3\n      swap2\n      pop\n      pop\n      jump\t// out\n        /* \"#utility.yul\":14910:15287   */\n    tag_130:\n        /* \"#utility.yul\":14998:15001   */\n      0x00\n        /* \"#utility.yul\":15026:15065   */\n      tag_310\n        /* \"#utility.yul\":15059:15064   */\n      dup3\n        /* \"#utility.yul\":15026:15065   */\n      tag_107\n      jump\t// in\n    tag_310:\n        /* \"#utility.yul\":15081:15152   */\n      tag_311\n        /* \"#utility.yul\":15145:15151   */\n      dup2\n        /* \"#utility.yul\":15140:15143   */\n      dup6\n        /* \"#utility.yul\":15081:15152   */\n      tag_129\n      jump\t// in\n    tag_311:\n        /* \"#utility.yul\":15074:15152   */\n      swap4\n      pop\n        /* \"#utility.yul\":15161:15226   */\n      tag_312\n        /* \"#utility.yul\":15219:15225   */\n      dup2\n        /* \"#utility.yul\":15214:15217   */\n      dup6\n        /* \"#utility.yul\":15207:15211   */\n      0x20\n        /* \"#utility.yul\":15200:15205   */\n      dup7\n        /* \"#utility.yul\":15196:15212   */\n      add\n        /* \"#utility.yul\":15161:15226   */\n      tag_109\n      jump\t// in\n    tag_312:\n        /* \"#utility.yul\":15251:15280   */\n      tag_313\n        /* \"#utility.yul\":15273:15279   */\n      dup2\n        /* \"#utility.yul\":15251:15280   */\n      tag_99\n      jump\t// in\n    tag_313:\n        /* \"#utility.yul\":15246:15249   */\n      dup5\n        /* \"#utility.yul\":15242:15281   */\n      add\n        /* \"#utility.yul\":15235:15281   */\n      swap2\n      pop\n        /* \"#utility.yul\":15002:15287   */\n      pop\n        /* \"#utility.yul\":14910:15287   */\n      swap3\n      swap2\n      pop\n      pop\n      jump\t// out\n        /* \"#utility.yul\":15293:15826   */\n    tag_77:\n        /* \"#utility.yul\":15462:15466   */\n      0x00\n        /* \"#utility.yul\":15500:15502   */\n      0x60\n        /* \"#utility.yul\":15489:15498   */\n      dup3\n        /* \"#utility.yul\":15485:15503   */\n      add\n        /* \"#utility.yul\":15477:15503   */\n      swap1\n      pop\n        /* \"#utility.yul\":15513:15584   */\n      tag_315\n        /* \"#utility.yul\":15581:15582   */\n      0x00\n        /* \"#utility.yul\":15570:15579   */\n      dup4\n        /* \"#utility.yul\":15566:15583   */\n      add\n        /* \"#utility.yul\":15557:15563   */\n      dup7\n        /* \"#utility.yul\":15513:15584   */\n      tag_79\n      jump\t// in\n    tag_315:\n        /* \"#utility.yul\":15631:15640   */\n      dup2\n        /* \"#utility.yul\":15625:15629   */\n      dup2\n        /* \"#utility.yul\":15621:15641   */\n      sub\n        /* \"#utility.yul\":15616:15618   */\n      0x20\n        /* \"#utility.yul\":15605:15614   */\n      dup4\n        /* \"#utility.yul\":15601:15619   */\n      add\n        /* \"#utility.yul\":15594:15642   */\n      mstore\n        /* \"#utility.yul\":15659:15737   */\n      tag_316\n        /* \"#utility.yul\":15732:15736   */\n      dup2\n        /* \"#utility.yul\":15723:15729   */\n      dup6\n        /* \"#utility.yul\":15659:15737   */\n      tag_130\n      jump\t// in\n    tag_316:\n        /* \"#utility.yul\":15651:15737   */\n      swap1\n      pop\n        /* \"#utility.yul\":15747:15819   */\n      tag_317\n        /* \"#utility.yul\":15815:15817   */\n      0x40\n        /* \"#utility.yul\":15804:15813   */\n      dup4\n        /* \"#utility.yul\":15800:15818   */\n      add\n        /* \"#utility.yul\":15791:15797   */\n      dup5\n        /* \"#utility.yul\":15747:15819   */\n      tag_79\n      jump\t// in\n    tag_317:\n        /* \"#utility.yul\":15293:15826   */\n      swap5\n      swap4\n      pop\n      pop\n      pop\n      pop\n      jump\t// out\n\n    auxdata: 0xa264697066735822122033dd9c12339c8ddf0ae0f67357dc75b346fc25d9c1074650caf162db202a194e64736f6c63430008120033\n}\n",
				"bytecode": {
					"linkReferences": {},
					"object": "6080604052601060005534801561001557600080fd5b50610e90806100256000396000f3fe608060405234801561001057600080fd5b50600436106100625760003560e01c80630a0f2d761461006757806350ed52771461008557806372380aea146100a15780639baabf55146100d1578063adb4954e14610101578063ae44a10514610131575b600080fd5b61006f61014d565b60405161007c9190610552565b60405180910390f35b61009f600480360381019061009a91906105ad565b610153565b005b6100bb60048036038101906100b69190610638565b610237565b6040516100c89190610723565b60405180910390f35b6100eb60048036038101906100e691906105ad565b6103da565b6040516100f89190610754565b60405180910390f35b61011b60048036038101906101169190610638565b61040d565b6040516101289190610552565b60405180910390f35b61014b600480360381019061014691906108b5565b610425565b005b60005481565b336002600083815260200190815260200160002060006101000a81548173ffffffffffffffffffffffffffffffffffffffff021916908373ffffffffffffffffffffffffffffffffffffffff1602179055506001600360003373ffffffffffffffffffffffffffffffffffffffff1673ffffffffffffffffffffffffffffffffffffffff168152602001908152602001600020546101f1919061092d565b600360003373ffffffffffffffffffffffffffffffffffffffff1673ffffffffffffffffffffffffffffffffffffffff1681526020019081526020016000208190555050565b6060600080600360008573ffffffffffffffffffffffffffffffffffffffff1673ffffffffffffffffffffffffffffffffffffffff1681526020019081526020016000205467ffffffffffffffff8111156102955761029461078a565b5b6040519080825280602002602001820160405280156102c35781602001602082028036833780820191505090505b50905060005b6001805490508110156103cf576000600182815481106102ec576102eb610961565b5b90600052602060002090600202016001015490508573ffffffffffffffffffffffffffffffffffffffff166002600083815260200190815260200160002060009054906101000a900473ffffffffffffffffffffffffffffffffffffffff1673ffffffffffffffffffffffffffffffffffffffff16036103bb576001828154811061037a57610379610961565b5b90600052602060002090600202016001015483858151811061039f5761039e610961565b5b6020026020010181815250506001846103b8919061092d565b93505b5080806103c790610990565b9150506102c9565b508092505050919050565b60026020528060005260406000206000915054906101000a900473ffffffffffffffffffffffffffffffffffffffff1681565b60036020528060005260406000206000915090505481565b600061043082610440565b905061043c8282610488565b5050565b600080600054600a189050808360405160200161045d9190610a49565b6040516020818303038152906040528051906020012060001c6104809190610a8f565b915050919050565b6001604051806040016040528084815260200183815250908060018154018082558091505060019003906000526020600020906002020160009091909190915060008201518160000190816104dd9190610ccc565b506020820151816001015550507f0638820bbfa7f1ab0bfb9054649b6198da60bd10654cbfe5c50d26b1bec658786001808054905061051c9190610d9e565b838360405161052d93929190610e1c565b60405180910390a15050565b6000819050919050565b61054c81610539565b82525050565b60006020820190506105676000830184610543565b92915050565b6000604051905090565b600080fd5b600080fd5b61058a81610539565b811461059557600080fd5b50565b6000813590506105a781610581565b92915050565b6000602082840312156105c3576105c2610577565b5b60006105d184828501610598565b91505092915050565b600073ffffffffffffffffffffffffffffffffffffffff82169050919050565b6000610605826105da565b9050919050565b610615816105fa565b811461062057600080fd5b50565b6000813590506106328161060c565b92915050565b60006020828403121561064e5761064d610577565b5b600061065c84828501610623565b91505092915050565b600081519050919050565b600082825260208201905092915050565b6000819050602082019050919050565b61069a81610539565b82525050565b60006106ac8383610691565b60208301905092915050565b6000602082019050919050565b60006106d082610665565b6106da8185610670565b93506106e583610681565b8060005b838110156107165781516106fd88826106a0565b9750610708836106b8565b9250506001810190506106e9565b5085935050505092915050565b6000602082019050818103600083015261073d81846106c5565b905092915050565b61074e816105fa565b82525050565b60006020820190506107696000830184610745565b92915050565b600080fd5b600080fd5b6000601f19601f8301169050919050565b7f4e487b7100000000000000000000000000000000000000000000000000000000600052604160045260246000fd5b6107c282610779565b810181811067ffffffffffffffff821117156107e1576107e061078a565b5b80604052505050565b60006107f461056d565b905061080082826107b9565b919050565b600067ffffffffffffffff8211156108205761081f61078a565b5b61082982610779565b9050602081019050919050565b82818337600083830152505050565b600061085861085384610805565b6107ea565b90508281526020810184848401111561087457610873610774565b5b61087f848285610836565b509392505050565b600082601f83011261089c5761089b61076f565b5b81356108ac848260208601610845565b91505092915050565b6000602082840312156108cb576108ca610577565b5b600082013567ffffffffffffffff8111156108e9576108e861057c565b5b6108f584828501610887565b91505092915050565b7f4e487b7100000000000000000000000000000000000000000000000000000000600052601160045260246000fd5b600061093882610539565b915061094383610539565b925082820190508082111561095b5761095a6108fe565b5b92915050565b7f4e487b7100000000000000000000000000000000000000000000000000000000600052603260045260246000fd5b600061099b82610539565b91507fffffffffffffffffffffffffffffffffffffffffffffffffffffffffffffffff82036109cd576109cc6108fe565b5b600182019050919050565b600081519050919050565b600081905092915050565b60005b83811015610a0c5780820151818401526020810190506109f1565b60008484015250505050565b6000610a23826109d8565b610a2d81856109e3565b9350610a3d8185602086016109ee565b80840191505092915050565b6000610a558284610a18565b915081905092915050565b7f4e487b7100000000000000000000000000000000000000000000000000000000600052601260045260246000fd5b6000610a9a82610539565b9150610aa583610539565b925082610ab557610ab4610a60565b5b828206905092915050565b7f4e487b7100000000000000000000000000000000000000000000000000000000600052602260045260246000fd5b60006002820490506001821680610b0757607f821691505b602082108103610b1a57610b19610ac0565b5b50919050565b60008190508160005260206000209050919050565b60006020601f8301049050919050565b600082821b905092915050565b600060088302610b827fffffffffffffffffffffffffffffffffffffffffffffffffffffffffffffffff82610b45565b610b8c8683610b45565b95508019841693508086168417925050509392505050565b6000819050919050565b6000610bc9610bc4610bbf84610539565b610ba4565b610539565b9050919050565b6000819050919050565b610be383610bae565b610bf7610bef82610bd0565b848454610b52565b825550505050565b600090565b610c0c610bff565b610c17818484610bda565b505050565b5b81811015610c3b57610c30600082610c04565b600181019050610c1d565b5050565b601f821115610c8057610c5181610b20565b610c5a84610b35565b81016020851015610c69578190505b610c7d610c7585610b35565b830182610c1c565b50505b505050565b600082821c905092915050565b6000610ca360001984600802610c85565b1980831691505092915050565b6000610cbc8383610c92565b9150826002028217905092915050565b610cd5826109d8565b67ffffffffffffffff811115610cee57610ced61078a565b5b610cf88254610aef565b610d03828285610c3f565b600060209050601f831160018114610d365760008415610d24578287015190505b610d2e8582610cb0565b865550610d96565b601f198416610d4486610b20565b60005b82811015610d6c57848901518255600182019150602085019450602081019050610d47565b86831015610d895784890151610d85601f891682610c92565b8355505b6001600288020188555050505b505050505050565b6000610da982610539565b9150610db483610539565b9250828203905081811115610dcc57610dcb6108fe565b5b92915050565b600082825260208201905092915050565b6000610dee826109d8565b610df88185610dd2565b9350610e088185602086016109ee565b610e1181610779565b840191505092915050565b6000606082019050610e316000830186610543565b8181036020830152610e438185610de3565b9050610e526040830184610543565b94935050505056fea264697066735822122033dd9c12339c8ddf0ae0f67357dc75b346fc25d9c1074650caf162db202a194e64736f6c63430008120033",
					"opcodes": "PUSH1 0x80 PUSH1 0x40 MSTORE PUSH1 0x10 PUSH1 0x0 SSTORE CALLVALUE DUP1 ISZERO PUSH2 0x15 JUMPI PUSH1 0x0 DUP1 REVERT JUMPDEST POP PUSH2 0xE90 DUP1 PUSH2 0x25 PUSH1 0x0 CODECOPY PUSH1 0x0 RETURN INVALID PUSH1 0x80 PUSH1 0x40 MSTORE CALLVALUE DUP1 ISZERO PUSH2 0x10 JUMPI PUSH1 0x0 DUP1 REVERT JUMPDEST POP PUSH1 0x4 CALLDATASIZE LT PUSH2 0x62 JUMPI PUSH1 0x0 CALLDATALOAD PUSH1 0xE0 SHR DUP1 PUSH4 0xA0F2D76 EQ PUSH2 0x67 JUMPI DUP1 PUSH4 0x50ED5277 EQ PUSH2 0x85 JUMPI DUP1 PUSH4 0x72380AEA EQ PUSH2 0xA1 JUMPI DUP1 PUSH4 0x9BAABF55 EQ PUSH2 0xD1 JUMPI DUP1 PUSH4 0xADB4954E EQ PUSH2 0x101 JUMPI DUP1 PUSH4 0xAE44A105 EQ PUSH2 0x131 JUMPI JUMPDEST PUSH1 0x0 DUP1 REVERT JUMPDEST PUSH2 0x6F PUSH2 0x14D JUMP JUMPDEST PUSH1 0x40 MLOAD PUSH2 0x7C SWAP2 SWAP1 PUSH2 0x552 JUMP JUMPDEST PUSH1 0x40 MLOAD DUP1 SWAP2 SUB SWAP1 RETURN JUMPDEST PUSH2 0x9F PUSH1 0x4 DUP1 CALLDATASIZE SUB DUP2 ADD SWAP1 PUSH2 0x9A SWAP2 SWAP1 PUSH2 0x5AD JUMP JUMPDEST PUSH2 0x153 JUMP JUMPDEST STOP JUMPDEST PUSH2 0xBB PUSH1 0x4 DUP1 CALLDATASIZE SUB DUP2 ADD SWAP1 PUSH2 0xB6 SWAP2 SWAP1 PUSH2 0x638 JUMP JUMPDEST PUSH2 0x237 JUMP JUMPDEST PUSH1 0x40 MLOAD PUSH2 0xC8 SWAP2 SWAP1 PUSH2 0x723 JUMP JUMPDEST PUSH1 0x40 MLOAD DUP1 SWAP2 SUB SWAP1 RETURN JUMPDEST PUSH2 0xEB PUSH1 0x4 DUP1 CALLDATASIZE SUB DUP2 ADD SWAP1 PUSH2 0xE6 SWAP2 SWAP1 PUSH2 0x5AD JUMP JUMPDEST PUSH2 0x3DA JUMP JUMPDEST PUSH1 0x40 MLOAD PUSH2 0xF8 SWAP2 SWAP1 PUSH2 0x754 JUMP JUMPDEST PUSH1 0x40 MLOAD DUP1 SWAP2 SUB SWAP1 RETURN JUMPDEST PUSH2 0x11B PUSH1 0x4 DUP1 CALLDATASIZE SUB DUP2 ADD SWAP1 PUSH2 0x116 SWAP2 SWAP1 PUSH2 0x638 JUMP JUMPDEST PUSH2 0x40D JUMP JUMPDEST PUSH1 0x40 MLOAD PUSH2 0x128 SWAP2 SWAP1 PUSH2 0x552 JUMP JUMPDEST PUSH1 0x40 MLOAD DUP1 SWAP2 SUB SWAP1 RETURN JUMPDEST PUSH2 0x14B PUSH1 0x4 DUP1 CALLDATASIZE SUB DUP2 ADD SWAP1 PUSH2 0x146 SWAP2 SWAP1 PUSH2 0x8B5 JUMP JUMPDEST PUSH2 0x425 JUMP JUMPDEST STOP JUMPDEST PUSH1 0x0 SLOAD DUP2 JUMP JUMPDEST CALLER PUSH1 0x2 PUSH1 0x0 DUP4 DUP2 MSTORE PUSH1 0x20 ADD SWAP1 DUP2 MSTORE PUSH1 0x20 ADD PUSH1 0x0 KECCAK256 PUSH1 0x0 PUSH2 0x100 EXP DUP2 SLOAD DUP2 PUSH20 0xFFFFFFFFFFFFFFFFFFFFFFFFFFFFFFFFFFFFFFFF MUL NOT AND SWAP1 DUP4 PUSH20 0xFFFFFFFFFFFFFFFFFFFFFFFFFFFFFFFFFFFFFFFF AND MUL OR SWAP1 SSTORE POP PUSH1 0x1 PUSH1 0x3 PUSH1 0x0 CALLER PUSH20 0xFFFFFFFFFFFFFFFFFFFFFFFFFFFFFFFFFFFFFFFF AND PUSH20 0xFFFFFFFFFFFFFFFFFFFFFFFFFFFFFFFFFFFFFFFF AND DUP2 MSTORE PUSH1 0x20 ADD SWAP1 DUP2 MSTORE PUSH1 0x20 ADD PUSH1 0x0 KECCAK256 SLOAD PUSH2 0x1F1 SWAP2 SWAP1 PUSH2 0x92D JUMP JUMPDEST PUSH1 0x3 PUSH1 0x0 CALLER PUSH20 0xFFFFFFFFFFFFFFFFFFFFFFFFFFFFFFFFFFFFFFFF AND PUSH20 0xFFFFFFFFFFFFFFFFFFFFFFFFFFFFFFFFFFFFFFFF AND DUP2 MSTORE PUSH1 0x20 ADD SWAP1 DUP2 MSTORE PUSH1 0x20 ADD PUSH1 0x0 KECCAK256 DUP2 SWAP1 SSTORE POP POP JUMP JUMPDEST PUSH1 0x60 PUSH1 0x0 DUP1 PUSH1 0x3 PUSH1 0x0 DUP6 PUSH20 0xFFFFFFFFFFFFFFFFFFFFFFFFFFFFFFFFFFFFFFFF AND PUSH20 0xFFFFFFFFFFFFFFFFFFFFFFFFFFFFFFFFFFFFFFFF AND DUP2 MSTORE PUSH1 0x20 ADD SWAP1 DUP2 MSTORE PUSH1 0x20 ADD PUSH1 0x0 KECCAK256 SLOAD PUSH8 0xFFFFFFFFFFFFFFFF DUP2 GT ISZERO PUSH2 0x295 JUMPI PUSH2 0x294 PUSH2 0x78A JUMP JUMPDEST JUMPDEST PUSH1 0x40 MLOAD SWAP1 DUP1 DUP3 MSTORE DUP1 PUSH1 0x20 MUL PUSH1 0x20 ADD DUP3 ADD PUSH1 0x40 MSTORE DUP1 ISZERO PUSH2 0x2C3 JUMPI DUP2 PUSH1 0x20 ADD PUSH1 0x20 DUP3 MUL DUP1 CALLDATASIZE DUP4 CALLDATACOPY DUP1 DUP3 ADD SWAP2 POP POP SWAP1 POP JUMPDEST POP SWAP1 POP PUSH1 0x0 JUMPDEST PUSH1 0x1 DUP1 SLOAD SWAP1 POP DUP2 LT ISZERO PUSH2 0x3CF JUMPI PUSH1 0x0 PUSH1 0x1 DUP3 DUP2 SLOAD DUP2 LT PUSH2 0x2EC JUMPI PUSH2 0x2EB PUSH2 0x961 JUMP JUMPDEST JUMPDEST SWAP1 PUSH1 0x0 MSTORE PUSH1 0x20 PUSH1 0x0 KECCAK256 SWAP1 PUSH1 0x2 MUL ADD PUSH1 0x1 ADD SLOAD SWAP1 POP DUP6 PUSH20 0xFFFFFFFFFFFFFFFFFFFFFFFFFFFFFFFFFFFFFFFF AND PUSH1 0x2 PUSH1 0x0 DUP4 DUP2 MSTORE PUSH1 0x20 ADD SWAP1 DUP2 MSTORE PUSH1 0x20 ADD PUSH1 0x0 KECCAK256 PUSH1 0x0 SWAP1 SLOAD SWAP1 PUSH2 0x100 EXP SWAP1 DIV PUSH20 0xFFFFFFFFFFFFFFFFFFFFFFFFFFFFFFFFFFFFFFFF AND PUSH20 0xFFFFFFFFFFFFFFFFFFFFFFFFFFFFFFFFFFFFFFFF AND SUB PUSH2 0x3BB JUMPI PUSH1 0x1 DUP3 DUP2 SLOAD DUP2 LT PUSH2 0x37A JUMPI PUSH2 0x379 PUSH2 0x961 JUMP JUMPDEST JUMPDEST SWAP1 PUSH1 0x0 MSTORE PUSH1 0x20 PUSH1 0x0 KECCAK256 SWAP1 PUSH1 0x2 MUL ADD PUSH1 0x1 ADD SLOAD DUP4 DUP6 DUP2 MLOAD DUP2 LT PUSH2 0x39F JUMPI PUSH2 0x39E PUSH2 0x961 JUMP JUMPDEST JUMPDEST PUSH1 0x20 MUL PUSH1 0x20 ADD ADD DUP2 DUP2 MSTORE POP POP PUSH1 0x1 DUP5 PUSH2 0x3B8 SWAP2 SWAP1 PUSH2 0x92D JUMP JUMPDEST SWAP4 POP JUMPDEST POP DUP1 DUP1 PUSH2 0x3C7 SWAP1 PUSH2 0x990 JUMP JUMPDEST SWAP2 POP POP PUSH2 0x2C9 JUMP JUMPDEST POP DUP1 SWAP3 POP POP POP SWAP2 SWAP1 POP JUMP JUMPDEST PUSH1 0x2 PUSH1 0x20 MSTORE DUP1 PUSH1 0x0 MSTORE PUSH1 0x40 PUSH1 0x0 KECCAK256 PUSH1 0x0 SWAP2 POP SLOAD SWAP1 PUSH2 0x100 EXP SWAP1 DIV PUSH20 0xFFFFFFFFFFFFFFFFFFFFFFFFFFFFFFFFFFFFFFFF AND DUP2 JUMP JUMPDEST PUSH1 0x3 PUSH1 0x20 MSTORE DUP1 PUSH1 0x0 MSTORE PUSH1 0x40 PUSH1 0x0 KECCAK256 PUSH1 0x0 SWAP2 POP SWAP1 POP SLOAD DUP2 JUMP JUMPDEST PUSH1 0x0 PUSH2 0x430 DUP3 PUSH2 0x440 JUMP JUMPDEST SWAP1 POP PUSH2 0x43C DUP3 DUP3 PUSH2 0x488 JUMP JUMPDEST POP POP JUMP JUMPDEST PUSH1 0x0 DUP1 PUSH1 0x0 SLOAD PUSH1 0xA XOR SWAP1 POP DUP1 DUP4 PUSH1 0x40 MLOAD PUSH1 0x20 ADD PUSH2 0x45D SWAP2 SWAP1 PUSH2 0xA49 JUMP JUMPDEST PUSH1 0x40 MLOAD PUSH1 0x20 DUP2 DUP4 SUB SUB DUP2 MSTORE SWAP1 PUSH1 0x40 MSTORE DUP1 MLOAD SWAP1 PUSH1 0x20 ADD KECCAK256 PUSH1 0x0 SHR PUSH2 0x480 SWAP2 SWAP1 PUSH2 0xA8F JUMP JUMPDEST SWAP2 POP POP SWAP2 SWAP1 POP JUMP JUMPDEST PUSH1 0x1 PUSH1 0x40 MLOAD DUP1 PUSH1 0x40 ADD PUSH1 0x40 MSTORE DUP1 DUP5 DUP2 MSTORE PUSH1 0x20 ADD DUP4 DUP2 MSTORE POP SWAP1 DUP1 PUSH1 0x1 DUP2 SLOAD ADD DUP1 DUP3 SSTORE DUP1 SWAP2 POP POP PUSH1 0x1 SWAP1 SUB SWAP1 PUSH1 0x0 MSTORE PUSH1 0x20 PUSH1 0x0 KECCAK256 SWAP1 PUSH1 0x2 MUL ADD PUSH1 0x0 SWAP1 SWAP2 SWAP1 SWAP2 SWAP1 SWAP2 POP PUSH1 0x0 DUP3 ADD MLOAD DUP2 PUSH1 0x0 ADD SWAP1 DUP2 PUSH2 0x4DD SWAP2 SWAP1 PUSH2 0xCCC JUMP JUMPDEST POP PUSH1 0x20 DUP3 ADD MLOAD DUP2 PUSH1 0x1 ADD SSTORE POP POP PUSH32 0x638820BBFA7F1AB0BFB9054649B6198DA60BD10654CBFE5C50D26B1BEC65878 PUSH1 0x1 DUP1 DUP1 SLOAD SWAP1 POP PUSH2 0x51C SWAP2 SWAP1 PUSH2 0xD9E JUMP JUMPDEST DUP4 DUP4 PUSH1 0x40 MLOAD PUSH2 0x52D SWAP4 SWAP3 SWAP2 SWAP1 PUSH2 0xE1C JUMP JUMPDEST PUSH1 0x40 MLOAD DUP1 SWAP2 SUB SWAP1 LOG1 POP POP JUMP JUMPDEST PUSH1 0x0 DUP2 SWAP1 POP SWAP2 SWAP1 POP JUMP JUMPDEST PUSH2 0x54C DUP2 PUSH2 0x539 JUMP JUMPDEST DUP3 MSTORE POP POP JUMP JUMPDEST PUSH1 0x0 PUSH1 0x20 DUP3 ADD SWAP1 POP PUSH2 0x567 PUSH1 0x0 DUP4 ADD DUP5 PUSH2 0x543 JUMP JUMPDEST SWAP3 SWAP2 POP POP JUMP JUMPDEST PUSH1 0x0 PUSH1 0x40 MLOAD SWAP1 POP SWAP1 JUMP JUMPDEST PUSH1 0x0 DUP1 REVERT JUMPDEST PUSH1 0x0 DUP1 REVERT JUMPDEST PUSH2 0x58A DUP2 PUSH2 0x539 JUMP JUMPDEST DUP2 EQ PUSH2 0x595 JUMPI PUSH1 0x0 DUP1 REVERT JUMPDEST POP JUMP JUMPDEST PUSH1 0x0 DUP2 CALLDATALOAD SWAP1 POP PUSH2 0x5A7 DUP2 PUSH2 0x581 JUMP JUMPDEST SWAP3 SWAP2 POP POP JUMP JUMPDEST PUSH1 0x0 PUSH1 0x20 DUP3 DUP5 SUB SLT ISZERO PUSH2 0x5C3 JUMPI PUSH2 0x5C2 PUSH2 0x577 JUMP JUMPDEST JUMPDEST PUSH1 0x0 PUSH2 0x5D1 DUP5 DUP3 DUP6 ADD PUSH2 0x598 JUMP JUMPDEST SWAP2 POP POP SWAP3 SWAP2 POP POP JUMP JUMPDEST PUSH1 0x0 PUSH20 0xFFFFFFFFFFFFFFFFFFFFFFFFFFFFFFFFFFFFFFFF DUP3 AND SWAP1 POP SWAP2 SWAP1 POP JUMP JUMPDEST PUSH1 0x0 PUSH2 0x605 DUP3 PUSH2 0x5DA JUMP JUMPDEST SWAP1 POP SWAP2 SWAP1 POP JUMP JUMPDEST PUSH2 0x615 DUP2 PUSH2 0x5FA JUMP JUMPDEST DUP2 EQ PUSH2 0x620 JUMPI PUSH1 0x0 DUP1 REVERT JUMPDEST POP JUMP JUMPDEST PUSH1 0x0 DUP2 CALLDATALOAD SWAP1 POP PUSH2 0x632 DUP2 PUSH2 0x60C JUMP JUMPDEST SWAP3 SWAP2 POP POP JUMP JUMPDEST PUSH1 0x0 PUSH1 0x20 DUP3 DUP5 SUB SLT ISZERO PUSH2 0x64E JUMPI PUSH2 0x64D PUSH2 0x577 JUMP JUMPDEST JUMPDEST PUSH1 0x0 PUSH2 0x65C DUP5 DUP3 DUP6 ADD PUSH2 0x623 JUMP JUMPDEST SWAP2 POP POP SWAP3 SWAP2 POP POP JUMP JUMPDEST PUSH1 0x0 DUP2 MLOAD SWAP1 POP SWAP2 SWAP1 POP JUMP JUMPDEST PUSH1 0x0 DUP3 DUP3 MSTORE PUSH1 0x20 DUP3 ADD SWAP1 POP SWAP3 SWAP2 POP POP JUMP JUMPDEST PUSH1 0x0 DUP2 SWAP1 POP PUSH1 0x20 DUP3 ADD SWAP1 POP SWAP2 SWAP1 POP JUMP JUMPDEST PUSH2 0x69A DUP2 PUSH2 0x539 JUMP JUMPDEST DUP3 MSTORE POP POP JUMP JUMPDEST PUSH1 0x0 PUSH2 0x6AC DUP4 DUP4 PUSH2 0x691 JUMP JUMPDEST PUSH1 0x20 DUP4 ADD SWAP1 POP SWAP3 SWAP2 POP POP JUMP JUMPDEST PUSH1 0x0 PUSH1 0x20 DUP3 ADD SWAP1 POP SWAP2 SWAP1 POP JUMP JUMPDEST PUSH1 0x0 PUSH2 0x6D0 DUP3 PUSH2 0x665 JUMP JUMPDEST PUSH2 0x6DA DUP2 DUP6 PUSH2 0x670 JUMP JUMPDEST SWAP4 POP PUSH2 0x6E5 DUP4 PUSH2 0x681 JUMP JUMPDEST DUP1 PUSH1 0x0 JUMPDEST DUP4 DUP2 LT ISZERO PUSH2 0x716 JUMPI DUP2 MLOAD PUSH2 0x6FD DUP9 DUP3 PUSH2 0x6A0 JUMP JUMPDEST SWAP8 POP PUSH2 0x708 DUP4 PUSH2 0x6B8 JUMP JUMPDEST SWAP3 POP POP PUSH1 0x1 DUP2 ADD SWAP1 POP PUSH2 0x6E9 JUMP JUMPDEST POP DUP6 SWAP4 POP POP POP POP SWAP3 SWAP2 POP POP JUMP JUMPDEST PUSH1 0x0 PUSH1 0x20 DUP3 ADD SWAP1 POP DUP2 DUP2 SUB PUSH1 0x0 DUP4 ADD MSTORE PUSH2 0x73D DUP2 DUP5 PUSH2 0x6C5 JUMP JUMPDEST SWAP1 POP SWAP3 SWAP2 POP POP JUMP JUMPDEST PUSH2 0x74E DUP2 PUSH2 0x5FA JUMP JUMPDEST DUP3 MSTORE POP POP JUMP JUMPDEST PUSH1 0x0 PUSH1 0x20 DUP3 ADD SWAP1 POP PUSH2 0x769 PUSH1 0x0 DUP4 ADD DUP5 PUSH2 0x745 JUMP JUMPDEST SWAP3 SWAP2 POP POP JUMP JUMPDEST PUSH1 0x0 DUP1 REVERT JUMPDEST PUSH1 0x0 DUP1 REVERT JUMPDEST PUSH1 0x0 PUSH1 0x1F NOT PUSH1 0x1F DUP4 ADD AND SWAP1 POP SWAP2 SWAP1 POP JUMP JUMPDEST PUSH32 0x4E487B7100000000000000000000000000000000000000000000000000000000 PUSH1 0x0 MSTORE PUSH1 0x41 PUSH1 0x4 MSTORE PUSH1 0x24 PUSH1 0x0 REVERT JUMPDEST PUSH2 0x7C2 DUP3 PUSH2 0x779 JUMP JUMPDEST DUP2 ADD DUP2 DUP2 LT PUSH8 0xFFFFFFFFFFFFFFFF DUP3 GT OR ISZERO PUSH2 0x7E1 JUMPI PUSH2 0x7E0 PUSH2 0x78A JUMP JUMPDEST JUMPDEST DUP1 PUSH1 0x40 MSTORE POP POP POP JUMP JUMPDEST PUSH1 0x0 PUSH2 0x7F4 PUSH2 0x56D JUMP JUMPDEST SWAP1 POP PUSH2 0x800 DUP3 DUP3 PUSH2 0x7B9 JUMP JUMPDEST SWAP2 SWAP1 POP JUMP JUMPDEST PUSH1 0x0 PUSH8 0xFFFFFFFFFFFFFFFF DUP3 GT ISZERO PUSH2 0x820 JUMPI PUSH2 0x81F PUSH2 0x78A JUMP JUMPDEST JUMPDEST PUSH2 0x829 DUP3 PUSH2 0x779 JUMP JUMPDEST SWAP1 POP PUSH1 0x20 DUP2 ADD SWAP1 POP SWAP2 SWAP1 POP JUMP JUMPDEST DUP3 DUP2 DUP4 CALLDATACOPY PUSH1 0x0 DUP4 DUP4 ADD MSTORE POP POP POP JUMP JUMPDEST PUSH1 0x0 PUSH2 0x858 PUSH2 0x853 DUP5 PUSH2 0x805 JUMP JUMPDEST PUSH2 0x7EA JUMP JUMPDEST SWAP1 POP DUP3 DUP2 MSTORE PUSH1 0x20 DUP2 ADD DUP5 DUP5 DUP5 ADD GT ISZERO PUSH2 0x874 JUMPI PUSH2 0x873 PUSH2 0x774 JUMP JUMPDEST JUMPDEST PUSH2 0x87F DUP5 DUP3 DUP6 PUSH2 0x836 JUMP JUMPDEST POP SWAP4 SWAP3 POP POP POP JUMP JUMPDEST PUSH1 0x0 DUP3 PUSH1 0x1F DUP4 ADD SLT PUSH2 0x89C JUMPI PUSH2 0x89B PUSH2 0x76F JUMP JUMPDEST JUMPDEST DUP2 CALLDATALOAD PUSH2 0x8AC DUP5 DUP3 PUSH1 0x20 DUP7 ADD PUSH2 0x845 JUMP JUMPDEST SWAP2 POP POP SWAP3 SWAP2 POP POP JUMP JUMPDEST PUSH1 0x0 PUSH1 0x20 DUP3 DUP5 SUB SLT ISZERO PUSH2 0x8CB JUMPI PUSH2 0x8CA PUSH2 0x577 JUMP JUMPDEST JUMPDEST PUSH1 0x0 DUP3 ADD CALLDATALOAD PUSH8 0xFFFFFFFFFFFFFFFF DUP2 GT ISZERO PUSH2 0x8E9 JUMPI PUSH2 0x8E8 PUSH2 0x57C JUMP JUMPDEST JUMPDEST PUSH2 0x8F5 DUP5 DUP3 DUP6 ADD PUSH2 0x887 JUMP JUMPDEST SWAP2 POP POP SWAP3 SWAP2 POP POP JUMP JUMPDEST PUSH32 0x4E487B7100000000000000000000000000000000000000000000000000000000 PUSH1 0x0 MSTORE PUSH1 0x11 PUSH1 0x4 MSTORE PUSH1 0x24 PUSH1 0x0 REVERT JUMPDEST PUSH1 0x0 PUSH2 0x938 DUP3 PUSH2 0x539 JUMP JUMPDEST SWAP2 POP PUSH2 0x943 DUP4 PUSH2 0x539 JUMP JUMPDEST SWAP3 POP DUP3 DUP3 ADD SWAP1 POP DUP1 DUP3 GT ISZERO PUSH2 0x95B JUMPI PUSH2 0x95A PUSH2 0x8FE JUMP JUMPDEST JUMPDEST SWAP3 SWAP2 POP POP JUMP JUMPDEST PUSH32 0x4E487B7100000000000000000000000000000000000000000000000000000000 PUSH1 0x0 MSTORE PUSH1 0x32 PUSH1 0x4 MSTORE PUSH1 0x24 PUSH1 0x0 REVERT JUMPDEST PUSH1 0x0 PUSH2 0x99B DUP3 PUSH2 0x539 JUMP JUMPDEST SWAP2 POP PUSH32 0xFFFFFFFFFFFFFFFFFFFFFFFFFFFFFFFFFFFFFFFFFFFFFFFFFFFFFFFFFFFFFFFF DUP3 SUB PUSH2 0x9CD JUMPI PUSH2 0x9CC PUSH2 0x8FE JUMP JUMPDEST JUMPDEST PUSH1 0x1 DUP3 ADD SWAP1 POP SWAP2 SWAP1 POP JUMP JUMPDEST PUSH1 0x0 DUP2 MLOAD SWAP1 POP SWAP2 SWAP1 POP JUMP JUMPDEST PUSH1 0x0 DUP2 SWAP1 POP SWAP3 SWAP2 POP POP JUMP JUMPDEST PUSH1 0x0 JUMPDEST DUP4 DUP2 LT ISZERO PUSH2 0xA0C JUMPI DUP1 DUP3 ADD MLOAD DUP2 DUP5 ADD MSTORE PUSH1 0x20 DUP2 ADD SWAP1 POP PUSH2 0x9F1 JUMP JUMPDEST PUSH1 0x0 DUP5 DUP5 ADD MSTORE POP POP POP POP JUMP JUMPDEST PUSH1 0x0 PUSH2 0xA23 DUP3 PUSH2 0x9D8 JUMP JUMPDEST PUSH2 0xA2D DUP2 DUP6 PUSH2 0x9E3 JUMP JUMPDEST SWAP4 POP PUSH2 0xA3D DUP2 DUP6 PUSH1 0x20 DUP7 ADD PUSH2 0x9EE JUMP JUMPDEST DUP1 DUP5 ADD SWAP2 POP POP SWAP3 SWAP2 POP POP JUMP JUMPDEST PUSH1 0x0 PUSH2 0xA55 DUP3 DUP5 PUSH2 0xA18 JUMP JUMPDEST SWAP2 POP DUP2 SWAP1 POP SWAP3 SWAP2 POP POP JUMP JUMPDEST PUSH32 0x4E487B7100000000000000000000000000000000000000000000000000000000 PUSH1 0x0 MSTORE PUSH1 0x12 PUSH1 0x4 MSTORE PUSH1 0x24 PUSH1 0x0 REVERT JUMPDEST PUSH1 0x0 PUSH2 0xA9A DUP3 PUSH2 0x539 JUMP JUMPDEST SWAP2 POP PUSH2 0xAA5 DUP4 PUSH2 0x539 JUMP JUMPDEST SWAP3 POP DUP3 PUSH2 0xAB5 JUMPI PUSH2 0xAB4 PUSH2 0xA60 JUMP JUMPDEST JUMPDEST DUP3 DUP3 MOD SWAP1 POP SWAP3 SWAP2 POP POP JUMP JUMPDEST PUSH32 0x4E487B7100000000000000000000000000000000000000000000000000000000 PUSH1 0x0 MSTORE PUSH1 0x22 PUSH1 0x4 MSTORE PUSH1 0x24 PUSH1 0x0 REVERT JUMPDEST PUSH1 0x0 PUSH1 0x2 DUP3 DIV SWAP1 POP PUSH1 0x1 DUP3 AND DUP1 PUSH2 0xB07 JUMPI PUSH1 0x7F DUP3 AND SWAP2 POP JUMPDEST PUSH1 0x20 DUP3 LT DUP2 SUB PUSH2 0xB1A JUMPI PUSH2 0xB19 PUSH2 0xAC0 JUMP JUMPDEST JUMPDEST POP SWAP2 SWAP1 POP JUMP JUMPDEST PUSH1 0x0 DUP2 SWAP1 POP DUP2 PUSH1 0x0 MSTORE PUSH1 0x20 PUSH1 0x0 KECCAK256 SWAP1 POP SWAP2 SWAP1 POP JUMP JUMPDEST PUSH1 0x0 PUSH1 0x20 PUSH1 0x1F DUP4 ADD DIV SWAP1 POP SWAP2 SWAP1 POP JUMP JUMPDEST PUSH1 0x0 DUP3 DUP3 SHL SWAP1 POP SWAP3 SWAP2 POP POP JUMP JUMPDEST PUSH1 0x0 PUSH1 0x8 DUP4 MUL PUSH2 0xB82 PUSH32 0xFFFFFFFFFFFFFFFFFFFFFFFFFFFFFFFFFFFFFFFFFFFFFFFFFFFFFFFFFFFFFFFF DUP3 PUSH2 0xB45 JUMP JUMPDEST PUSH2 0xB8C DUP7 DUP4 PUSH2 0xB45 JUMP JUMPDEST SWAP6 POP DUP1 NOT DUP5 AND SWAP4 POP DUP1 DUP7 AND DUP5 OR SWAP3 POP POP POP SWAP4 SWAP3 POP POP POP JUMP JUMPDEST PUSH1 0x0 DUP2 SWAP1 POP SWAP2 SWAP1 POP JUMP JUMPDEST PUSH1 0x0 PUSH2 0xBC9 PUSH2 0xBC4 PUSH2 0xBBF DUP5 PUSH2 0x539 JUMP JUMPDEST PUSH2 0xBA4 JUMP JUMPDEST PUSH2 0x539 JUMP JUMPDEST SWAP1 POP SWAP2 SWAP1 POP JUMP JUMPDEST PUSH1 0x0 DUP2 SWAP1 POP SWAP2 SWAP1 POP JUMP JUMPDEST PUSH2 0xBE3 DUP4 PUSH2 0xBAE JUMP JUMPDEST PUSH2 0xBF7 PUSH2 0xBEF DUP3 PUSH2 0xBD0 JUMP JUMPDEST DUP5 DUP5 SLOAD PUSH2 0xB52 JUMP JUMPDEST DUP3 SSTORE POP POP POP POP JUMP JUMPDEST PUSH1 0x0 SWAP1 JUMP JUMPDEST PUSH2 0xC0C PUSH2 0xBFF JUMP JUMPDEST PUSH2 0xC17 DUP2 DUP5 DUP5 PUSH2 0xBDA JUMP JUMPDEST POP POP POP JUMP JUMPDEST JUMPDEST DUP2 DUP2 LT ISZERO PUSH2 0xC3B JUMPI PUSH2 0xC30 PUSH1 0x0 DUP3 PUSH2 0xC04 JUMP JUMPDEST PUSH1 0x1 DUP2 ADD SWAP1 POP PUSH2 0xC1D JUMP JUMPDEST POP POP JUMP JUMPDEST PUSH1 0x1F DUP3 GT ISZERO PUSH2 0xC80 JUMPI PUSH2 0xC51 DUP2 PUSH2 0xB20 JUMP JUMPDEST PUSH2 0xC5A DUP5 PUSH2 0xB35 JUMP JUMPDEST DUP2 ADD PUSH1 0x20 DUP6 LT ISZERO PUSH2 0xC69 JUMPI DUP2 SWAP1 POP JUMPDEST PUSH2 0xC7D PUSH2 0xC75 DUP6 PUSH2 0xB35 JUMP JUMPDEST DUP4 ADD DUP3 PUSH2 0xC1C JUMP JUMPDEST POP POP JUMPDEST POP POP POP JUMP JUMPDEST PUSH1 0x0 DUP3 DUP3 SHR SWAP1 POP SWAP3 SWAP2 POP POP JUMP JUMPDEST PUSH1 0x0 PUSH2 0xCA3 PUSH1 0x0 NOT DUP5 PUSH1 0x8 MUL PUSH2 0xC85 JUMP JUMPDEST NOT DUP1 DUP4 AND SWAP2 POP POP SWAP3 SWAP2 POP POP JUMP JUMPDEST PUSH1 0x0 PUSH2 0xCBC DUP4 DUP4 PUSH2 0xC92 JUMP JUMPDEST SWAP2 POP DUP3 PUSH1 0x2 MUL DUP3 OR SWAP1 POP SWAP3 SWAP2 POP POP JUMP JUMPDEST PUSH2 0xCD5 DUP3 PUSH2 0x9D8 JUMP JUMPDEST PUSH8 0xFFFFFFFFFFFFFFFF DUP2 GT ISZERO PUSH2 0xCEE JUMPI PUSH2 0xCED PUSH2 0x78A JUMP JUMPDEST JUMPDEST PUSH2 0xCF8 DUP3 SLOAD PUSH2 0xAEF JUMP JUMPDEST PUSH2 0xD03 DUP3 DUP3 DUP6 PUSH2 0xC3F JUMP JUMPDEST PUSH1 0x0 PUSH1 0x20 SWAP1 POP PUSH1 0x1F DUP4 GT PUSH1 0x1 DUP2 EQ PUSH2 0xD36 JUMPI PUSH1 0x0 DUP5 ISZERO PUSH2 0xD24 JUMPI DUP3 DUP8 ADD MLOAD SWAP1 POP JUMPDEST PUSH2 0xD2E DUP6 DUP3 PUSH2 0xCB0 JUMP JUMPDEST DUP7 SSTORE POP PUSH2 0xD96 JUMP JUMPDEST PUSH1 0x1F NOT DUP5 AND PUSH2 0xD44 DUP7 PUSH2 0xB20 JUMP JUMPDEST PUSH1 0x0 JUMPDEST DUP3 DUP2 LT ISZERO PUSH2 0xD6C JUMPI DUP5 DUP10 ADD MLOAD DUP3 SSTORE PUSH1 0x1 DUP3 ADD SWAP2 POP PUSH1 0x20 DUP6 ADD SWAP5 POP PUSH1 0x20 DUP2 ADD SWAP1 POP PUSH2 0xD47 JUMP JUMPDEST DUP7 DUP4 LT ISZERO PUSH2 0xD89 JUMPI DUP5 DUP10 ADD MLOAD PUSH2 0xD85 PUSH1 0x1F DUP10 AND DUP3 PUSH2 0xC92 JUMP JUMPDEST DUP4 SSTORE POP JUMPDEST PUSH1 0x1 PUSH1 0x2 DUP9 MUL ADD DUP9 SSTORE POP POP POP JUMPDEST POP POP POP POP POP POP JUMP JUMPDEST PUSH1 0x0 PUSH2 0xDA9 DUP3 PUSH2 0x539 JUMP JUMPDEST SWAP2 POP PUSH2 0xDB4 DUP4 PUSH2 0x539 JUMP JUMPDEST SWAP3 POP DUP3 DUP3 SUB SWAP1 POP DUP2 DUP2 GT ISZERO PUSH2 0xDCC JUMPI PUSH2 0xDCB PUSH2 0x8FE JUMP JUMPDEST JUMPDEST SWAP3 SWAP2 POP POP JUMP JUMPDEST PUSH1 0x0 DUP3 DUP3 MSTORE PUSH1 0x20 DUP3 ADD SWAP1 POP SWAP3 SWAP2 POP POP JUMP JUMPDEST PUSH1 0x0 PUSH2 0xDEE DUP3 PUSH2 0x9D8 JUMP JUMPDEST PUSH2 0xDF8 DUP2 DUP6 PUSH2 0xDD2 JUMP JUMPDEST SWAP4 POP PUSH2 0xE08 DUP2 DUP6 PUSH1 0x20 DUP7 ADD PUSH2 0x9EE JUMP JUMPDEST PUSH2 0xE11 DUP2 PUSH2 0x779 JUMP JUMPDEST DUP5 ADD SWAP2 POP POP SWAP3 SWAP2 POP POP JUMP JUMPDEST PUSH1 0x0 PUSH1 0x60 DUP3 ADD SWAP1 POP PUSH2 0xE31 PUSH1 0x0 DUP4 ADD DUP7 PUSH2 0x543 JUMP JUMPDEST DUP2 DUP2 SUB PUSH1 0x20 DUP4 ADD MSTORE PUSH2 0xE43 DUP2 DUP6 PUSH2 0xDE3 JUMP JUMPDEST SWAP1 POP PUSH2 0xE52 PUSH1 0x40 DUP4 ADD DUP5 PUSH2 0x543 JUMP JUMPDEST SWAP5 SWAP4 POP POP POP POP JUMP INVALID LOG2 PUSH5 0x6970667358 0x22 SLT KECCAK256 CALLER 0xDD SWAP13 SLT CALLER SWAP13 DUP14 0xDF EXP 0xE0 0xF6 PUSH20 0x57DC75B346FC25D9C1074650CAF162DB202A194E PUSH5 0x736F6C6343 STOP ADDMOD SLT STOP CALLER "
				},
				"gasEstimates": {
					"creation": {
						"codeDepositCost": "745600",
						"executionCost": "22885",
						"totalCost": "768485"
					},
					"external": {
						"crearProductoAleatorio(string)": "infinite",
						"getProductosPorPropietario(address)": "infinite",
						"idDigits()": "2407",
						"productoAPropietario(uint256)": "2883",
						"propiedad(uint256)": "infinite",
						"propietarioProductos(address)": "2880"
					},
					"internal": {
						"_crearProducto(string memory,uint256)": "infinite",
						"_generarIdAleatorio(string memory)": "infinite"
					}
				},
				"methodIdentifiers": {
					"crearProductoAleatorio(string)": "ae44a105",
					"getProductosPorPropietario(address)": "72380aea",
					"idDigits()": "0a0f2d76",
					"productoAPropietario(uint256)": "9baabf55",
					"propiedad(uint256)": "50ed5277",
					"propietarioProductos(address)": "adb4954e"
				}
			},
			"storageLayout": {
				"storage": [
					{
						"astId": 4,
						"contract": "contracts/FabricaContract.sol:FabricaContract",
						"label": "idDigits",
						"offset": 0,
						"slot": "0",
						"type": "t_uint256"
					},
					{
						"astId": 13,
						"contract": "contracts/FabricaContract.sol:FabricaContract",
						"label": "productos",
						"offset": 0,
						"slot": "1",
						"type": "t_array(t_struct(Producto)9_storage)dyn_storage"
					},
					{
						"astId": 96,
						"contract": "contracts/FabricaContract.sol:FabricaContract",
						"label": "productoAPropietario",
						"offset": 0,
						"slot": "2",
						"type": "t_mapping(t_uint256,t_address)"
					},
					{
						"astId": 100,
						"contract": "contracts/FabricaContract.sol:FabricaContract",
						"label": "propietarioProductos",
						"offset": 0,
						"slot": "3",
						"type": "t_mapping(t_address,t_uint256)"
					}
				],
				"types": {
					"t_address": {
						"encoding": "inplace",
						"label": "address",
						"numberOfBytes": "20"
					},
					"t_array(t_struct(Producto)9_storage)dyn_storage": {
						"base": "t_struct(Producto)9_storage",
						"encoding": "dynamic_array",
						"label": "struct FabricaContract.Producto[]",
						"numberOfBytes": "32"
					},
					"t_mapping(t_address,t_uint256)": {
						"encoding": "mapping",
						"key": "t_address",
						"label": "mapping(address => uint256)",
						"numberOfBytes": "32",
						"value": "t_uint256"
					},
					"t_mapping(t_uint256,t_address)": {
						"encoding": "mapping",
						"key": "t_uint256",
						"label": "mapping(uint256 => address)",
						"numberOfBytes": "32",
						"value": "t_address"
					},
					"t_string_storage": {
						"encoding": "bytes",
						"label": "string",
						"numberOfBytes": "32"
					},
					"t_struct(Producto)9_storage": {
						"encoding": "inplace",
						"label": "struct FabricaContract.Producto",
						"members": [
							{
								"astId": 6,
								"contract": "contracts/FabricaContract.sol:FabricaContract",
								"label": "nombre",
								"offset": 0,
								"slot": "0",
								"type": "t_string_storage"
							},
							{
								"astId": 8,
								"contract": "contracts/FabricaContract.sol:FabricaContract",
								"label": "identificacion",
								"offset": 0,
								"slot": "1",
								"type": "t_uint256"
							}
						],
						"numberOfBytes": "64"
					},
					"t_uint256": {
						"encoding": "inplace",
						"label": "uint256",
						"numberOfBytes": "32"
					}
				}
			},
			"userdoc": {
				"kind": "user",
				"methods": {},
				"version": 1
			}
		}
	}
}